{
  "_format": "hh-sol-artifact-1",
  "contractName": "MetaHumanGovernor",
  "sourceName": "contracts/governance/MetaHumanGovernor.sol",
  "abi": [
    {
      "inputs": [
        {
          "internalType": "contract IVotes",
          "name": "_token",
          "type": "address"
        },
        {
          "internalType": "contract TimelockController",
          "name": "_timelock",
          "type": "address"
        },
        {
          "components": [
            {
              "internalType": "bytes32",
              "name": "contractAddress",
              "type": "bytes32"
            },
            {
              "internalType": "uint16",
              "name": "chainId",
              "type": "uint16"
            }
          ],
          "internalType": "struct CrossChainGovernorCountingSimple.CrossChainAddress[]",
          "name": "_spokeContracts",
          "type": "tuple[]"
        },
        {
          "internalType": "uint16",
          "name": "_chainId",
          "type": "uint16"
        },
        {
          "internalType": "address",
          "name": "_wormholeRelayerAddress",
          "type": "address"
        },
        {
          "internalType": "address",
          "name": "_magistrateAddress",
          "type": "address"
        },
        {
          "internalType": "uint256",
          "name": "_secondsPerBlock",
          "type": "uint256"
        },
        {
          "internalType": "uint48",
          "name": "_votingDelayInSeconds",
          "type": "uint48"
        },
        {
          "internalType": "uint32",
          "name": "_votingPeriodInSeconds",
          "type": "uint32"
        },
        {
          "internalType": "uint256",
          "name": "_proposalThreshold",
          "type": "uint256"
        },
        {
          "internalType": "uint256",
          "name": "_quorumFraction",
          "type": "uint256"
        }
      ],
      "stateMutability": "nonpayable",
      "type": "constructor"
    },
    {
      "inputs": [],
      "name": "CheckpointUnorderedInsertion",
      "type": "error"
    },
    {
      "inputs": [],
      "name": "CollectionPhaseAlreadyStarted",
      "type": "error"
    },
    {
      "inputs": [],
      "name": "CollectionPhaseUnfinished",
      "type": "error"
    },
    {
      "inputs": [],
      "name": "FailedInnerCall",
      "type": "error"
    },
    {
      "inputs": [
        {
          "internalType": "address",
          "name": "voter",
          "type": "address"
        }
      ],
      "name": "GovernorAlreadyCastVote",
      "type": "error"
    },
    {
      "inputs": [
        {
          "internalType": "uint256",
          "name": "proposalId",
          "type": "uint256"
        }
      ],
      "name": "GovernorAlreadyQueuedProposal",
      "type": "error"
    },
    {
      "inputs": [],
      "name": "GovernorDisabledDeposit",
      "type": "error"
    },
    {
      "inputs": [
        {
          "internalType": "address",
          "name": "proposer",
          "type": "address"
        },
        {
          "internalType": "uint256",
          "name": "votes",
          "type": "uint256"
        },
        {
          "internalType": "uint256",
          "name": "threshold",
          "type": "uint256"
        }
      ],
      "name": "GovernorInsufficientProposerVotes",
      "type": "error"
    },
    {
      "inputs": [
        {
          "internalType": "uint256",
          "name": "targets",
          "type": "uint256"
        },
        {
          "internalType": "uint256",
          "name": "calldatas",
          "type": "uint256"
        },
        {
          "internalType": "uint256",
          "name": "values",
          "type": "uint256"
        }
      ],
      "name": "GovernorInvalidProposalLength",
      "type": "error"
    },
    {
      "inputs": [
        {
          "internalType": "uint256",
          "name": "quorumNumerator",
          "type": "uint256"
        },
        {
          "internalType": "uint256",
          "name": "quorumDenominator",
          "type": "uint256"
        }
      ],
      "name": "GovernorInvalidQuorumFraction",
      "type": "error"
    },
    {
      "inputs": [
        {
          "internalType": "address",
          "name": "voter",
          "type": "address"
        }
      ],
      "name": "GovernorInvalidSignature",
      "type": "error"
    },
    {
      "inputs": [],
      "name": "GovernorInvalidVoteType",
      "type": "error"
    },
    {
      "inputs": [
        {
          "internalType": "uint256",
          "name": "votingPeriod",
          "type": "uint256"
        }
      ],
      "name": "GovernorInvalidVotingPeriod",
      "type": "error"
    },
    {
      "inputs": [
        {
          "internalType": "uint256",
          "name": "proposalId",
          "type": "uint256"
        }
      ],
      "name": "GovernorNonexistentProposal",
      "type": "error"
    },
    {
      "inputs": [
        {
          "internalType": "uint256",
          "name": "proposalId",
          "type": "uint256"
        }
      ],
      "name": "GovernorNotQueuedProposal",
      "type": "error"
    },
    {
      "inputs": [
        {
          "internalType": "address",
          "name": "account",
          "type": "address"
        }
      ],
      "name": "GovernorOnlyExecutor",
      "type": "error"
    },
    {
      "inputs": [
        {
          "internalType": "address",
          "name": "account",
          "type": "address"
        }
      ],
      "name": "GovernorOnlyProposer",
      "type": "error"
    },
    {
      "inputs": [],
      "name": "GovernorQueueNotImplemented",
      "type": "error"
    },
    {
      "inputs": [
        {
          "internalType": "address",
          "name": "proposer",
          "type": "address"
        }
      ],
      "name": "GovernorRestrictedProposer",
      "type": "error"
    },
    {
      "inputs": [
        {
          "internalType": "uint256",
          "name": "proposalId",
          "type": "uint256"
        },
        {
          "internalType": "enum IGovernor.ProposalState",
          "name": "current",
          "type": "uint8"
        },
        {
          "internalType": "bytes32",
          "name": "expectedStates",
          "type": "bytes32"
        }
      ],
      "name": "GovernorUnexpectedProposalState",
      "type": "error"
    },
    {
      "inputs": [
        {
          "internalType": "address",
          "name": "account",
          "type": "address"
        },
        {
          "internalType": "uint256",
          "name": "currentNonce",
          "type": "uint256"
        }
      ],
      "name": "InvalidAccountNonce",
      "type": "error"
    },
    {
      "inputs": [],
      "name": "InvalidIntendedRecipient",
      "type": "error"
    },
    {
      "inputs": [],
      "name": "InvalidShortString",
      "type": "error"
    },
    {
      "inputs": [],
      "name": "MessageAlreadyProcessed",
      "type": "error"
    },
    {
      "inputs": [],
      "name": "OnlyMessagesFromSpokeReceived",
      "type": "error"
    },
    {
      "inputs": [],
      "name": "OnlyRelayerAllowed",
      "type": "error"
    },
    {
      "inputs": [
        {
          "internalType": "address",
          "name": "owner",
          "type": "address"
        }
      ],
      "name": "OwnableInvalidOwner",
      "type": "error"
    },
    {
      "inputs": [
        {
          "internalType": "address",
          "name": "account",
          "type": "address"
        }
      ],
      "name": "OwnableUnauthorizedAccount",
      "type": "error"
    },
    {
      "inputs": [],
      "name": "ProposalAlreadyInitialized",
      "type": "error"
    },
    {
      "inputs": [],
      "name": "QueueEmpty",
      "type": "error"
    },
    {
      "inputs": [],
      "name": "QueueFull",
      "type": "error"
    },
    {
      "inputs": [],
      "name": "RequestAfterVotePeriodOver",
      "type": "error"
    },
    {
      "inputs": [
        {
          "internalType": "uint8",
          "name": "bits",
          "type": "uint8"
        },
        {
          "internalType": "uint256",
          "name": "value",
          "type": "uint256"
        }
      ],
      "name": "SafeCastOverflowedUintDowncast",
      "type": "error"
    },
    {
      "inputs": [
        {
          "internalType": "string",
          "name": "str",
          "type": "string"
        }
      ],
      "name": "StringTooLong",
      "type": "error"
    },
    {
      "anonymous": false,
      "inputs": [],
      "name": "EIP712DomainChanged",
      "type": "event"
    },
    {
      "anonymous": false,
      "inputs": [
        {
          "indexed": true,
          "internalType": "address",
          "name": "previousMagistrate",
          "type": "address"
        },
        {
          "indexed": true,
          "internalType": "address",
          "name": "newMagistrate",
          "type": "address"
        }
      ],
      "name": "MagistrateChanged",
      "type": "event"
    },
    {
      "anonymous": false,
      "inputs": [
        {
          "indexed": true,
          "internalType": "address",
          "name": "previousOwner",
          "type": "address"
        },
        {
          "indexed": true,
          "internalType": "address",
          "name": "newOwner",
          "type": "address"
        }
      ],
      "name": "OwnershipTransferred",
      "type": "event"
    },
    {
      "anonymous": false,
      "inputs": [
        {
          "indexed": false,
          "internalType": "uint256",
          "name": "proposalId",
          "type": "uint256"
        }
      ],
      "name": "ProposalCanceled",
      "type": "event"
    },
    {
      "anonymous": false,
      "inputs": [
        {
          "indexed": false,
          "internalType": "uint256",
          "name": "proposalId",
          "type": "uint256"
        },
        {
          "indexed": false,
          "internalType": "address",
          "name": "proposer",
          "type": "address"
        },
        {
          "indexed": false,
          "internalType": "address[]",
          "name": "targets",
          "type": "address[]"
        },
        {
          "indexed": false,
          "internalType": "uint256[]",
          "name": "values",
          "type": "uint256[]"
        },
        {
          "indexed": false,
          "internalType": "string[]",
          "name": "signatures",
          "type": "string[]"
        },
        {
          "indexed": false,
          "internalType": "bytes[]",
          "name": "calldatas",
          "type": "bytes[]"
        },
        {
          "indexed": false,
          "internalType": "uint256",
          "name": "voteStart",
          "type": "uint256"
        },
        {
          "indexed": false,
          "internalType": "uint256",
          "name": "voteEnd",
          "type": "uint256"
        },
        {
          "indexed": false,
          "internalType": "string",
          "name": "description",
          "type": "string"
        }
      ],
      "name": "ProposalCreated",
      "type": "event"
    },
    {
      "anonymous": false,
      "inputs": [
        {
          "indexed": false,
          "internalType": "uint256",
          "name": "proposalId",
          "type": "uint256"
        }
      ],
      "name": "ProposalExecuted",
      "type": "event"
    },
    {
      "anonymous": false,
      "inputs": [
        {
          "indexed": false,
          "internalType": "uint256",
          "name": "proposalId",
          "type": "uint256"
        },
        {
          "indexed": false,
          "internalType": "uint256",
          "name": "etaSeconds",
          "type": "uint256"
        }
      ],
      "name": "ProposalQueued",
      "type": "event"
    },
    {
      "anonymous": false,
      "inputs": [
        {
          "indexed": false,
          "internalType": "uint256",
          "name": "oldProposalThreshold",
          "type": "uint256"
        },
        {
          "indexed": false,
          "internalType": "uint256",
          "name": "newProposalThreshold",
          "type": "uint256"
        }
      ],
      "name": "ProposalThresholdSet",
      "type": "event"
    },
    {
      "anonymous": false,
      "inputs": [
        {
          "indexed": false,
          "internalType": "uint256",
          "name": "oldQuorumNumerator",
          "type": "uint256"
        },
        {
          "indexed": false,
          "internalType": "uint256",
          "name": "newQuorumNumerator",
          "type": "uint256"
        }
      ],
      "name": "QuorumNumeratorUpdated",
      "type": "event"
    },
    {
      "anonymous": false,
      "inputs": [
        {
          "components": [
            {
              "internalType": "bytes32",
              "name": "contractAddress",
              "type": "bytes32"
            },
            {
              "internalType": "uint16",
              "name": "chainId",
              "type": "uint16"
            }
          ],
          "indexed": true,
          "internalType": "struct CrossChainGovernorCountingSimple.CrossChainAddress[]",
          "name": "spokes",
          "type": "tuple[]"
        }
      ],
      "name": "SpokesUpdated",
      "type": "event"
    },
    {
      "anonymous": false,
      "inputs": [
        {
          "indexed": false,
          "internalType": "address",
          "name": "oldTimelock",
          "type": "address"
        },
        {
          "indexed": false,
          "internalType": "address",
          "name": "newTimelock",
          "type": "address"
        }
      ],
      "name": "TimelockChange",
      "type": "event"
    },
    {
      "anonymous": false,
      "inputs": [
        {
          "indexed": true,
          "internalType": "address",
          "name": "voter",
          "type": "address"
        },
        {
          "indexed": false,
          "internalType": "uint256",
          "name": "proposalId",
          "type": "uint256"
        },
        {
          "indexed": false,
          "internalType": "uint8",
          "name": "support",
          "type": "uint8"
        },
        {
          "indexed": false,
          "internalType": "uint256",
          "name": "weight",
          "type": "uint256"
        },
        {
          "indexed": false,
          "internalType": "string",
          "name": "reason",
          "type": "string"
        }
      ],
      "name": "VoteCast",
      "type": "event"
    },
    {
      "anonymous": false,
      "inputs": [
        {
          "indexed": true,
          "internalType": "address",
          "name": "voter",
          "type": "address"
        },
        {
          "indexed": false,
          "internalType": "uint256",
          "name": "proposalId",
          "type": "uint256"
        },
        {
          "indexed": false,
          "internalType": "uint8",
          "name": "support",
          "type": "uint8"
        },
        {
          "indexed": false,
          "internalType": "uint256",
          "name": "weight",
          "type": "uint256"
        },
        {
          "indexed": false,
          "internalType": "string",
          "name": "reason",
          "type": "string"
        },
        {
          "indexed": false,
          "internalType": "bytes",
          "name": "params",
          "type": "bytes"
        }
      ],
      "name": "VoteCastWithParams",
      "type": "event"
    },
    {
      "anonymous": false,
      "inputs": [
        {
          "indexed": false,
          "internalType": "uint256",
          "name": "oldVotingDelay",
          "type": "uint256"
        },
        {
          "indexed": false,
          "internalType": "uint256",
          "name": "newVotingDelay",
          "type": "uint256"
        }
      ],
      "name": "VotingDelaySet",
      "type": "event"
    },
    {
      "anonymous": false,
      "inputs": [
        {
          "indexed": false,
          "internalType": "uint256",
          "name": "oldVotingPeriod",
          "type": "uint256"
        },
        {
          "indexed": false,
          "internalType": "uint256",
          "name": "newVotingPeriod",
          "type": "uint256"
        }
      ],
      "name": "VotingPeriodSet",
      "type": "event"
    },
    {
      "inputs": [],
      "name": "BALLOT_TYPEHASH",
      "outputs": [
        {
          "internalType": "bytes32",
          "name": "",
          "type": "bytes32"
        }
      ],
      "stateMutability": "view",
      "type": "function"
    },
    {
      "inputs": [],
      "name": "CLOCK_MODE",
      "outputs": [
        {
          "internalType": "string",
          "name": "",
          "type": "string"
        }
      ],
      "stateMutability": "view",
      "type": "function"
    },
    {
      "inputs": [],
      "name": "COUNTING_MODE",
      "outputs": [
        {
          "internalType": "string",
          "name": "",
          "type": "string"
        }
      ],
      "stateMutability": "pure",
      "type": "function"
    },
    {
      "inputs": [],
      "name": "EXTENDED_BALLOT_TYPEHASH",
      "outputs": [
        {
          "internalType": "bytes32",
          "name": "",
          "type": "bytes32"
        }
      ],
      "stateMutability": "view",
      "type": "function"
    },
    {
      "inputs": [
        {
          "internalType": "address[]",
          "name": "targets",
          "type": "address[]"
        },
        {
          "internalType": "uint256[]",
          "name": "values",
          "type": "uint256[]"
        },
        {
          "internalType": "bytes[]",
          "name": "calldatas",
          "type": "bytes[]"
        },
        {
          "internalType": "bytes32",
          "name": "descriptionHash",
          "type": "bytes32"
        }
      ],
      "name": "cancel",
      "outputs": [
        {
          "internalType": "uint256",
          "name": "",
          "type": "uint256"
        }
      ],
      "stateMutability": "nonpayable",
      "type": "function"
    },
    {
      "inputs": [
        {
          "internalType": "uint256",
          "name": "proposalId",
          "type": "uint256"
        },
        {
          "internalType": "uint8",
          "name": "support",
          "type": "uint8"
        }
      ],
      "name": "castVote",
      "outputs": [
        {
          "internalType": "uint256",
          "name": "",
          "type": "uint256"
        }
      ],
      "stateMutability": "nonpayable",
      "type": "function"
    },
    {
      "inputs": [
        {
          "internalType": "uint256",
          "name": "proposalId",
          "type": "uint256"
        },
        {
          "internalType": "uint8",
          "name": "support",
          "type": "uint8"
        },
        {
          "internalType": "address",
          "name": "voter",
          "type": "address"
        },
        {
          "internalType": "bytes",
          "name": "signature",
          "type": "bytes"
        }
      ],
      "name": "castVoteBySig",
      "outputs": [
        {
          "internalType": "uint256",
          "name": "",
          "type": "uint256"
        }
      ],
      "stateMutability": "nonpayable",
      "type": "function"
    },
    {
      "inputs": [
        {
          "internalType": "uint256",
          "name": "proposalId",
          "type": "uint256"
        },
        {
          "internalType": "uint8",
          "name": "support",
          "type": "uint8"
        },
        {
          "internalType": "string",
          "name": "reason",
          "type": "string"
        }
      ],
      "name": "castVoteWithReason",
      "outputs": [
        {
          "internalType": "uint256",
          "name": "",
          "type": "uint256"
        }
      ],
      "stateMutability": "nonpayable",
      "type": "function"
    },
    {
      "inputs": [
        {
          "internalType": "uint256",
          "name": "proposalId",
          "type": "uint256"
        },
        {
          "internalType": "uint8",
          "name": "support",
          "type": "uint8"
        },
        {
          "internalType": "string",
          "name": "reason",
          "type": "string"
        },
        {
          "internalType": "bytes",
          "name": "params",
          "type": "bytes"
        }
      ],
      "name": "castVoteWithReasonAndParams",
      "outputs": [
        {
          "internalType": "uint256",
          "name": "",
          "type": "uint256"
        }
      ],
      "stateMutability": "nonpayable",
      "type": "function"
    },
    {
      "inputs": [
        {
          "internalType": "uint256",
          "name": "proposalId",
          "type": "uint256"
        },
        {
          "internalType": "uint8",
          "name": "support",
          "type": "uint8"
        },
        {
          "internalType": "address",
          "name": "voter",
          "type": "address"
        },
        {
          "internalType": "string",
          "name": "reason",
          "type": "string"
        },
        {
          "internalType": "bytes",
          "name": "params",
          "type": "bytes"
        },
        {
          "internalType": "bytes",
          "name": "signature",
          "type": "bytes"
        }
      ],
      "name": "castVoteWithReasonAndParamsBySig",
      "outputs": [
        {
          "internalType": "uint256",
          "name": "",
          "type": "uint256"
        }
      ],
      "stateMutability": "nonpayable",
      "type": "function"
    },
    {
      "inputs": [],
      "name": "chainId",
      "outputs": [
        {
          "internalType": "uint16",
          "name": "",
          "type": "uint16"
        }
      ],
      "stateMutability": "view",
      "type": "function"
    },
    {
      "inputs": [],
      "name": "clock",
      "outputs": [
        {
          "internalType": "uint48",
          "name": "",
          "type": "uint48"
        }
      ],
      "stateMutability": "view",
      "type": "function"
    },
    {
      "inputs": [
        {
          "internalType": "uint256",
          "name": "",
          "type": "uint256"
        }
      ],
      "name": "collectionFinished",
      "outputs": [
        {
          "internalType": "bool",
          "name": "",
          "type": "bool"
        }
      ],
      "stateMutability": "view",
      "type": "function"
    },
    {
      "inputs": [
        {
          "internalType": "uint256",
          "name": "",
          "type": "uint256"
        }
      ],
      "name": "collectionStarted",
      "outputs": [
        {
          "internalType": "bool",
          "name": "",
          "type": "bool"
        }
      ],
      "stateMutability": "view",
      "type": "function"
    },
    {
      "inputs": [
        {
          "internalType": "address[]",
          "name": "targets",
          "type": "address[]"
        },
        {
          "internalType": "uint256[]",
          "name": "values",
          "type": "uint256[]"
        },
        {
          "internalType": "bytes[]",
          "name": "calldatas",
          "type": "bytes[]"
        },
        {
          "internalType": "bytes32",
          "name": "descriptionHash",
          "type": "bytes32"
        }
      ],
      "name": "crossChainCancel",
      "outputs": [
        {
          "internalType": "uint256",
          "name": "",
          "type": "uint256"
        }
      ],
      "stateMutability": "payable",
      "type": "function"
    },
    {
      "inputs": [
        {
          "internalType": "address[]",
          "name": "targets",
          "type": "address[]"
        },
        {
          "internalType": "uint256[]",
          "name": "values",
          "type": "uint256[]"
        },
        {
          "internalType": "bytes[]",
          "name": "calldatas",
          "type": "bytes[]"
        },
        {
          "internalType": "string",
          "name": "description",
          "type": "string"
        }
      ],
      "name": "crossChainPropose",
      "outputs": [
        {
          "internalType": "uint256",
          "name": "",
          "type": "uint256"
        }
      ],
      "stateMutability": "payable",
      "type": "function"
    },
    {
      "inputs": [],
      "name": "eip712Domain",
      "outputs": [
        {
          "internalType": "bytes1",
          "name": "fields",
          "type": "bytes1"
        },
        {
          "internalType": "string",
          "name": "name",
          "type": "string"
        },
        {
          "internalType": "string",
          "name": "version",
          "type": "string"
        },
        {
          "internalType": "uint256",
          "name": "chainId",
          "type": "uint256"
        },
        {
          "internalType": "address",
          "name": "verifyingContract",
          "type": "address"
        },
        {
          "internalType": "bytes32",
          "name": "salt",
          "type": "bytes32"
        },
        {
          "internalType": "uint256[]",
          "name": "extensions",
          "type": "uint256[]"
        }
      ],
      "stateMutability": "view",
      "type": "function"
    },
    {
      "inputs": [
        {
          "internalType": "address[]",
          "name": "targets",
          "type": "address[]"
        },
        {
          "internalType": "uint256[]",
          "name": "values",
          "type": "uint256[]"
        },
        {
          "internalType": "bytes[]",
          "name": "calldatas",
          "type": "bytes[]"
        },
        {
          "internalType": "bytes32",
          "name": "descriptionHash",
          "type": "bytes32"
        }
      ],
      "name": "execute",
      "outputs": [
        {
          "internalType": "uint256",
          "name": "",
          "type": "uint256"
        }
      ],
      "stateMutability": "payable",
      "type": "function"
    },
    {
      "inputs": [
        {
          "internalType": "address",
          "name": "account",
          "type": "address"
        },
        {
          "internalType": "uint256",
          "name": "timepoint",
          "type": "uint256"
        }
      ],
      "name": "getVotes",
      "outputs": [
        {
          "internalType": "uint256",
          "name": "",
          "type": "uint256"
        }
      ],
      "stateMutability": "view",
      "type": "function"
    },
    {
      "inputs": [
        {
          "internalType": "address",
          "name": "account",
          "type": "address"
        },
        {
          "internalType": "uint256",
          "name": "timepoint",
          "type": "uint256"
        },
        {
          "internalType": "bytes",
          "name": "params",
          "type": "bytes"
        }
      ],
      "name": "getVotesWithParams",
      "outputs": [
        {
          "internalType": "uint256",
          "name": "",
          "type": "uint256"
        }
      ],
      "stateMutability": "view",
      "type": "function"
    },
    {
      "inputs": [
        {
          "internalType": "uint256",
          "name": "proposalId",
          "type": "uint256"
        },
        {
          "internalType": "address",
          "name": "account",
          "type": "address"
        }
      ],
      "name": "hasVoted",
      "outputs": [
        {
          "internalType": "bool",
          "name": "",
          "type": "bool"
        }
      ],
      "stateMutability": "view",
      "type": "function"
    },
    {
      "inputs": [
        {
          "internalType": "address[]",
          "name": "targets",
          "type": "address[]"
        },
        {
          "internalType": "uint256[]",
          "name": "values",
          "type": "uint256[]"
        },
        {
          "internalType": "bytes[]",
          "name": "calldatas",
          "type": "bytes[]"
        },
        {
          "internalType": "bytes32",
          "name": "descriptionHash",
          "type": "bytes32"
        }
      ],
      "name": "hashProposal",
      "outputs": [
        {
          "internalType": "uint256",
          "name": "",
          "type": "uint256"
        }
      ],
      "stateMutability": "pure",
      "type": "function"
    },
    {
      "inputs": [],
      "name": "magistrate",
      "outputs": [
        {
          "internalType": "address",
          "name": "",
          "type": "address"
        }
      ],
      "stateMutability": "view",
      "type": "function"
    },
    {
      "inputs": [],
      "name": "name",
      "outputs": [
        {
          "internalType": "string",
          "name": "",
          "type": "string"
        }
      ],
      "stateMutability": "view",
      "type": "function"
    },
    {
      "inputs": [
        {
          "internalType": "address",
          "name": "owner",
          "type": "address"
        }
      ],
      "name": "nonces",
      "outputs": [
        {
          "internalType": "uint256",
          "name": "",
          "type": "uint256"
        }
      ],
      "stateMutability": "view",
      "type": "function"
    },
    {
      "inputs": [
        {
          "internalType": "address",
          "name": "",
          "type": "address"
        },
        {
          "internalType": "address",
          "name": "",
          "type": "address"
        },
        {
          "internalType": "uint256[]",
          "name": "",
          "type": "uint256[]"
        },
        {
          "internalType": "uint256[]",
          "name": "",
          "type": "uint256[]"
        },
        {
          "internalType": "bytes",
          "name": "",
          "type": "bytes"
        }
      ],
      "name": "onERC1155BatchReceived",
      "outputs": [
        {
          "internalType": "bytes4",
          "name": "",
          "type": "bytes4"
        }
      ],
      "stateMutability": "nonpayable",
      "type": "function"
    },
    {
      "inputs": [
        {
          "internalType": "address",
          "name": "",
          "type": "address"
        },
        {
          "internalType": "address",
          "name": "",
          "type": "address"
        },
        {
          "internalType": "uint256",
          "name": "",
          "type": "uint256"
        },
        {
          "internalType": "uint256",
          "name": "",
          "type": "uint256"
        },
        {
          "internalType": "bytes",
          "name": "",
          "type": "bytes"
        }
      ],
      "name": "onERC1155Received",
      "outputs": [
        {
          "internalType": "bytes4",
          "name": "",
          "type": "bytes4"
        }
      ],
      "stateMutability": "nonpayable",
      "type": "function"
    },
    {
      "inputs": [
        {
          "internalType": "address",
          "name": "",
          "type": "address"
        },
        {
          "internalType": "address",
          "name": "",
          "type": "address"
        },
        {
          "internalType": "uint256",
          "name": "",
          "type": "uint256"
        },
        {
          "internalType": "bytes",
          "name": "",
          "type": "bytes"
        }
      ],
      "name": "onERC721Received",
      "outputs": [
        {
          "internalType": "bytes4",
          "name": "",
          "type": "bytes4"
        }
      ],
      "stateMutability": "nonpayable",
      "type": "function"
    },
    {
      "inputs": [],
      "name": "owner",
      "outputs": [
        {
          "internalType": "address",
          "name": "",
          "type": "address"
        }
      ],
      "stateMutability": "view",
      "type": "function"
    },
    {
      "inputs": [
        {
          "internalType": "bytes32",
          "name": "",
          "type": "bytes32"
        }
      ],
      "name": "processedMessages",
      "outputs": [
        {
          "internalType": "bool",
          "name": "",
          "type": "bool"
        }
      ],
      "stateMutability": "view",
      "type": "function"
    },
    {
      "inputs": [
        {
          "internalType": "uint256",
          "name": "proposalId",
          "type": "uint256"
        }
      ],
      "name": "proposalDeadline",
      "outputs": [
        {
          "internalType": "uint256",
          "name": "",
          "type": "uint256"
        }
      ],
      "stateMutability": "view",
      "type": "function"
    },
    {
      "inputs": [
        {
          "internalType": "uint256",
          "name": "proposalId",
          "type": "uint256"
        }
      ],
      "name": "proposalEta",
      "outputs": [
        {
          "internalType": "uint256",
          "name": "",
          "type": "uint256"
        }
      ],
      "stateMutability": "view",
      "type": "function"
    },
    {
      "inputs": [
        {
          "internalType": "uint256",
          "name": "proposalId",
          "type": "uint256"
        }
      ],
      "name": "proposalNeedsQueuing",
      "outputs": [
        {
          "internalType": "bool",
          "name": "",
          "type": "bool"
        }
      ],
      "stateMutability": "view",
      "type": "function"
    },
    {
      "inputs": [
        {
          "internalType": "uint256",
          "name": "proposalId",
          "type": "uint256"
        }
      ],
      "name": "proposalProposer",
      "outputs": [
        {
          "internalType": "address",
          "name": "",
          "type": "address"
        }
      ],
      "stateMutability": "view",
      "type": "function"
    },
    {
      "inputs": [
        {
          "internalType": "uint256",
          "name": "proposalId",
          "type": "uint256"
        }
      ],
      "name": "proposalSnapshot",
      "outputs": [
        {
          "internalType": "uint256",
          "name": "",
          "type": "uint256"
        }
      ],
      "stateMutability": "view",
      "type": "function"
    },
    {
      "inputs": [],
      "name": "proposalThreshold",
      "outputs": [
        {
          "internalType": "uint256",
          "name": "",
          "type": "uint256"
        }
      ],
      "stateMutability": "view",
      "type": "function"
    },
    {
      "inputs": [
        {
          "internalType": "uint256",
          "name": "proposalId",
          "type": "uint256"
        }
      ],
      "name": "proposalVotes",
      "outputs": [
        {
          "internalType": "uint256",
          "name": "againstVotes",
          "type": "uint256"
        },
        {
          "internalType": "uint256",
          "name": "forVotes",
          "type": "uint256"
        },
        {
          "internalType": "uint256",
          "name": "abstainVotes",
          "type": "uint256"
        }
      ],
      "stateMutability": "view",
      "type": "function"
    },
    {
      "inputs": [
        {
          "internalType": "address[]",
          "name": "",
          "type": "address[]"
        },
        {
          "internalType": "uint256[]",
          "name": "",
          "type": "uint256[]"
        },
        {
          "internalType": "bytes[]",
          "name": "",
          "type": "bytes[]"
        },
        {
          "internalType": "string",
          "name": "",
          "type": "string"
        }
      ],
      "name": "propose",
      "outputs": [
        {
          "internalType": "uint256",
          "name": "",
          "type": "uint256"
        }
      ],
      "stateMutability": "pure",
      "type": "function"
    },
    {
      "inputs": [
        {
          "internalType": "address[]",
          "name": "targets",
          "type": "address[]"
        },
        {
          "internalType": "uint256[]",
          "name": "values",
          "type": "uint256[]"
        },
        {
          "internalType": "bytes[]",
          "name": "calldatas",
          "type": "bytes[]"
        },
        {
          "internalType": "bytes32",
          "name": "descriptionHash",
          "type": "bytes32"
        }
      ],
      "name": "queue",
      "outputs": [
        {
          "internalType": "uint256",
          "name": "",
          "type": "uint256"
        }
      ],
      "stateMutability": "nonpayable",
      "type": "function"
    },
    {
      "inputs": [
        {
          "internalType": "uint256",
          "name": "snapshotTime",
          "type": "uint256"
        }
      ],
      "name": "quorum",
      "outputs": [
        {
          "internalType": "uint256",
          "name": "",
          "type": "uint256"
        }
      ],
      "stateMutability": "view",
      "type": "function"
    },
    {
      "inputs": [],
      "name": "quorumDenominator",
      "outputs": [
        {
          "internalType": "uint256",
          "name": "",
          "type": "uint256"
        }
      ],
      "stateMutability": "view",
      "type": "function"
    },
    {
      "inputs": [
        {
          "internalType": "uint256",
          "name": "timepoint",
          "type": "uint256"
        }
      ],
      "name": "quorumNumerator",
      "outputs": [
        {
          "internalType": "uint256",
          "name": "",
          "type": "uint256"
        }
      ],
      "stateMutability": "view",
      "type": "function"
    },
    {
      "inputs": [],
      "name": "quorumNumerator",
      "outputs": [
        {
          "internalType": "uint256",
          "name": "",
          "type": "uint256"
        }
      ],
      "stateMutability": "view",
      "type": "function"
    },
    {
      "inputs": [
        {
          "internalType": "bytes",
          "name": "payload",
          "type": "bytes"
        },
        {
          "internalType": "bytes[]",
          "name": "additionalVaas",
          "type": "bytes[]"
        },
        {
          "internalType": "bytes32",
          "name": "sourceAddress",
          "type": "bytes32"
        },
        {
          "internalType": "uint16",
          "name": "sourceChain",
          "type": "uint16"
        },
        {
          "internalType": "bytes32",
          "name": "deliveryHash",
          "type": "bytes32"
        }
      ],
      "name": "receiveWormholeMessages",
      "outputs": [],
      "stateMutability": "payable",
      "type": "function"
    },
    {
      "inputs": [
        {
          "internalType": "address",
          "name": "target",
          "type": "address"
        },
        {
          "internalType": "uint256",
          "name": "value",
          "type": "uint256"
        },
        {
          "internalType": "bytes",
          "name": "data",
          "type": "bytes"
        }
      ],
      "name": "relay",
      "outputs": [],
      "stateMutability": "payable",
      "type": "function"
    },
    {
      "inputs": [],
      "name": "renounceOwnership",
      "outputs": [],
      "stateMutability": "nonpayable",
      "type": "function"
    },
    {
      "inputs": [
        {
          "internalType": "uint256",
          "name": "proposalId",
          "type": "uint256"
        }
      ],
      "name": "requestCollections",
      "outputs": [],
      "stateMutability": "payable",
      "type": "function"
    },
    {
      "inputs": [],
      "name": "secondsPerBlock",
      "outputs": [
        {
          "internalType": "uint256",
          "name": "",
          "type": "uint256"
        }
      ],
      "stateMutability": "view",
      "type": "function"
    },
    {
      "inputs": [
        {
          "internalType": "uint256",
          "name": "newProposalThreshold",
          "type": "uint256"
        }
      ],
      "name": "setProposalThreshold",
      "outputs": [],
      "stateMutability": "nonpayable",
      "type": "function"
    },
    {
      "inputs": [
        {
          "internalType": "uint48",
          "name": "newVotingDelay",
          "type": "uint48"
        }
      ],
      "name": "setVotingDelay",
      "outputs": [],
      "stateMutability": "nonpayable",
      "type": "function"
    },
    {
      "inputs": [
        {
          "internalType": "uint32",
          "name": "newVotingPeriod",
          "type": "uint32"
        }
      ],
      "name": "setVotingPeriod",
      "outputs": [],
      "stateMutability": "nonpayable",
      "type": "function"
    },
    {
      "inputs": [
        {
          "internalType": "uint256",
          "name": "",
          "type": "uint256"
        }
      ],
      "name": "spokeContracts",
      "outputs": [
        {
          "internalType": "bytes32",
          "name": "contractAddress",
          "type": "bytes32"
        },
        {
          "internalType": "uint16",
          "name": "chainId",
          "type": "uint16"
        }
      ],
      "stateMutability": "view",
      "type": "function"
    },
    {
      "inputs": [
        {
          "internalType": "bytes32",
          "name": "",
          "type": "bytes32"
        },
        {
          "internalType": "uint16",
          "name": "",
          "type": "uint16"
        }
      ],
      "name": "spokeContractsMapping",
      "outputs": [
        {
          "internalType": "bool",
          "name": "",
          "type": "bool"
        }
      ],
      "stateMutability": "view",
      "type": "function"
    },
    {
      "inputs": [
        {
          "internalType": "uint256",
          "name": "",
          "type": "uint256"
        },
        {
          "internalType": "bytes32",
          "name": "",
          "type": "bytes32"
        },
        {
          "internalType": "uint16",
          "name": "",
          "type": "uint16"
        }
      ],
      "name": "spokeContractsMappingSnapshots",
      "outputs": [
        {
          "internalType": "bool",
          "name": "",
          "type": "bool"
        }
      ],
      "stateMutability": "view",
      "type": "function"
    },
    {
      "inputs": [
        {
          "internalType": "uint256",
          "name": "",
          "type": "uint256"
        },
        {
          "internalType": "uint256",
          "name": "",
          "type": "uint256"
        }
      ],
      "name": "spokeContractsSnapshots",
      "outputs": [
        {
          "internalType": "bytes32",
          "name": "contractAddress",
          "type": "bytes32"
        },
        {
          "internalType": "uint16",
          "name": "chainId",
          "type": "uint16"
        }
      ],
      "stateMutability": "view",
      "type": "function"
    },
    {
      "inputs": [
        {
          "internalType": "uint256",
          "name": "",
          "type": "uint256"
        },
        {
          "internalType": "bytes32",
          "name": "",
          "type": "bytes32"
        },
        {
          "internalType": "uint16",
          "name": "",
          "type": "uint16"
        }
      ],
      "name": "spokeVotes",
      "outputs": [
        {
          "internalType": "uint256",
          "name": "forVotes",
          "type": "uint256"
        },
        {
          "internalType": "uint256",
          "name": "againstVotes",
          "type": "uint256"
        },
        {
          "internalType": "uint256",
          "name": "abstainVotes",
          "type": "uint256"
        },
        {
          "internalType": "bool",
          "name": "initialized",
          "type": "bool"
        }
      ],
      "stateMutability": "view",
      "type": "function"
    },
    {
      "inputs": [
        {
          "internalType": "uint256",
          "name": "proposalId",
          "type": "uint256"
        }
      ],
      "name": "state",
      "outputs": [
        {
          "internalType": "enum IGovernor.ProposalState",
          "name": "",
          "type": "uint8"
        }
      ],
      "stateMutability": "view",
      "type": "function"
    },
    {
      "inputs": [
        {
          "internalType": "bytes4",
          "name": "interfaceId",
          "type": "bytes4"
        }
      ],
      "name": "supportsInterface",
      "outputs": [
        {
          "internalType": "bool",
          "name": "",
          "type": "bool"
        }
      ],
      "stateMutability": "view",
      "type": "function"
    },
    {
      "inputs": [],
      "name": "timelock",
      "outputs": [
        {
          "internalType": "address",
          "name": "",
          "type": "address"
        }
      ],
      "stateMutability": "view",
      "type": "function"
    },
    {
      "inputs": [],
      "name": "token",
      "outputs": [
        {
          "internalType": "contract IERC5805",
          "name": "",
          "type": "address"
        }
      ],
      "stateMutability": "view",
      "type": "function"
    },
    {
      "inputs": [
        {
          "internalType": "address",
          "name": "newMagistrate",
          "type": "address"
        }
      ],
      "name": "transferMagistrate",
      "outputs": [],
      "stateMutability": "nonpayable",
      "type": "function"
    },
    {
      "inputs": [
        {
          "internalType": "address",
          "name": "newOwner",
          "type": "address"
        }
      ],
      "name": "transferOwnership",
      "outputs": [],
      "stateMutability": "nonpayable",
      "type": "function"
    },
    {
      "inputs": [
        {
          "internalType": "uint256",
          "name": "newQuorumNumerator",
          "type": "uint256"
        }
      ],
      "name": "updateQuorumNumerator",
      "outputs": [],
      "stateMutability": "nonpayable",
      "type": "function"
    },
    {
      "inputs": [
        {
          "components": [
            {
              "internalType": "bytes32",
              "name": "contractAddress",
              "type": "bytes32"
            },
            {
              "internalType": "uint16",
              "name": "chainId",
              "type": "uint16"
            }
          ],
          "internalType": "struct CrossChainGovernorCountingSimple.CrossChainAddress[]",
          "name": "_spokeContracts",
          "type": "tuple[]"
        }
      ],
      "name": "updateSpokeContracts",
      "outputs": [],
      "stateMutability": "nonpayable",
      "type": "function"
    },
    {
      "inputs": [
        {
          "internalType": "contract TimelockController",
          "name": "newTimelock",
          "type": "address"
        }
      ],
      "name": "updateTimelock",
      "outputs": [],
      "stateMutability": "nonpayable",
      "type": "function"
    },
    {
      "inputs": [],
      "name": "version",
      "outputs": [
        {
          "internalType": "string",
          "name": "",
          "type": "string"
        }
      ],
      "stateMutability": "view",
      "type": "function"
    },
    {
      "inputs": [],
      "name": "votingDelay",
      "outputs": [
        {
          "internalType": "uint256",
          "name": "",
          "type": "uint256"
        }
      ],
      "stateMutability": "view",
      "type": "function"
    },
    {
      "inputs": [],
      "name": "votingPeriod",
      "outputs": [
        {
          "internalType": "uint256",
          "name": "",
          "type": "uint256"
        }
      ],
      "stateMutability": "view",
      "type": "function"
    },
    {
      "inputs": [],
      "name": "wormholeRelayer",
      "outputs": [
        {
          "internalType": "contract IWormholeRelayer",
          "name": "",
          "type": "address"
        }
      ],
      "stateMutability": "view",
      "type": "function"
    },
    {
      "stateMutability": "payable",
      "type": "receive"
    }
  ],
  "bytecode": "0x6101e0604052346200010f576200002c6200001962000291565b9998909897919796929695939562000390565b6040516155e49081620012fd823960805181614689015260a0518161473e015260c05181614653015260e051816146d8015261010051816146fe0152610120518161196501526101405181611991015261016051818181611c1a01528181612298015281816124bd015281816126110152818161271301528181612aff01528181612e790152818161413c015261437f0152610180518181816111a0015281816120e201528181613ba701528181613d1b01528181614578015261461401526101a0518161179f01526101c051818181611cae01528181613b810152613cf40152f35b600080fd5b634e487b7160e01b600052604160045260246000fd5b604081019081106001600160401b038211176200014657604052565b62000114565b60c081019081106001600160401b038211176200014657604052565b601f909101601f19168101906001600160401b038211908210176200014657604052565b604051906200019b826200012a565b565b6001600160a01b038116036200010f57565b51906200019b826200019d565b519061ffff821682036200010f57565b81601f820112156200010f5780519060206001600160401b03831162000146576040926040519462000204838360051b018762000168565b818652828087019260061b850101938185116200010f578301915b848310620002305750505050505090565b85838303126200010f5783869182516200024a816200012a565b855181526200025b838701620001bc565b838201528152019201916200021f565b519065ffffffffffff821682036200010f57565b519063ffffffff821682036200010f57565b62006921908138038060405193620002aa828662000168565b8439820191610160818403126200010f578051620002c8816200019d565b620002d660208301620001af565b604083015190946001600160401b0382116200010f57620002f9918401620001cc565b926200030860608401620001bc565b926200031760808201620001af565b926200032660a08301620001af565b9260c0830151926200033b60e082016200026b565b926200034b61010083016200027f565b92610140610120840151930151919a99989796959493929190565b6040519062000375826200012a565b60118252565b604051906200038a826200012a565b60018252565b989092966200048c92969a94986200048062000486926200047a620003b462000366565b602081017026b2ba30a43ab6b0b723b7bb32b93737b960791b8152620003d96200037b565b906020820190603160f81b8252620003f18462000db2565b61012052620004008362000ec1565b6101405283519020918260e05251902080610100524660a0526040519060208201927f8b73c3c69bb8fe3d512ecc4cf759cc79239f7b179b0ffacaa9a75d522b39400f8452604083015260608201524660808201523060a082015260a081526200046a816200014c565b5190206080523060c05262000650565b62000ca8565b62000cf5565b62000d79565b3315620004e657620004cb620004d192620004b6620004d796620004b03362000c48565b620008a5565b6001600160a01b0398891661016052620007e3565b62000794565b6200074b565b6101c05216610180526101a052565b604051631e4fbdf760e01b815260006004820152602490fd5b90600182811c9216801562000531575b60208310146200051b57565b634e487b7160e01b600052602260045260246000fd5b91607f16916200050f565b601f811162000549575050565b60009060036000526020600020906020601f850160051c830194106200058c575b601f0160051c01915b8281106200058057505050565b81815560010162000573565b90925082906200056a565b601f8111620005a4575050565b600090600080526020600020906020601f850160051c83019410620005e6575b601f0160051c01915b828110620005da57505050565b818155600101620005cd565b9092508290620005c4565b90601f8211620005ff575050565b60019160009060016000526020600020906020601f850160051c8301941062000645575b601f0160051c01915b8281106200063a5750505050565b81815583016200062c565b909250829062000623565b80519091906001600160401b03811162000146576200067c8162000676600354620004ff565b6200053c565b602080601f8311600114620006c357508190620006b29394600092620006b7575b50508160011b916000199060031b1c19161790565b600355565b0151905038806200069d565b6003600052601f198316949091907fc2575a0e9e593c00f959f8c92f12db2869c3395a3b0502d05e2516446f71f85b926000905b8782106200073257505083600195961062000718575b505050811b01600355565b015160001960f88460031b161c191690553880806200070d565b80600185968294968601518155019501930190620006f7565b601280546001600160a01b039283166001600160a01b0319821681179092559091167fb4aa40c4569b1278aa7da5bab0f345910781d388f8257b0bec17a317e2efb6b5600080a3565b6010547f08f74ea46ef7894f65eabfb5e6e695de773a000b47c529ab559178069b226401604060018060a01b038094169381519084168152846020820152a16001600160a01b03191617601055565b606481116200088457600f5490816200084a57600080516020620068e1833981519152915060005b6200082b6200081962000fad565b62000824846200105c565b90620011b9565b5050604080516001600160d01b039290921682526020820192909252a1565b60001982818101116200087e57600080516020620068e183398151915292600f600052602060002001015460301c6200080b565b62000a9f565b60405163243e544560e01b8152600481019190915260646024820152604490fd5b60085460501c6001600160a01b0316330362000a8757600a5460015b8181111562000a24575050620008d662000b35565b80519060015b828111156200091957505050620008f262000bf1565b7fabfe8157b42cfc40503d794ecb43abbe99d180868288128344cb1c3340635f0a600080a2565b6200092f620009288262000ac5565b8362000b8d565b51906200094782516000526009602052604060002090565b6001620009856200098062000979602087019462000967865161ffff1690565b61ffff16600052602052604060002090565b5460ff1690565b151590565b14620009df5782620009cd620009c0620009d39362000967620009b7620009d998516000526009602052604060002090565b915161ffff1690565b805460ff19166001179055565b62000ba2565b62000ab5565b620008dc565b60405162461bcd60e51b815260206004820152601a60248201527f4475706c69636174657320617265206e6f7420616c6c6f7765640000000000006044820152606490fd5b80620009d362000a7762000a5162000a4a62000a4462000a819662000ac5565b62000aeb565b5062000b11565b62000967602062000a6d83516000526009602052604060002090565b92015161ffff1690565b805460ff19169055565b620008c1565b60405163118cdaa760e01b8152336004820152602490fd5b634e487b7160e01b600052601160045260246000fd5b60001981146200087e5760010190565b6000198101919082116200087e57565b634e487b7160e01b600052603260045260246000fd5b600a5481101562000b0b57600a60005260206000209060011b0190600090565b62000ad5565b9060405162000b20816200012a565b602061ffff6001839580548552015416910152565b600a54600080600a558162000b48575050565b60016001600160ff1b03831683036200087e57600a60005260206000209260011b8301925b83811062000b7b5750505050565b80836002925583838201550162000b6d565b805182101562000b0b5760209160051b010190565b600a546801000000000000000081101562000146576001810180600a5581101562000b0b576020600161ffff92600a6000528260002090821b0184518155019201511661ffff19825416179055565b6040805190818291600a54600a600052602080600020926000915b83831062000c1f57505050505003902090565b8454865260018086015461ffff1687830152889750958201956002909501949092019162000c0c565b60088054600160501b600160f01b03198116605084811b600160501b600160f01b0316919091179092556001600160a01b0392831692911c167f8be0079c531659141344cd1fd0a4f28419497f9722a3daafe3b4186f6b6457e0600080a3565b6008547fc565b045403dc03c2eea82b81a0465edad9e2e7fc4d97e11421c209da93d7a93604065ffffffffffff81519481851686521693846020820152a165ffffffffffff191617600855565b63ffffffff80821691821562000d60577f7e3f7f0708a84de9203036abaa450dccc85ad5ff52f78c170f3edb55cf5e8828604069ffffffff00000000000093600854958251918760301c1682526020820152a160301b169069ffffffff000000000000191617600855565b60405163f1cfbf0560e01b815260006004820152602490fd5b60075460408051918252602082018390527fccb45da8d5717e6c4544694297c4ba5cf151d455c9bb0ed4fc7a38411bc0546191a1600755565b9081516020906020811060001462000dd55750509062000dd290620010b4565b90565b6001600160401b038111620001465760009162000dfe8262000df88554620004ff565b62000597565b602090601f831160011462000e3a5750819083949562000e339492620006b75750508160011b916000199060031b1c19161790565b905560ff90565b60008052601f198316957f290decd9548b62a8d60345a988386fc84ba6bc95484008f6362f93160ef3e563929185905b88821062000ea85750508360019596971062000e8e575b505050811b01905560ff90565b015160001960f88460031b161c1916905538808062000e81565b8060018596829496860151815501950193019062000e6a565b9081516020906020811060001462000ee15750509062000dd290620010b4565b6001600160401b038111620001465760019162000f0a8262000f048554620004ff565b620005f1565b602090601f831160011462000f405750819062000e33939495600092620006b75750508160011b916000199060031b1c19161790565b6001600052601f198316959091907fb10e2d527612073b26eecdfd717e6a320cf44b4afac2b0732d9fcbe2b7fa0cf6926000905b88821062000f95575050838596971062000e8e57505050811b01905560ff90565b80878596829496860151815501950193019062000f74565b610160516040516324776b7d60e21b815290602090829060049082906001600160a01b03165afa6000918162001018575b5062000dd2575065ffffffffffff80431162000ff957431690565b6040516306dfcc6560e41b815260306004820152436024820152604490fd5b9091506020813d60201162001053575b81620010376020938362000168565b810103126200010f576200104b906200026b565b903862000fde565b3d915062001028565b6001600160d01b039081811162001071571690565b604490604051906306dfcc6560e41b825260d060048301526024820152fd5b602081519101519060208110620010a5575090565b6000199060200360031b1b1690565b601f815111620010cf57620010c98162001090565b90511790565b6040519063305a27a960e01b82528160208060048301528251908160248401526000935b82851062001117575050604492506000838284010152601f80199101168101030190fd5b8481018201518686016044015293810193859350620010f3565b600f54906801000000000000000082101562000146576001820180600f5582101562000b0b57600f60005280516020919091015160301b65ffffffffffff191665ffffffffffff91909116176000805160206200690183398151915290910155565b90604051620011a2816200012a565b915465ffffffffffff8116835260301c6020830152565b600f54919291908115620012cd57620011f9620011f3620011da8462000ac5565b600f600052600080516020620069018339815191520190565b62001193565b805165ffffffffffff8381169491168410620012bb57856020936200127995620012386200122d865165ffffffffffff1690565b65ffffffffffff1690565b036200127d575062001252620011da6200126b9362000ac5565b9065ffffffffffff82549181199060301b169116179055565b01516001600160d01b031690565b9190565b9050620012b59150620012a1620012936200018c565b65ffffffffffff9092168252565b6001600160d01b0387168185015262001131565b6200126b565b604051632520601d60e01b8152600490fd5b620012f69150620012e1620012936200018c565b6001600160d01b038416602082015262001131565b6000919056fe60806040526004361015610023575b361561001957600080fd5b610021613160565b005b60003560e01c806301ffc9a71461047357806302a251a31461046e57806306f3f9e61461046957806306fdde0314610464578063143489d01461045f578063150b7a021461045a578063160cbed7146104555780632656227d146104505780632d63f6931461044b5780632fe3e26114610446578063327bcb421461044157806334feb3181461043c5780633932abb1146104375780633e4f49e614610432578063438596321461042d578063452115d61461042857806345e6efa1146104235780634bf5d7e91461041e5780634c24a56414610419578063529dca3214610414578063544ffc9c1461040f57806354fd4d501461040a57806355f0f9c71461040557806356781388146104005780635b8d0e0d146103fb5780635f398a14146103f657806360c4247f146103f1578063660f54c2146103ec5780636ff499c3146103e7578063715018a6146103e257806379051887146103dd5780637a7d4937146103d85780637b3c71d3146103d35780637d5e81e2146103ce5780637ecebe00146103c9578063835f6ac4146103c457806384b0196e146103bf57806388ba16ab146103ba5780638da5cb5b146103b55780638ff262e3146103b057806391ddadf4146103ab57806397c3d334146103a65780639a802a6d146103a15780639a8a05921461039c578063a7713a7014610397578063a890c91014610392578063a9a952941461038d578063ab58fb8e14610388578063b58131b014610383578063b626afa21461037e578063bc197c8114610379578063be43a6f514610374578063c01f9e371461036f578063c28bc2fa1461036a578063c59057e414610365578063d2a78a9114610360578063d33219b41461035b578063da25b72514610356578063dd4e2ba514610351578063deaaa7cc1461034c578063e540d01d14610347578063eb9019d414610342578063ece40cc11461033d578063f16ca84114610338578063f23a6e6114610333578063f2fde38b1461032e578063f8ce560a14610329578063fbcd1c60146103245763fc0c546a0361000e576125fb565b612548565b61248d565b6123fe565b612393565b612331565b6122dc565b61223c565b612198565b61216f565b612111565b6120cc565b6120a3565b611fe4565b611fc8565b611f5c565b611f3e565b611f0d565b611e6d565b611de3565b611dc5565b611d8e565b611d72565b611cfe565b611cd2565b611c93565b611bac565b611b90565b611b65565b611a74565b611a47565b611a16565b61194c565b6118e7565b6118aa565b611817565b6117c2565b611787565b611715565b6116b3565b61168c565b611637565b6115c3565b611554565b6114cc565b611484565b6113af565b61136d565b611275565b61113d565b6110a8565b611078565b61104f565b610fa8565b610f6d565b610f40565b610eed565b610e1e565b610de0565b610d38565b610d01565b610baa565b610b04565b6108a8565b61070a565b61063c565b610518565b6104f1565b346104e15760203660031901126104e15760043563ffffffff60e01b81168091036104e1576020906332a2ad4360e11b81149081156104d0575b81156104bf575b506040519015158152f35b6301ffc9a760e01b149050386104b4565b630271189760e51b811491506104ad565b600080fd5b60009103126104e157565b346104e15760003660031901126104e157602063ffffffff60085460301c16604051908152f35b346104e15760203660031901126104e157600435610534613174565b606481116105c1576001600160d01b03908161054e614170565b16610557612aea565b928083116105a1577f0553476bf02ef2726e8ce5ced78d63e26e602e4a2257b1f559418e24b46339979361058d91841690615021565b5050604080519182526020820192909252a1005b6040516306dfcc6560e41b815260d0600482015260248101849052604490fd5b6044906040519063243e544560e01b8252600482015260646024820152fd5b60005b8381106105f35750506000910152565b81810151838201526020016105e3565b9060209161061c815180928185528580860191016105e0565b601f01601f1916010190565b906020610639928181520190610603565b90565b346104e1576000806003193601126106fb576040518160035461065e81612640565b908184526020926001916001811690816000146106d9575060011461069e575b61069a8561068e818903826107ea565b60405191829182610628565b0390f35b929450600383528483205b8284106106c6575050508161069a9361068e92820101933861067e565b80548585018701529285019281016106a9565b60ff191686860152505050151560051b820101915061068e8161069a3861067e565b80fd5b6001600160a01b031690565b346104e15760203660031901126104e1576004356000526004602052602060018060a01b0360406000205416604051908152f35b6001600160a01b038116036104e157565b634e487b7160e01b600052604160045260246000fd5b604081019081106001600160401b0382111761078057604052565b61074f565b6001600160401b03811161078057604052565b602081019081106001600160401b0382111761078057604052565b60c081019081106001600160401b0382111761078057604052565b61010081019081106001600160401b0382111761078057604052565b601f909101601f19168101906001600160401b0382119082101761078057604052565b60405190608082016001600160401b0381118382101761078057604052565b6040519061083982610765565b565b6001600160401b03811161078057601f01601f191660200190565b9291926108628261083b565b9161087060405193846107ea565b8294818452818301116104e1578281602093846000960137010152565b9080601f830112156104e15781602061063993359101610856565b346104e15760803660031901126104e1576108c460043561073e565b6108cf60243561073e565b6064356001600160401b0381116104e1576108ee90369060040161088d565b506010546001600160a01b0316300361091357604051630a85bd0160e11b8152602090f35b604051637485328f60e11b8152600490fd5b6001600160401b0381116107805760051b60200190565b929161094782610925565b9161095560405193846107ea565b829481845260208094019160051b81019283116104e157905b82821061097b5750505050565b83809183356109898161073e565b81520191019061096e565b9080601f830112156104e1578160206106399335910161093c565b92916109ba82610925565b916109c860405193846107ea565b829481845260208094019160051b81019283116104e157905b8282106109ee5750505050565b813581529083019083016109e1565b9080601f830112156104e157816020610639933591016109af565b92919092610a2584610925565b91610a3360405193846107ea565b829480845260208094019060051b8301928284116104e15780915b848310610a5d57505050505050565b82356001600160401b0381116104e1578691610a7c868493860161088d565b815201920191610a4e565b9080601f830112156104e15781602061063993359101610a18565b60806003198201126104e1576001600160401b03916004358381116104e15782610ace91600401610994565b926024358181116104e15783610ae6916004016109fd565b926044359182116104e157610afd91600401610a87565b9060643590565b346104e157610b1236610aa2565b90610b29610b24838386889798612dd5565b613634565b6008811015610ba557600403610b565761069a93610b4693613202565b6040519081529081906020820190565b60405162461bcd60e51b815260206004820152602160248201527f476f7665726e6f723a2070726f706f73616c206e6f74207375636365737366756044820152601b60fa1b6064820152608490fd5b610f13565b610bb336610aa2565b610bc1818385879597612dd5565b92610bcb8461344f565b50610beb610bd885610d8d565b805460ff60f01b1916600160f01b179055565b6010546001600160a01b03939084163003610c96575b94610c11929161069a96866134f9565b610c1f3091601054166106fe565b141580610c77575b610c68575b6040518181527f712ae1383f79ac853f8d882153778e0260ef8f03b504e2866e0593e04d2b291f90602090a16040519081529081906020820190565b610c726000600555565b610c2c565b506005546001600160801b03811660809190911c1415610c27565b1590565b9290939160005b8451811015610cf75760019030610ccc610cc7610cba848a61267a565b516001600160a01b031690565b6106fe565b14610cd8575b01610c9d565b610cf2610ce5828a61267a565b51602081519101206134a1565b610cd2565b5091939092610c01565b346104e15760203660031901126104e1576004356000526004602052602065ffffffffffff60406000205460a01c16604051908152f35b346104e15760003660031901126104e157602060405160008051602061556f8339815191528152f35b61ffff8116036104e157565b60609060031901126104e157600435906024359060443561063981610d61565b6000526004602052604060002090565b600052600d602052604060002090565b600052600c602052604060002090565b6000526011602052604060002090565b9061ffff16600052602052604060002090565b346104e157602060ff610e12610df536610d6d565b91600052600b855260406000209060005284526040600020610dcd565b54166040519015158152f35b346104e15760203660031901126104e157600435610e3b8161073e565b610e436135b2565b6001600160a01b03908116908115610e9157601280546001600160a01b031981168417909155167fb4aa40c4569b1278aa7da5bab0f345910781d388f8257b0bec17a317e2efb6b5600080a3005b60405162461bcd60e51b815260206004820152602e60248201527f4d6167697374726174653a206e6577206d61676973747261746520697320746860448201526d65207a65726f206164647265737360901b6064820152608490fd5b346104e15760003660031901126104e157602065ffffffffffff60085416604051908152f35b634e487b7160e01b600052602160045260246000fd5b60081115610ba557565b906008821015610ba55752565b346104e15760203660031901126104e1576020610f5e600435613634565b610f6b6040518092610f33565bf35b346104e15760403660031901126104e157602060ff610e12602435610f918161073e565b600435600052600e8452600360406000200161268e565b346104e157610fb636610aa2565b90610fc5828285879697612dd5565b600052600c602052604060002054610feb57602093610fe393613734565b604051908152f35b60405162461bcd60e51b815260206004820152603660248201527f506c65617365207573652063726f7373436861696e43616e63656c20666f7220604482015275383937b837b9b0b639903bb4ba341039b837b5b2b99760511b6064820152608490fd5b346104e15760003660031901126104e1576012546040516001600160a01b039091168152602090f35b346104e15760003660031901126104e15761069a6110946126fd565b604051918291602083526020830190610603565b346104e15760403660031901126104e157602060ff610e126024356110cc81610d61565b600435600052600984526040600020610dcd565b9181601f840112156104e1578235916001600160401b0383116104e157602083818601950101116104e157565b9181601f840112156104e1578235916001600160401b0383116104e1576020808501948460051b0101116104e157565b60a03660031901126104e15760046001600160401b0381358181116104e15761116990369084016110e0565b916024359081116104e157611181903690850161110d565b50506064359261119084610d61565b6001600160a01b039260843592907f000000000000000000000000000000000000000000000000000000000000000085163303611264576111e56111de856000526013602052604060002090565b5460ff1690565b61125357906111f6918101906127dc565b9591505030911603611244575061121a611227916000526013602052604060002090565b805460ff19166001179055565b61ffff6020820151161561123757005b61002191604435906138a3565b60405163763d29ab60e01b8152fd5b604051637b04260960e01b81528390fd5b6040516381316de160e01b81528390fd5b346104e1576020806003193601126104e15760043580600052600e602052604060002080549060019360018201549360028093015492600a54916001935b8361ffff861611156112d85760408051888152602081018a9052908101879052606090f35b909193956113598994968661135061134761135f9561133d896113378f61132d61131d6113176113118f9461130c9061285c565b6115f7565b50612870565b94610d9d565b8451600052602052604060002090565b92015161ffff1690565b90610dcd565b9e8f0154906128a0565b9b8d54906128a0565b9b0154906128a0565b96612844565b9391909796959492976112b3565b346104e15760003660031901126104e15761069a60405161138d81610765565b60018152603160f81b6020820152604051918291602083526020830190610603565b60203660031901126104e1576004356113c781612cd9565b4210611462576113e46111de826000526014602052604060002090565b611450578061140361121a610021936000526014602052604060002090565b61140c81610dad565b5415611442575b604080516001602082015290810182905261143b81606081015b03601f1981018352826107ea565b3391613b6f565b61144b816139a3565b611413565b604051630e48ab7960e21b8152600490fd5b60405163e9d8ca6f60e01b8152600490fd5b6024359060ff821682036104e157565b346104e15760403660031901126104e1576020610fe36114a2611474565b6040516114ae81610798565b60008152604051916114bf83610798565b6000835233600435613f8b565b346104e15760c03660031901126104e1576114e5611474565b604435906114f28261073e565b6001600160401b03906064358281116104e1576115139036906004016110e0565b6084358481116104e15761152b90369060040161088d565b9160a4359485116104e15761069a9561154b610b4696369060040161088d565b946004356128ad565b346104e15760803660031901126104e15761156d611474565b6001600160401b03906044358281116104e15761158e9036906004016110e0565b90916064359384116104e1576115b9610fe3936115b1602096369060040161088d565b933691610856565b9033600435613f8b565b346104e15760203660031901126104e1576020610fe3600435612993565b634e487b7160e01b600052603260045260246000fd5b600a5481101561161657600a60005260206000209060011b0190600090565b6115e1565b80548210156116165760005260206000209060011b0190600090565b346104e15760403660031901126104e157602435600435600052600c60205260406000209081548110156104e15761166e9161161b565b5080546001909101546040805192835261ffff909116602083015290f35b346104e15760203660031901126104e157600435600a548110156104e15761166e906115f7565b346104e1576000806003193601126106fb576116cd6140cd565b60088054600160501b600160f01b03198116909155819060501c6001600160a01b031660008051602061554f8339815191528280a380f35b65ffffffffffff8116036104e157565b346104e15760203660031901126104e15760043561173281611705565b61173a613174565b6008547fc565b045403dc03c2eea82b81a0465edad9e2e7fc4d97e11421c209da93d7a93604065ffffffffffff81519481851686521693846020820152a165ffffffffffff191617600855005b346104e15760003660031901126104e15760206040517f00000000000000000000000000000000000000000000000000000000000000008152f35b346104e15760603660031901126104e1576117db611474565b6044356001600160401b0381116104e15760209161180a611803610fe39336906004016110e0565b3691610856565b604051916114bf83610798565b346104e15760803660031901126104e1576001600160401b036004358181116104e157611848903690600401610994565b506024358181116104e1576118619036906004016109fd565b506044358181116104e15761187a903690600401610a87565b506064359081116104e157366023820112156104e1576118a4903690602481600401359101610856565b50612a97565b346104e15760203660031901126104e1576004356118c78161073e565b60018060a01b031660005260026020526020604060002054604051908152f35b346104e15760203660031901126104e1576004356000526014602052602060ff604060002054166040519015158152f35b90815180825260208080930193019160005b828110611938575050505090565b83518552938101939281019260010161192a565b346104e15760003660031901126104e1576119e76119897f0000000000000000000000000000000000000000000000000000000000000000614a8c565b61069a6119b57f0000000000000000000000000000000000000000000000000000000000000000614b66565b6119f5604051916119c583610798565b60008352604051958695600f60f81b875260e0602088015260e0870190610603565b908582036040870152610603565b90466060850152306080850152600060a085015283820360c0850152611918565b346104e15760203660031901126104e1576004356000526013602052602060ff604060002054166040519015158152f35b346104e15760003660031901126104e15760085460405160509190911c6001600160a01b03168152602090f35b346104e15760803660031901126104e157600435611a90611474565b9060443591611a9e8361073e565b6064356001600160401b0381116104e157610c92611ac3611b2592369060040161088d565b611b1f611acf87613e18565b604051602081019160008051602061552f833981519152835288604083015260ff8816606083015260018060a01b038a16608083015260a082015260a08152611b17816107b3565b519020613e3b565b86613e61565b611b405790610b469161069a93611b3a6126b1565b92613dfc565b6040516394ab6c0760e01b81526001600160a01b0384166004820152602490fd5b0390fd5b346104e15760003660031901126104e1576020611b80612aea565b65ffffffffffff60405191168152f35b346104e15760003660031901126104e157602060405160648152f35b346104e15760603660031901126104e157600435611bc98161073e565b6044356001600160401b0381116104e157604491611bed602092369060040161088d565b50604051630748d63560e31b81526001600160a01b039182166004820152602480359082015292839182907f0000000000000000000000000000000000000000000000000000000000000000165afa8015611c8e5761069a91600091611c5f575b506040519081529081906020820190565b611c81915060203d602011611c87575b611c7981836107ea565b8101906140fc565b38611c4e565b503d611c6f565b6126a5565b346104e15760003660031901126104e157602060405161ffff7f0000000000000000000000000000000000000000000000000000000000000000168152f35b346104e15760003660031901126104e15760206001600160d01b03611cf5614170565b16604051908152f35b346104e15760203660031901126104e157600435611d1b8161073e565b611d23613174565b6010547f08f74ea46ef7894f65eabfb5e6e695de773a000b47c529ab559178069b226401604060018060a01b038094169381519084168152846020820152a16001600160a01b03191617601055005b346104e15760203660031901126104e157602060405160018152f35b346104e15760203660031901126104e1576004356000526004602052602065ffffffffffff60016040600020015416604051908152f35b346104e15760003660031901126104e1576020600754604051908152f35b60803660031901126104e1576001600160401b036004358181116104e157611e0f90369060040161110d565b6024929192358281116104e157611e2a90369060040161110d565b6044949194358481116104e157611e4590369060040161110d565b916064359586116104e15761069a96611e65610b469736906004016110e0565b969095612b7e565b346104e15760a03660031901126104e157611e8960043561073e565b611e9460243561073e565b6001600160401b036044358181116104e157611eb49036906004016109fd565b506064358181116104e157611ecd9036906004016109fd565b506084359081116104e157611ee690369060040161088d565b5061069a611ef2612cbc565b6040516001600160e01b031990911681529081906020820190565b346104e15760203660031901126104e1576004356000526015602052602060ff604060002054166040519015158152f35b346104e15760203660031901126104e1576020610fe3600435612cd9565b60603660031901126104e157600435611f748161073e565b604435906001600160401b0382116104e15760008091611f9b6100219436906004016110e0565b90611fa4613174565b81604051928392833781018481520391602435905af1611fc2612d0b565b9061431a565b346104e1576020610fe3611fdb36610aa2565b92919091612dd5565b60803660031901126104e1576001600160401b036004358181116104e15761201090369060040161110d565b91906024358281116104e15761202a90369060040161110d565b90936044359384116104e15761207261206661069a9661205e61205461207898369060040161110d565b979095369161093c565b9436916109af565b91606435943691610a18565b91613734565b610b4660405161209b8161142d8560208301919060206040840193600281520152565b309083613ce2565b346104e15760003660031901126104e1576010546040516001600160a01b039091168152602090f35b346104e15760003660031901126104e1576040517f00000000000000000000000000000000000000000000000000000000000000006001600160a01b03168152602090f35b346104e15760003660031901126104e15761069a60405161213181610765565b602081527f737570706f72743d627261766f2671756f72756d3d666f722c6162737461696e6020820152604051918291602083526020830190610603565b346104e15760003660031901126104e157602060405160008051602061552f8339815191528152f35b346104e15760203660031901126104e15763ffffffff600435818116918282036104e1576121c4613174565b82156122235760407f7e3f7f0708a84de9203036abaa450dccc85ad5ff52f78c170f3edb55cf5e882891600854948251918660301c1682526020820152a163ffffffff60301b1990911660309190911b63ffffffff60301b1617600855005b60405163f1cfbf0560e01b815260006004820152602490fd5b346104e15760403660031901126104e1576044602060043561225d8161073e565b600060405161226b81610798565b52604051630748d63560e31b81526001600160a01b039182166004820152602480359082015292839182907f0000000000000000000000000000000000000000000000000000000000000000165afa8015611c8e5761069a91600091611c5f57506040519081529081906020820190565b346104e15760203660031901126104e1576004356122f8613174565b60075460408051918252602082018390527fccb45da8d5717e6c4544694297c4ba5cf151d455c9bb0ed4fc7a38411bc0546191a1600755005b346104e157608061236361234436610d6d565b91600052600d6020526040600020906000526020526040600020610dcd565b80549060018101549060ff6003600283015492015416916040519384526020840152604083015215156060820152f35b346104e15760a03660031901126104e1576123af60043561073e565b6123ba60243561073e565b6084356001600160401b0381116104e1576123d990369060040161088d565b506010546001600160a01b031630036109135760405163f23a6e6160e01b8152602090f35b346104e15760203660031901126104e15760043561241b8161073e565b6124236140cd565b6001600160a01b038181169182156124745760088054600160501b600160f01b03198116605093841b600160501b600160f01b031617909155901c1660008051602061554f833981519152600080a3005b604051631e4fbdf760e01b815260006004820152602490fd5b346104e15760203660031901126104e157604051632394e7a360e21b8152600480359082018190526020826024817f00000000000000000000000000000000000000000000000000000000000000006001600160a01b03165afa918215611c8e5761069a9260649261251192600092612523575b5061250b90612993565b90613046565b04604051918291829190602083019252565b61250b9192506125419060203d602011611c8757611c7981836107ea565b9190612501565b346104e1576020806003193601126104e157600435906001600160401b0382116104e157366023830112156104e15781600401359161258683610925565b9160409361259760405194856107ea565b8084526024602085019160061b840101923684116104e157602401905b8382106125c45761002185612ec6565b85823603126104e15782869182516125db81610765565b84358152828501356125ec81610d61565b838201528152019101906125b4565b346104e15760003660031901126104e1576040517f00000000000000000000000000000000000000000000000000000000000000006001600160a01b03168152602090f35b90600182811c92168015612670575b602083101461265a57565b634e487b7160e01b600052602260045260246000fd5b91607f169161264f565b80518210156116165760209160051b010190565b9060018060a01b0316600052602052604060002090565b6040513d6000823e3d90fd5b604051906126be82610798565b60008252565b604051906126d182610765565b601d82527f6d6f64653d626c6f636b6e756d6265722666726f6d3d64656661756c740000006020830152565b604051634bf5d7e960e01b8152600080826004817f00000000000000000000000000000000000000000000000000000000000000006001600160a01b03165afa90918282612755575b505061063957506106396126c4565b909192503d8082843e61276881846107ea565b8201916020818403126127d4578051906001600160401b0382116127d8570182601f820112156127d45780519161279e8361083b565b936127ac60405195866107ea565b838552602084840101116106fb5750906127cc91602080850191016105e0565b903880612746565b5080fd5b8280fd5b906080828203126104e15781356127f28161073e565b92602083013561280181610d61565b9260408101356128108161073e565b9260608201356001600160401b0381116104e157610639920161088d565b634e487b7160e01b600052601160045260246000fd5b61ffff8091169081146128575760010190565b61282e565b61ffff908116600019019190821161285757565b9060405161287d81610765565b602061ffff6001839580548552015416910152565b906001820180921161285757565b9190820180921161285757565b939092919695610c92612939916129338a6128c781613e18565b6128d236888a610856565b602081519101208b5160208d01209060405192602084019460008051602061556f83398151915286528d604086015260ff8d16606086015260018060a01b0316608085015260a084015260c083015260e082015260e08152611b17816107ce565b8a613e61565b6129545761063995969161294e913691610856565b92613f8b565b6040516394ab6c0760e01b81526001600160a01b0388166004820152602490fd5b60001981019190821161285757565b60271981019190821161285757565b600f5460001991908281018181116128575781111561161657600092600f845281602085200101549165ffffffffffff92818482161115612a8c57506129d89061409b565b83908260058111612a37575b506129ef9350614a24565b80612a0257505b6001600160d01b031690565b612a329150612a13612a2b91612975565b600f60005260008051602061558f8339815191520190565b5460301c90565b6129f6565b9092612a42826148e4565b820391821161285757600f865260008051602061558f8339815191528201546129ef959081169085161015612a7a5750915b386129e4565b929150612a8690612892565b90612a74565b935050505060301c90565b60405162461bcd60e51b815260206004820152602560248201527f506c65617365207573652063726f7373436861696e50726f706f736520696e736044820152643a32b0b21760d91b6064820152608490fd5b6040516324776b7d60e21b81526020816004817f00000000000000000000000000000000000000000000000000000000000000006001600160a01b03165afa60009181612b41575b5061063957506106394361409b565b9091506020813d602011612b76575b81612b5d602093836107ea565b810103126104e15751612b6f81611705565b9038612b32565b3d9150612b50565b612bb492612ba4612bac92612bbc97949b9a989b999699612b9d6135b2565b369161093c565b9736916109af565b973691610a18565b923691610856565b90612bc78233614c1c565b15612ca45765ffffffffffff60001981612bdf612aea565b16019080821161285757612bf4911633612e39565b9460075495868110612c7d5750612c0e9495503393614dee565b612c178161429e565b610639612c43612c38612c2984610d8d565b5460a01c65ffffffffffff1690565b65ffffffffffff1690565b61209b612c4f84612cd9565b6040805160006020820152908101869052426060820152608081019390935260a08301528160c0810161142d565b604051636121770b60e11b8152336004820152602481019190915260448101879052606490fd5b60405163d9b3955760e01b8152336004820152602490fd5b6010546001600160a01b031630036109135763bc197c8160e01b90565b600052600460205260406000205465ffffffffffff908163ffffffff8260d01c169160a01c1601818111612857571690565b3d15612d36573d90612d1c8261083b565b91612d2a60405193846107ea565b82523d6000602084013e565b606090565b90815180825260208080930193019160005b828110612d5b575050505090565b83516001600160a01b031685529381019392810192600101612d4d565b90808251908181526020809101926020808460051b8301019501936000915b848310612da75750505050505090565b9091929394958480612dc5600193601f198682030187528a51610603565b9801930193019194939290612d97565b9290612e2192612e3392604051948592612e11612dfe602086019960808b5260a0870190612d3b565b601f199687878303016040880152611918565b9085858303016060860152612d78565b906080830152039081018352826107ea565b51902090565b6020906000604051612e4a81610798565b52604051630748d63560e31b81526001600160a01b0391821660048201526024810193909352829060449082907f0000000000000000000000000000000000000000000000000000000000000000165afa908115611c8e57600091612ead575090565b610639915060203d602011611c8757611c7981836107ea565b612ece6140cd565b600a5460015b81811115612ff5575050612ee6613059565b80519060015b82811115612f2657505050612eff61310b565b7fabfe8157b42cfc40503d794ecb43abbe99d180868288128344cb1c3340635f0a600080a2565b612f38612f3282612975565b8361267a565b5190612f4f82516000526009602052604060002090565b6001612f70612f6b6111de6020870194611337865161ffff1690565b151590565b14612fb35782612fa461121a612fa993611337612f9b612fae98516000526009602052604060002090565b915161ffff1690565b6130ad565b613037565b612eec565b60405162461bcd60e51b815260206004820152601a602482015279111d5c1b1a58d85d195cc8185c99481b9bdd08185b1b1bddd95960321b6044820152606490fd5b80612fa961302861300e61131161130c61303296612975565b611337602061132d83516000526009602052604060002090565b805460ff19169055565b612ed4565b60001981146128575760010190565b8181029291811591840414171561285757565b600a54600080600a558161306b575050565b60016001600160ff1b038316830361285757600a60005260206000209260011b8301925b83811061309c5750505050565b80836002925583838201550161308f565b600a54600160401b811015610780578060016130cc9201600a556115f7565b6130f557600161ffff6020846108399551855501511691019061ffff1661ffff19825416179055565b634e487b7160e01b600052600060045260246000fd5b6040805190818291600a54600a600052602080600020926000915b83831061313857505050505003902090565b8454865260018086015461ffff16878301528897509582019560029095019490920191613126565b6010546001600160a01b0316300361091357565b6010546001600160a01b03163381036131d157300361318f57565b6131983661083b565b6131a560405191826107ea565b368152602081019036600083376000602036830101525190205b806131c86143cb565b036131bf575b50565b6040516347096e4760e01b8152336004820152602490fd5b9065ffffffffffff1665ffffffffffff19825416179055565b9290919261321282858584612dd5565b9361321c856133fd565b5061322b610cc76010546106fe565b936040519363793d064960e11b855260209081866004818a5afa958615611c8e576000966133be575b5060405163b1c5f42760e01b81523060601b6001600160601b031916919091189682908290818061328b8c8a8a8d60048601614421565b03915afa918215611c8e576000926133a1575b50506132a987610dbd565b556132b8610cc76010546106fe565b90813b156104e157600080946132e587604051998a97889687956308f2a0bb60e41b875260048701615112565b03925af1908115611c8e576133099261330492613388575b50426128a0565b61409b565b65ffffffffffff81161561337657613370816133517f9a2e42fd6722813d69113e7d0079d3d940171428df7373df9c7f7617cfda289293600161334b87610d8d565b016131e9565b6040805185815265ffffffffffff909216602083015290918291820190565b0390a190565b604051634844252360e11b8152600490fd5b8061339561339b92610785565b806104e6565b386132fd565b6133b79250803d10611c8757611c7981836107ea565b388061329e565b6133d6919650823d8411611c8757611c7981836107ea565b9438613254565b6040906133f96000939594606083019683526020830190610f33565b0152565b61340681613634565b906008821015610ba5576010600160ff84161b1615613423575090565b613446606492604051926331b75e4d60e01b845260048401526024830190610f33565b60106044820152fd5b61345881613634565b906008821015610ba5576030600160ff84161b1615613475575090565b613498606492604051926331b75e4d60e01b845260048401526024830190610f33565b60306044820152fd5b6005548060801c91600183019260018060801b03809316838516146134e75760005260066020526040600020556005549160018060801b03199060801b16911617600555565b604051638acb5f2760e01b8152600490fd5b9193929092613507836139a3565b600094838652601560205260ff604087205416156135a0576010546001600160a01b031691823b1561359c5760405163e38335e560e01b81529587948794938593849361356a933060601b6001600160601b031916909218929060048601614421565b039134905af1918215611c8e5761358692613589575b50610dbd565b55565b8061339561359692610785565b38613580565b8680fd5b604051631f518a7d60e01b8152600490fd5b6012546001600160a01b031633036135c657565b60405162461bcd60e51b815260206004820152602860248201527f4d6167697374726174653a2063616c6c6572206973206e6f7420746865206d61604482015267676973747261746560c01b6064820152608490fd5b908160209103126104e1575180151581036104e15790565b61363d81614467565b9061364782610f29565b60058203613730576136599150610dbd565b54613668610cc76010546106fe565b604051632c258a9f60e11b81526004810183905260209291908381602481855afa908115611c8e57600091613713575b50156136a657505050600590565b604051632ab0f52960e01b815260048101929092528290829060249082905afa918215611c8e576000926136e6575b5050156136e157600790565b600290565b6137059250803d1061370c575b6136fd81836107ea565b81019061361c565b38806136d5565b503d6136f3565b61372a9150843d861161370c576136fd81836107ea565b38613698565b5090565b92919061374383838387612dd5565b61374c81613634565b6008811015610ba55760018060ff83161b16156137a357506000908152600460205260409020546001600160a01b0316330361378b57610639936152d3565b60405163233d98e360e01b8152336004820152602490fd5b906137c7606492604051926331b75e4d60e01b845260048401526024830190610f33565b60016044820152fd5b908160a09103126104e15780516137e681610d61565b916020820151916040810151916080606083015192015190565b1561380757565b60405162461bcd60e51b815260206004820152603760248201527f4f6e6c79206d657373616765732066726f6d207468652073706f6b6520636f6e6044820152767472616374732063616e2062652072656365697665642160481b6064820152608490fd5b60036060610839938051845560208101516001850155604081015160028501550151151591019060ff801983541691151516179055565b916138b790602080825183010191016137d0565b9192949350946138f3610c926111de836138ee886138df8b600052600b602052604060002090565b90600052602052604060002090565b610dcd565b6139915761391e6139196111de836138ee886138df8b600052600b602052604060002090565b613800565b61393c6003613934836138ee886138df8b610d9d565b015460ff1690565b1561395357604051639f69a0f560e01b8152600490fd5b6138ee61398c94613987936108399861396a61080d565b96875260208701526040860152600160608601526138df87610d9d565b61386c565b6139a3565b604051630aa3566560e11b8152600490fd5b600160009180600052602092600c6020526040806000205491845b61ffff84818816111580613a7b575b15613a4b5790856139e692826139ec575b505095612844565b946139be565b60ff925081613a4191613a00600394610d9d565b613a1c8c613a16613a1086610dad565b9161285c565b9061161b565b505488528c526001613a378c613a16613a108c8c2096610dad565b5001541690610dcd565b01541685386139de565b5094505050506108399250613a6a906000526015602052604060002090565b9060ff801983541691151516179055565b50816139cd565b90610639949361ffff60809460018060a01b0380941685521660208401521660408201528160608201520190610603565b908160209103126104e157516001600160401b03811681036104e15790565b93959490613b0460c09461ffff809316875260018060a01b03809516602088015260e0604088015260e0870190610603565b96600060608701526207a12060808701521660a085015216910152565b94613b5460c0959897939461ffff809416885260018060a01b03809616602089015260e0604089015260e0880190610603565b9760608701526207a12060808701521660a085015216910152565b9190613b7a83610dad565b5491613ba57f0000000000000000000000000000000000000000000000000000000000000000614548565b7f00000000000000000000000000000000000000000000000000000000000000006001600160a01b03166001805b8661ffff82161115613be9575050505050505050565b8790868686613c33610cc7613c2c613c23613c1d8a613c13613c0a8c610dad565b613a168c61285c565b50015461ffff1690565b98610dad565b613a168861285c565b50546106fe565b604090815190613c5d82613c4f60209889988c868b8601613a82565b03601f1981018452836107ea565b613c93613c6a858a6145e3565b93613c766012546106fe565b90516312d729bd60e21b8152998a96879586958360048801613b21565b0391895af1928315611c8e57613caf93613cb4575b5050612844565b613bd3565b81613cd392903d10613cdb575b613ccb81836107ea565b810190613ab3565b503880613ca8565b503d613cc1565b9190613ced83610dad565b5491613d187f0000000000000000000000000000000000000000000000000000000000000000614548565b507f00000000000000000000000000000000000000000000000000000000000000006001600160a01b0316936001805b8561ffff82161115613d5d5750505050505050565b613d7682613c13613d6d86610dad565b613a168561285c565b90613d89610cc7613c2c613d6d87610dad565b60409283519060209282613da78161142d8d8d87878b809b01613a82565b613db083614548565b91613ddc613dbf6012546106fe565b98516312d729bd60e21b8152988995869485948260048701613ad2565b03918d5af1928315611c8e57613df793613cb4575050612844565b613d48565b91610639939160405193613e0f85610798565b60008552613f8b565b6001600160a01b0316600090815260026020526040902080546001810190915590565b604290613e46614650565b906040519161190160f01b8352600283015260228201522090565b613e6b8383614764565b506004819592951015610ba557159384613f15575b508315613e8e575b50505090565b6000929350908291604051613ec78161142d6020820194630b135d3f60e11b998a87526024840152604060448401526064830190610603565b51915afa90613ed4612d0b565b82613f07575b82613eea575b5050388080613e88565b613eff919250602080825183010191016140fc565b143880613ee0565b915060208251101591613eda565b6001600160a01b03838116911614935038613e80565b93909260ff613f579361063997958752166020860152604085015260a0606085015260a0840190610603565b916080818403910152610603565b909260ff6080936106399695845216602083015260408201528160608201520190610603565b929190613f9784613634565b6008811015610ba5576002600160ff83161b161561406d5750836000526004602052613fdc613fd6612c3860406000205460a01c65ffffffffffff1690565b8261410b565b94613fe9868484886147fc565b8051614031575061402b7fb8e138887d0aa13bab447e82de9d5c1777041ecd21ca36ba824ff1e6c07ddda4938660405194859460018060a01b03169785613f65565b0390a290565b61402b907fe2babfbac5889a709b63bb7f598b324e08bc5a4fb9ec647fb3cbc9ec07eb8712948760405195869560018060a01b03169886613f2b565b6040516331b75e4d60e01b815260048101869052606491614092906024830190610f33565b60026044820152fd5b65ffffffffffff908181116140ae571690565b604490604051906306dfcc6560e41b8252603060048301526024820152fd5b60085460501c6001600160a01b031633036140e457565b60405163118cdaa760e01b8152336004820152602490fd5b908160209103126104e1575190565b604051630748d63560e31b81526001600160a01b0391821660048201526024810192909252602090829060449082907f0000000000000000000000000000000000000000000000000000000000000000165afa908115611c8e57600091612ead575090565b600f548061417e5750600090565b60001990808281011161285757600f6000520160008051602061558f833981519152015460301c90565b600a81146131ce57600a5490600160401b821161078057805482825580831061424a575b50600090815260208120907fc65a7bb8d6351c1cf70c95a316cc6a92839c986682d98bc35f958f4883f9d2a85b8382106142065750505050565b806001918403614221575b60028091019301910190916141f9565b805484556142458261ffff81840154169086019061ffff1661ffff19825416179055565b614211565b60016001600160ff1b0382811683036128575784168403612857576000908360005260206000209260011b8301928560011b015b83811061428d575050506141cc565b80836002925583838201550161427e565b600a546001805b828111156142c1575050506142bc61083991610dad565b6141a8565b600019810190808211612857576143066142e0611311614315946115f7565b61ffff6000888152602090600b8252604090818120855182528352209201511690610dcd565b805460ff191684179055613037565b6142a5565b909190610839575080511561433157805190602001fd5b604051630a12f52160e11b8152600490fd5b811561434d570490565b634e487b7160e01b600052601260045260246000fd5b604051632394e7a360e21b8152600481018290526020816024817f00000000000000000000000000000000000000000000000000000000000000006001600160a01b03165afa8015611c8e576064926143c792600092612523575061250b90612993565b0490565b6005546001600160801b03808216929160801c831461440f578260005260066020526001604060002093600085549555011660018060801b03196005541617600555565b6040516375e52f4f60e01b8152600490fd5b94939261444d60809361443f61445b9460a08a5260a08a0190612d3b565b9088820360208a0152611918565b908682036040880152612d78565b93600060608201520152565b61447081610d8d565b5460ff8160f01c166145415760f81c61453b57614492612c38612c2983610d8d565b8015614522576144a3612c38612aea565b8091101561451b576144b482612cd9565b106144bf5750600190565b6144cb610c9282615160565b8015614509575b156144dd5750600390565b612c3860016144ee6144fb93610d8d565b015465ffffffffffff1690565b61450457600490565b600590565b50614516610c9282615222565b6144d2565b5050600090565b604051636ad0607560e01b815260048101839052602490fd5b50600290565b5050600790565b6040805163c23ee3c360e01b815261ffff929092166004830152600060248301526207a1206044830152816064817f00000000000000000000000000000000000000000000000000000000000000006001600160a01b03165afa908115611c8e576000916145b4575090565b90506040813d6040116145db575b816145cf604093836107ea565b810103126104e1575190565b3d91506145c2565b6040805163c23ee3c360e01b815261ffff909216600483015260248201929092526207a120604482015290816064817f00000000000000000000000000000000000000000000000000000000000000006001600160a01b03165afa908115611c8e576000916145b4575090565b307f00000000000000000000000000000000000000000000000000000000000000006001600160a01b0316148061473b575b156146ab577f000000000000000000000000000000000000000000000000000000000000000090565b60405160208101907f8b73c3c69bb8fe3d512ecc4cf759cc79239f7b179b0ffacaa9a75d522b39400f82527f000000000000000000000000000000000000000000000000000000000000000060408201527f000000000000000000000000000000000000000000000000000000000000000060608201524660808201523060a082015260a08152612e33816107b3565b507f00000000000000000000000000000000000000000000000000000000000000004614614682565b81519190604183036147955761478e92506020820151906060604084015193015160001a906153f4565b9192909190565b505060009160029190565b156147a757565b60405162461bcd60e51b815260206004820152602760248201527f476f7665726e6f72566f74696e6753696d706c653a20766f746520616c726561604482015266191e4818d85cdd60ca1b6064820152608490fd5b9161483c61121a61481a60ff9495600052600e602052604060002090565b9460038601614837614832610c926111de858561268e565b6147a0565b61268e565b168061485357509061484f9082546128a0565b9055565b6001810361486b5750600161484f91019182546128a0565b60020361488157600261484f91019182546128a0565b60405162461bcd60e51b815260206004820152603560248201527f476f7665726e6f72566f74696e6753696d706c653a20696e76616c69642076616044820152746c756520666f7220656e756d20566f74655479706560581b6064820152608490fd5b8015614a1e57806149b76149b06149a661499c61499261498861497e61497460016106399a6000908b60801c80614a12575b508060401c80614a05575b508060201c806149f8575b508060101c806149eb575b508060081c806149de575b508060041c806149d1575b508060021c806149c4575b50821c6149bd575b811c1b61496d818b614343565b0160011c90565b61496d818a614343565b61496d8189614343565b61496d8188614343565b61496d8187614343565b61496d8186614343565b61496d8185614343565b8092614343565b9061546e565b8101614960565b6002915091019038614958565b600491509101903861494d565b6008915091019038614942565b6010915091019038614937565b602091509101903861492c565b6040915091019038614921565b91505060809038614916565b50600090565b905b828110614a3257505090565b90918082169080831860011c820180921161285757600f60005260008051602061558f83398151915282015465ffffffffffff9081169085161015614a7a5750915b90614a26565b929150614a8690612892565b90614a74565b60ff8114614aca5760ff811690601f8211614ab85760405191614aae83610765565b8252602082015290565b604051632cd44ac360e21b8152600490fd5b5060405160008160005491614ade83612640565b808352602093600190818116908115614b465750600114614b08575b5050610639925003826107ea565b600080805285812095935091905b818310614b2e57505061063993508201013880614afa565b85548784018501529485019486945091830191614b16565b91505061063994925060ff191682840152151560051b8201013880614afa565b60ff8114614b885760ff811690601f8211614ab85760405191614aae83610765565b5060405160008160019160015492614b9f84612640565b90818452602094600181169081600014614b465750600114614bc9575050610639925003826107ea565b90939150600160005281600020936000915b818310614bf357505061063993508201013880614afa565b85548784018501529485019486945091830191614bdb565b908151811015611616570160200190565b815160348110614ccd5760131981840101516001600160a01b0319166b1b91f1b211f2119351b859f160a31b01614ccd5791600092614c5a81612984565b915b818310614c77575050506001600160a01b0391821691161490565b909193614c9d614c98614c8a8785614c0b565b516001600160f81b03191690565b615480565b919015614cc25760041b6010600160a01b031660ff9190911617936001019190614c5c565b505050505050600190565b505050600190565b90614cdf82610925565b614cec60405191826107ea565b8281528092614cfd601f1991610925565b019060005b828110614d0e57505050565b806060602080938501015201614d02565b9592614d5390614d61939b9a989996959261012090895260209c60018060a01b03168d8a01528060408a0152880190612d3b565b908682036060880152611918565b9784890360808601528251808a52818a019180808360051b8d01019501926000905b838210614dc057505050505061063996975090614da79184820360a0860152612d78565b9360c083015260e0820152610100818403910152610603565b90919293958380614ddf8f93600194601f199082030186528a51610603565b98019201920190939291614d83565b919493909294614e0686516020880120828686612dd5565b958351855190818114801590614f84575b8015614f7c575b614f5357505065ffffffffffff9485614e39612c298a610d8d565b16614f2c577f7d84a6263ae0d98d3329bd7b46bb4e8d6f98cd35a7adb45c274c8b7fd5ebd5e095614f279363ffffffff614e82614e74612aea565b6008549480861691166128a0565b9260301c16614f05614e938c610d8d565b80546001600160a01b0319166001600160a01b038a16178155614edc614eb88661409b565b825465ffffffffffff60a01b191660a09190911b65ffffffffffff60a01b16178255565b614ee5836154fe565b815463ffffffff60d01b191660d09190911b63ffffffff60d01b16179055565b614f19614f128951614cd5565b91846128a0565b936040519889988d8a614d1f565b0390a1565b87614f3681613634565b6040516331b75e4d60e01b8152918291611b6191600484016133dd565b8351604051630447b05d60e41b8152600481019290925260248201526044810191909152606490fd5b508015614e1e565b508351811415614e17565b9065ffffffffffff82549181199060301b169116179055565b600f5490600160401b821015610780576001820180600f558210156116165761083991600f60005260206000200190614fea65ffffffffffff825116836131e9565b602001516001600160d01b031690614f8f565b9060405161500a81610765565b915465ffffffffffff8116835260301c6020830152565b600f549192919081156150e85761504261503d612a1384612975565b614ffd565b805165ffffffffffff83811694911684106150d6578560209361509a95615072612c38865165ffffffffffff1690565b0361509e5750615087612a1361508c93612975565b614f8f565b01516001600160d01b031690565b9190565b90506150d191506150be6150b061082c565b65ffffffffffff9092168252565b6001600160d01b03871681850152614fa8565b61508c565b604051632520601d60e01b8152600490fd5b61510c91506150f86150b061082c565b6001600160d01b0384166020820152614fa8565b60009190565b919261514160a09461513361514f949998979960c0875260c0870190612d3b565b908582036020870152611918565b908382036040850152612d78565b946000606083015260808201520152565b61517481600052600e602052604060002090565b6002916001600283015492015492600a546001915b8161ffff841611156151be57505050906151b36151ae612c38612c296151b995610d8d565b614363565b926128a0565b101590565b90919461521561521b9161520d6152026151dd61131161130c8c61285c565b6113376151e98a610d9d565b60408351600090815260209283522092015161ffff1690565b9785890154906128a0565b9654906128a0565b95612844565b9190615189565b6000908082526001602092600e6020526040926040822091825495848594015495600a54926001965b61525b575b505050505050501190565b61ffff989596979884818a16116152c95761529e9061527f61131161130c8c61285c565b90878452600d8652848420825185528652858585209201511690610dcd565b98878a01548701809711612857576152bd6152c39189989b54906128a0565b98612844565b9661524b565b5085989750615250565b906152df939291612dd5565b6152e881613634565b6008811015610ba557603b600160ff83161b16156153c7575061532261530d82610d8d565b80546001600160f81b0316600160f81b179055565b6040518181527f789cf55be980739dad1d0699b93b58e806b51c9d96619bfa8fe0a28abaa7b30c90602090a161535781610dbd565b5480615361575090565b61536f610cc76010546106fe565b803b156104e15760405163c4d252f560e01b815260048101929092526000908290602490829084905af18015611c8e576153b4575b5060006153b082610dbd565b5590565b806133956153c192610785565b386153a4565b906153eb606492604051926331b75e4d60e01b845260048401526024830190610f33565b603b6044820152fd5b91906fa2a8918ca85bafe22016d0b997e4df60600160ff1b03841161546257926020929160ff608095604051948552168484015260408301526060820152600092839182805260015afa15611c8e5780516001600160a01b0381161561545957918190565b50809160019190565b50505060009160039190565b908082101561547b575090565b905090565b60f81c9081602f10806154f4575b156154a057600191602f190160ff1690565b81604010806154ea575b156154bc576001916036190160ff1690565b81606010806154e0575b156154d8576001916056190160ff1690565b600091508190565b50606782106154c6565b50604782106154aa565b50603a821061548e565b63ffffffff9081811161550f571690565b604490604051906306dfcc6560e41b8252602060048301526024820152fdfef2aad550cf55f045cb27e9c559f9889fdfb6e6cdaa032301d6ea397784ae51d78be0079c531659141344cd1fd0a4f28419497f9722a3daafe3b4186f6b6457e03e83946653575f9a39005e1545185629e92736b7528ab20ca3816f315424a8118d1108e10bcb7c27dddfc02ed9d693a074039d026cf4ea4240b40f7d581ac802a2646970667358221220bcb8d41e98f0219f2a49b737e4120e2982795a3cc9553536d3815bc41203cb7b64736f6c634300081700330553476bf02ef2726e8ce5ced78d63e26e602e4a2257b1f559418e24b46339978d1108e10bcb7c27dddfc02ed9d693a074039d026cf4ea4240b40f7d581ac802",
  "linkReferences": {},
  "deployedLinkReferences": {}
}