{
  "_format": "hh-sol-artifact-1",
  "contractName": "QueryManager",
  "sourceName": "contracts/QueryManager.sol",
  "abi": [
    {
      "inputs": [],
      "stateMutability": "nonpayable",
      "type": "constructor"
    },
    {
      "anonymous": false,
      "inputs": [
        {
          "indexed": false,
          "internalType": "uint256",
          "name": "value",
          "type": "uint256"
        },
        {
          "indexed": false,
          "internalType": "address",
          "name": "to",
          "type": "address"
        },
        {
          "indexed": false,
          "internalType": "uint256",
          "name": "queryIndex",
          "type": "uint256"
        }
      ],
      "name": "DistributePay",
      "type": "event"
    },
    {
      "anonymous": false,
      "inputs": [
        {
          "indexed": false,
          "internalType": "address",
          "name": "newRecipient",
          "type": "address"
        },
        {
          "indexed": false,
          "internalType": "uint256",
          "name": "newFee",
          "type": "uint256"
        }
      ],
      "name": "FeeInfoUpdated",
      "type": "event"
    },
    {
      "anonymous": false,
      "inputs": [
        {
          "indexed": false,
          "internalType": "uint8",
          "name": "version",
          "type": "uint8"
        }
      ],
      "name": "Initialized",
      "type": "event"
    },
    {
      "anonymous": false,
      "inputs": [
        {
          "indexed": false,
          "internalType": "uint256",
          "name": "value",
          "type": "uint256"
        },
        {
          "indexed": false,
          "internalType": "address",
          "name": "user",
          "type": "address"
        },
        {
          "indexed": false,
          "internalType": "uint256",
          "name": "queryIndex",
          "type": "uint256"
        }
      ],
      "name": "PaidQuery",
      "type": "event"
    },
    {
      "anonymous": false,
      "inputs": [
        {
          "indexed": false,
          "internalType": "uint256",
          "name": "value",
          "type": "uint256"
        },
        {
          "indexed": false,
          "internalType": "address",
          "name": "user",
          "type": "address"
        },
        {
          "indexed": false,
          "internalType": "uint256",
          "name": "queryIndex",
          "type": "uint256"
        }
      ],
      "name": "RefundQuery",
      "type": "event"
    },
    {
      "anonymous": false,
      "inputs": [
        {
          "indexed": true,
          "internalType": "bytes32",
          "name": "role",
          "type": "bytes32"
        },
        {
          "indexed": true,
          "internalType": "bytes32",
          "name": "previousAdminRole",
          "type": "bytes32"
        },
        {
          "indexed": true,
          "internalType": "bytes32",
          "name": "newAdminRole",
          "type": "bytes32"
        }
      ],
      "name": "RoleAdminChanged",
      "type": "event"
    },
    {
      "anonymous": false,
      "inputs": [
        {
          "indexed": true,
          "internalType": "bytes32",
          "name": "role",
          "type": "bytes32"
        },
        {
          "indexed": true,
          "internalType": "address",
          "name": "account",
          "type": "address"
        },
        {
          "indexed": true,
          "internalType": "address",
          "name": "sender",
          "type": "address"
        }
      ],
      "name": "RoleGranted",
      "type": "event"
    },
    {
      "anonymous": false,
      "inputs": [
        {
          "indexed": true,
          "internalType": "bytes32",
          "name": "role",
          "type": "bytes32"
        },
        {
          "indexed": true,
          "internalType": "address",
          "name": "account",
          "type": "address"
        },
        {
          "indexed": true,
          "internalType": "address",
          "name": "sender",
          "type": "address"
        }
      ],
      "name": "RoleRevoked",
      "type": "event"
    },
    {
      "anonymous": false,
      "inputs": [
        {
          "indexed": false,
          "internalType": "address",
          "name": "user",
          "type": "address"
        },
        {
          "indexed": false,
          "internalType": "uint256",
          "name": "queryIndex",
          "type": "uint256"
        }
      ],
      "name": "SuccessfulQuery",
      "type": "event"
    },
    {
      "inputs": [],
      "name": "DEFAULT_ADMIN_ROLE",
      "outputs": [
        {
          "internalType": "bytes32",
          "name": "",
          "type": "bytes32"
        }
      ],
      "stateMutability": "view",
      "type": "function"
    },
    {
      "inputs": [],
      "name": "PPC_ROLE",
      "outputs": [
        {
          "internalType": "bytes32",
          "name": "",
          "type": "bytes32"
        }
      ],
      "stateMutability": "view",
      "type": "function"
    },
    {
      "inputs": [],
      "name": "currentIndex",
      "outputs": [
        {
          "internalType": "uint256",
          "name": "",
          "type": "uint256"
        }
      ],
      "stateMutability": "view",
      "type": "function"
    },
    {
      "inputs": [],
      "name": "eoaBond",
      "outputs": [
        {
          "internalType": "contract EoaBond",
          "name": "",
          "type": "address"
        }
      ],
      "stateMutability": "view",
      "type": "function"
    },
    {
      "inputs": [],
      "name": "feeBps",
      "outputs": [
        {
          "internalType": "uint256",
          "name": "",
          "type": "uint256"
        }
      ],
      "stateMutability": "view",
      "type": "function"
    },
    {
      "inputs": [],
      "name": "feeRecipient",
      "outputs": [
        {
          "internalType": "address",
          "name": "",
          "type": "address"
        }
      ],
      "stateMutability": "view",
      "type": "function"
    },
    {
      "inputs": [
        {
          "internalType": "address",
          "name": "user",
          "type": "address"
        }
      ],
      "name": "getAllUserQueries",
      "outputs": [
        {
          "components": [
            {
              "internalType": "uint256",
              "name": "queryIndex",
              "type": "uint256"
            },
            {
              "internalType": "string",
              "name": "ppcCmd",
              "type": "string"
            },
            {
              "internalType": "string",
              "name": "result",
              "type": "string"
            },
            {
              "internalType": "enum QueryManager.QueryStatus",
              "name": "status",
              "type": "uint8"
            },
            {
              "internalType": "uint256",
              "name": "totalPaid",
              "type": "uint256"
            },
            {
              "internalType": "uint256[]",
              "name": "bucketIds",
              "type": "uint256[]"
            },
            {
              "internalType": "uint256[]",
              "name": "policyIndexes",
              "type": "uint256[]"
            }
          ],
          "internalType": "struct QueryManager.Query[]",
          "name": "",
          "type": "tuple[]"
        }
      ],
      "stateMutability": "view",
      "type": "function"
    },
    {
      "inputs": [
        {
          "internalType": "uint256",
          "name": "queryIndex",
          "type": "uint256"
        }
      ],
      "name": "getQuery",
      "outputs": [
        {
          "components": [
            {
              "internalType": "uint256",
              "name": "queryIndex",
              "type": "uint256"
            },
            {
              "internalType": "string",
              "name": "ppcCmd",
              "type": "string"
            },
            {
              "internalType": "string",
              "name": "result",
              "type": "string"
            },
            {
              "internalType": "enum QueryManager.QueryStatus",
              "name": "status",
              "type": "uint8"
            },
            {
              "internalType": "uint256",
              "name": "totalPaid",
              "type": "uint256"
            },
            {
              "internalType": "uint256[]",
              "name": "bucketIds",
              "type": "uint256[]"
            },
            {
              "internalType": "uint256[]",
              "name": "policyIndexes",
              "type": "uint256[]"
            }
          ],
          "internalType": "struct QueryManager.Query",
          "name": "",
          "type": "tuple"
        }
      ],
      "stateMutability": "view",
      "type": "function"
    },
    {
      "inputs": [
        {
          "internalType": "uint256",
          "name": "queryIndex",
          "type": "uint256"
        }
      ],
      "name": "getQueryBucketIds",
      "outputs": [
        {
          "internalType": "uint256[]",
          "name": "",
          "type": "uint256[]"
        }
      ],
      "stateMutability": "view",
      "type": "function"
    },
    {
      "inputs": [
        {
          "internalType": "address",
          "name": "user",
          "type": "address"
        },
        {
          "internalType": "uint256",
          "name": "index",
          "type": "uint256"
        }
      ],
      "name": "getQueryByUserIndex",
      "outputs": [
        {
          "components": [
            {
              "internalType": "uint256",
              "name": "queryIndex",
              "type": "uint256"
            },
            {
              "internalType": "string",
              "name": "ppcCmd",
              "type": "string"
            },
            {
              "internalType": "string",
              "name": "result",
              "type": "string"
            },
            {
              "internalType": "enum QueryManager.QueryStatus",
              "name": "status",
              "type": "uint8"
            },
            {
              "internalType": "uint256",
              "name": "totalPaid",
              "type": "uint256"
            },
            {
              "internalType": "uint256[]",
              "name": "bucketIds",
              "type": "uint256[]"
            },
            {
              "internalType": "uint256[]",
              "name": "policyIndexes",
              "type": "uint256[]"
            }
          ],
          "internalType": "struct QueryManager.Query",
          "name": "",
          "type": "tuple"
        }
      ],
      "stateMutability": "view",
      "type": "function"
    },
    {
      "inputs": [
        {
          "internalType": "uint256",
          "name": "queryIndex",
          "type": "uint256"
        }
      ],
      "name": "getQueryPolicyIndexes",
      "outputs": [
        {
          "internalType": "uint256[]",
          "name": "",
          "type": "uint256[]"
        }
      ],
      "stateMutability": "view",
      "type": "function"
    },
    {
      "inputs": [
        {
          "internalType": "bytes32",
          "name": "role",
          "type": "bytes32"
        }
      ],
      "name": "getRoleAdmin",
      "outputs": [
        {
          "internalType": "bytes32",
          "name": "",
          "type": "bytes32"
        }
      ],
      "stateMutability": "view",
      "type": "function"
    },
    {
      "inputs": [
        {
          "internalType": "address",
          "name": "user",
          "type": "address"
        }
      ],
      "name": "getUserIndex",
      "outputs": [
        {
          "internalType": "uint256",
          "name": "",
          "type": "uint256"
        }
      ],
      "stateMutability": "view",
      "type": "function"
    },
    {
      "inputs": [
        {
          "internalType": "bytes32",
          "name": "role",
          "type": "bytes32"
        },
        {
          "internalType": "address",
          "name": "account",
          "type": "address"
        }
      ],
      "name": "grantRole",
      "outputs": [],
      "stateMutability": "nonpayable",
      "type": "function"
    },
    {
      "inputs": [
        {
          "internalType": "bytes32",
          "name": "role",
          "type": "bytes32"
        },
        {
          "internalType": "address",
          "name": "account",
          "type": "address"
        }
      ],
      "name": "hasRole",
      "outputs": [
        {
          "internalType": "bool",
          "name": "",
          "type": "bool"
        }
      ],
      "stateMutability": "view",
      "type": "function"
    },
    {
      "inputs": [
        {
          "internalType": "address",
          "name": "_usdc",
          "type": "address"
        }
      ],
      "name": "initialize",
      "outputs": [],
      "stateMutability": "nonpayable",
      "type": "function"
    },
    {
      "inputs": [
        {
          "internalType": "uint256",
          "name": "userIndex",
          "type": "uint256"
        },
        {
          "internalType": "string",
          "name": "ppcCmd",
          "type": "string"
        },
        {
          "internalType": "bool[]",
          "name": "useAllowlists",
          "type": "bool[]"
        },
        {
          "internalType": "uint256[]",
          "name": "accessIndexes",
          "type": "uint256[]"
        },
        {
          "internalType": "uint256",
          "name": "payAmount",
          "type": "uint256"
        },
        {
          "internalType": "uint256[]",
          "name": "bucketIds",
          "type": "uint256[]"
        },
        {
          "internalType": "uint256[]",
          "name": "policyIndexes",
          "type": "uint256[]"
        }
      ],
      "name": "payQuery",
      "outputs": [],
      "stateMutability": "nonpayable",
      "type": "function"
    },
    {
      "inputs": [
        {
          "internalType": "uint256",
          "name": "queryIndex",
          "type": "uint256"
        },
        {
          "internalType": "string",
          "name": "result",
          "type": "string"
        }
      ],
      "name": "postQueryResult",
      "outputs": [],
      "stateMutability": "nonpayable",
      "type": "function"
    },
    {
      "inputs": [
        {
          "internalType": "uint256",
          "name": "queryIndex",
          "type": "uint256"
        },
        {
          "internalType": "string",
          "name": "error",
          "type": "string"
        }
      ],
      "name": "refundFailedQuery",
      "outputs": [],
      "stateMutability": "nonpayable",
      "type": "function"
    },
    {
      "inputs": [
        {
          "internalType": "bytes32",
          "name": "role",
          "type": "bytes32"
        },
        {
          "internalType": "address",
          "name": "account",
          "type": "address"
        }
      ],
      "name": "renounceRole",
      "outputs": [],
      "stateMutability": "nonpayable",
      "type": "function"
    },
    {
      "inputs": [
        {
          "internalType": "bytes32",
          "name": "role",
          "type": "bytes32"
        },
        {
          "internalType": "address",
          "name": "account",
          "type": "address"
        }
      ],
      "name": "revokeRole",
      "outputs": [],
      "stateMutability": "nonpayable",
      "type": "function"
    },
    {
      "inputs": [
        {
          "internalType": "address",
          "name": "newAddress",
          "type": "address"
        }
      ],
      "name": "setEoaBondContract",
      "outputs": [],
      "stateMutability": "nonpayable",
      "type": "function"
    },
    {
      "inputs": [
        {
          "internalType": "uint256",
          "name": "_feeBps",
          "type": "uint256"
        },
        {
          "internalType": "address",
          "name": "_recipient",
          "type": "address"
        }
      ],
      "name": "setFeeAndRecipient",
      "outputs": [],
      "stateMutability": "nonpayable",
      "type": "function"
    },
    {
      "inputs": [
        {
          "internalType": "bytes4",
          "name": "interfaceId",
          "type": "bytes4"
        }
      ],
      "name": "supportsInterface",
      "outputs": [
        {
          "internalType": "bool",
          "name": "",
          "type": "bool"
        }
      ],
      "stateMutability": "view",
      "type": "function"
    },
    {
      "inputs": [],
      "name": "usdc",
      "outputs": [
        {
          "internalType": "contract IERC20Upgradeable",
          "name": "",
          "type": "address"
        }
      ],
      "stateMutability": "view",
      "type": "function"
    }
  ],
  "bytecode": "0x608080604052346100c2576000549060ff8260081c16610070575060ff80821603610035575b604051612e239081620000c88239f35b60ff90811916176000557f7f26b83ff96e1f2b6a682f133852f6798a09c465da95921460cefb3847402498602060405160ff8152a138610025565b62461bcd60e51b815260206004820152602760248201527f496e697469616c697a61626c653a20636f6e747261637420697320696e697469604482015266616c697a696e6760c81b6064820152608490fd5b600080fdfe608080604052600436101561001357600080fd5b60003560e01c90816301ffc9a714611e98575080630b57864a146111fa578063248a9ca3146111cb57806324a9d853146111ad57806326987b601461118f578063273ce16314610bc157806328ba3b5414610ada578063292808a11461082e5780632f2ff15d1461078d57806336568abe146106fb578063379917c5146106d35780633c9f1f87146106a95780633e413bee1461068057806346904840146106575780634b0d58d51461062e578063627be501146106055780637812c4a1146105b557806384c6e0d81461054857806391d14854146104fb578063a217fddf146104df578063aeb2ffc1146104a8578063c4d66de814610276578063d547741f14610235578063dbe070fb146101715763ee9907a41461013257600080fd5b3461016c57602036600319011261016c576001600160a01b03610153611f7b565b1660005260cd6020526020604060002054604051908152f35b600080fd5b3461016c57604036600319011261016c5760043561018d611f91565b906101966122ad565b61271081116101f75760ce81905560cf80546001600160a01b0319166001600160a01b039390931692831790556040805192835260208301919091527f309b6393e1f460ba524a92be7cf63622f4a3aecc37c0c13bfc227ed4d86aad6291a1005b60405162461bcd60e51b81526020600482015260166024820152754665652063616e6e6f7420657863656564203130302560501b6044820152606490fd5b3461016c57604036600319011261016c57610274600435610254611f91565b9080600052606560205261026f6001604060002001546123d1565b612569565b005b3461016c5760208060031936011261016c57610290611f7b565b6000549060ff808360081c16159283809461049c575b8015610486575b1561042a5760ff198181166001176000559084610418575b506102ed8260005460081c166102da8161273c565b6102e38161273c565b600160975561273c565b600080526065855260406000203360005285528160406000205416156103dc575b600080516020612dce8339815191529182600052606586526040600020336000528652604060002054161561039d575b505060c980546001600160a01b0319166001600160a01b039290921691909117905561036657005b7f7f26b83ff96e1f2b6a682f133852f6798a09c465da95921460cefb38474024989061ff00196000541660005560405160018152a1005b81600052606585526040600020336000528552600160406000209182541617905533903390600080516020612dae833981519152600080a4838061033e565b60008052606585526040600020336000528552604060002060018282541617905533336000600080516020612dae8339815191528180a461030e565b61ffff191661010117600055856102c5565b60405162461bcd60e51b815260048101869052602e60248201527f496e697469616c697a61626c653a20636f6e747261637420697320616c72656160448201526d191e481a5b9a5d1a585b1a5e995960921b6064820152608490fd5b50303b1580156102ad57506001828216146102ad565b506001828216106102a6565b3461016c57602036600319011261016c576104db6104c7600435612c34565b604051918291602083526020830190612023565b0390f35b3461016c57600036600319011261016c57602060405160008152f35b3461016c57604036600319011261016c57610514611f91565b600435600052606560205260406000209060018060a01b0316600052602052602060ff604060002054166040519015158152f35b3461016c57602036600319011261016c576104db6105a1600661059a610578610572600435612918565b50612a9f565b60018060a01b0381511660005260cd6020526020604060002091015190612864565b5001612b6a565b604051918291602083526020830190611fef565b3461016c57602036600319011261016c576105ce611f7b565b6105d66122ad565b6105de61279c565b60ca80546001600160a01b0319166001600160a01b03929092169190911790556001609755005b3461016c57600036600319011261016c5760ca546040516001600160a01b039091168152602090f35b3461016c57600036600319011261016c576020604051600080516020612dce8339815191528152f35b3461016c57600036600319011261016c5760cf546040516001600160a01b039091168152602090f35b3461016c57600036600319011261016c5760c9546040516001600160a01b039091168152602090f35b3461016c57602036600319011261016c576104db6105a1600561059a610578610572600435612918565b3461016c57604036600319011261016c576104db6104c76106f2611f7b565b60243590612cb9565b3461016c57604036600319011261016c57610714611f91565b336001600160a01b038216036107305761027490600435612569565b60405162461bcd60e51b815260206004820152602f60248201527f416363657373436f6e74726f6c3a2063616e206f6e6c792072656e6f756e636560448201526e103937b632b9903337b91039b2b63360891b6064820152608490fd5b3461016c57604036600319011261016c576004356107a9611f91565b8160005260656020526107c36001604060002001546123d1565b81600052606560205260406000209060018060a01b0316908160005260205260ff60406000205416156107f257005b8160005260656020526040600020816000526020526040600020600160ff198254161790553391600080516020612dae833981519152600080a4005b3461016c5761083c36611f48565b6108479291926120a4565b61084f61279c565b61085c60cb548314612d50565b61086861057283612918565b9060018060a01b03938483511660005260209060cd825261089160406000208386015190612864565b509260028401916001600160401b038211610ac45781906108bc826108b68654612880565b866128d1565b600090601f8311600114610a5a57600092610a4f575b50508160011b916000199060031b1c19161790555b60038201600260ff1982541617905560cb5460018101809111610a395760cb5560c95483516004938401805460405163a9059cbb60e01b81529289166001600160a01b031695830195909552602482019490945290829082908816816000816044810103925af1908115610a2d576000916109f8575b50156109b457505490516040805192835293166001600160a01b03166020820152918201527f0db5dca4dd414f50b27b36cd3fe4a713a2b72c882d12764afc08d327f24be8e79080606081015b0390a16001609755005b6064906040519062461bcd60e51b82526004820152601f60248201527f4661696c656420746f20726566756e6420746f6b656e7320746f2075736572006044820152fd5b90508181813d8311610a26575b610a0f8183612548565b8101031261016c57610a20906127f2565b8661095d565b503d610a05565b6040513d6000823e3d90fd5b634e487b7160e01b600052601160045260246000fd5b0135905088806108d2565b909150601f1983169184600052856000209260005b87828210610aae575050908460019594939210610a94575b505050811b0190556108e7565b0135600019600384901b60f8161c19169055888080610a87565b6001849682939587013581550195019201610a6f565b634e487b7160e01b600052604160045260246000fd5b3461016c5760208060031936011261016c576001600160a01b03610afc611f7b565b1660005260cd8152604060002090815491610b16836127ff565b92610b246040519485612548565b8084528284018092600052836000206000915b838310610b9e5750505050604051918083019381845251809452604083019360408160051b85010192916000955b828710610b725785850386f35b909192938280610b8e600193603f198a82030186528851612023565b9601920196019592919092610b65565b600786600192610bb0859a999a612bb9565b815201920192019190959495610b37565b3461016c57610bcf36611f48565b91610bd86120a4565b610be061279c565b610bed60cb548214612d50565b610bf961057282612918565b9160018060a01b0383511660005260cd602052610c1f6040600020602085015190612864565b509360028501916001600160401b038211610ac4578190610c44826108b68654612880565b600090601f831160011461112457600092611119575b50508160011b916000199060031b1c19161790555b60038301600360ff1982541617905560009260005b6005820154811015610f8e5760ca546001600160a01b031690610caa8160058501612d95565b905460405163696412bd60e11b815260039290921b1c6004820152600081602481865afa8015610a2d57610cfb91600091610f6b575b50610cee8360068701612d95565b90549060031b1c906129cf565b516040519063d3e8948360e01b82526004820152608081602481865afa908115610a2d57600091610f38575b506000610d378360058701612d95565b90549060031b1c602460405180968193639b51fb0d60e01b835260048301525afa928315610a2d57600093610eb7575b5060ce549061271091820390828211610a3957818102918183041490151715610a395760c95460405163a9059cbb60e01b81526001600160a01b0386811660048301529390920460248301819052989260209183916044918391600091165af1908115610a2d57600091610e7d575b5015610e3857610e3392610e0b887f55703a43e3a9fde77a83dbeae6ceb4606e2958b557b0a9414068abbe71ad8c85936125df565b60408051998a526001600160a01b039290921660208a015290880186905296606090a1612937565b610c84565b60405162461bcd60e51b815260206004820152601b60248201527f4661696c656420746f206469737472696275746520746f6b656e7300000000006044820152606490fd5b90506020813d602011610eaf575b81610e9860209383612548565b8101031261016c57610ea9906127f2565b88610dd6565b3d9150610e8b565b9092503d806000833e610eca8183612548565b608082828101031261016c5781516001600160401b03811161016c57610ef590828401908401612a24565b5060208201516001600160401b03811161016c57610f17918301908301612a24565b50610f306060610f29604084016129e3565b92016127f2565b509187610d67565b610f5a915060803d608011610f64575b610f528183612548565b8101906129f7565b5050905087610d27565b503d610f48565b610f8891503d806000833e610f808183612548565b810190612956565b88610ce0565b5060040154838181116110d45760c95460cf546001600160a01b03918216939116918103908111610a395760405163a9059cbb60e01b81526001600160a01b03929092166004830152602482015290602090829060449082906000905af1908115610a2d5760009161109a575b501561105c5760cb549160018301809311610a395760cb929092559051604080516001600160a01b03909216825260208201929092527f6c0a22920ff17df2882be32b96efe6c6f2a8ee9afd31289451970b5ab188d5c191819081016109aa565b60405162461bcd60e51b81526020600482015260166024820152754661696c656420746f207472616e736665722066656560501b6044820152606490fd5b90506020813d6020116110cc575b816110b560209383612548565b8101031261016c576110c6906127f2565b83610ffb565b3d91506110a8565b60405162461bcd60e51b815260206004820152601a60248201527f496e636f727265637420616d6f756e74732073656e74206f75740000000000006044820152606490fd5b013590508680610c5a565b909150601f198316918460005260206000209260005b818110611177575090846001959493921061115d575b505050811b019055610c6f565b0135600019600384901b60f8161c19169055868080611150565b9193602060018192878701358155019501920161113a565b3461016c57600036600319011261016c57602060cb54604051908152f35b3461016c57600036600319011261016c57602060ce54604051908152f35b3461016c57602036600319011261016c5760043560005260656020526020600160406000200154604051908152f35b3461016c5760e036600319011261016c576024356001600160401b03811161016c5761122a903690600401611eeb565b906044356001600160401b03811161016c5761124a903690600401611f18565b90926064356001600160401b03811161016c5761126b903690600401611f18565b9460a4356001600160401b03811161016c5761128b903690600401611f18565b96909460c4356001600160401b03811161016c576112ad903690600401611f18565b9390946112b861279c565b898503611e445760ca54600094906001600160a01b0316855b8c8082106118d0575050505050505060843503611894573360005260cd6020526040600020546004350361185a5760c9546040516323b872dd60e01b8152336004820152306024820152608435604482015290602090829060649082906000906001600160a01b03165af1908115610a2d57600091611820575b50156117c85760cc54943360005260cd60205260406000209460405197611371896124dc565b87895261137d866125ec565b61138a6040519182612548565b868152368785011161016c5760006020886113e7996113db97838601378301015260208a01526040516113bc81612512565b6000815260408a0152600160608a015260843560808a01523691612816565b60a08701523691612816565b60c08401528054600160401b811015610ac45761140991600182018155612864565b919091611643578251825560208301519283516001600160401b038111610ac4576114448161143b6001870154612880565b600187016128d1565b6020601f821160011461175957819293949560009261174e575b50508160011b916000199060031b1c19161760018401555b60408101519283516001600160401b038111610ac4576114a68161149d6002850154612880565b600285016128d1565b6020601f82116001146116df5781929394956000926116d4575b50508160011b916000199060031b1c19161760028201555b60038101606083015160048110156116be5760ff801983541691161790556080820151600482015560a08201518051906001600160401b038211610ac457600160401b8211610ac457602090600584015483600586015580841061169e575b500160058301600052602060002060005b83811061168a5760c08601518051889160068801906001600160401b038311610ac457600160401b8311610ac457602090825484845580851061166d575b500190600052602060002060005b83811061165957604051856115a8826124f7565b3382526020820190600435825260cc54600160401b811015610ac4578060016115d4920160cc55612918565b61164357925183546001600160a01b0319166001600160a01b0391909116178355905160019290920191909155604080516084358152336020820152908101919091527f414cbe13766319becf7803190af5a9274d3ce41bca3adf6f85e5ef26d51415249080606081016109aa565b634e487b7160e01b600052600060045260246000fd5b600190602084519401938184015501611594565b6116849084600052858460002091820191016128ba565b85611586565b600190602084519401938184015501611548565b6116b89060058601600052848460002091820191016128ba565b86611537565b634e487b7160e01b600052602160045260246000fd5b0151905085806114c0565b6002830160005260206000209060005b601f1984168110611736575060019394959683601f1981161061171d575b505050811b0160028201556114d8565b015160001960f88460031b161c1916905585808061170d565b9091602060018192858b0151815501930191016116ef565b01519050858061145e565b6001850160005260206000209060005b601f19841681106117b0575060019394959683601f19811610611797575b505050811b016001840155611476565b015160001960f88460031b161c19169055858080611787565b9091602060018192858b015181550193019101611769565b60405162461bcd60e51b815260206004820152602a60248201527f4661696c656420746f207472616e7366657220746f6b656e7320746f207468696044820152691cc818dbdb9d1c9858dd60b21b6064820152608490fd5b90506020813d602011611852575b8161183b60209383612548565b8101031261016c5761184c906127f2565b8761134b565b3d915061182e565b60405162461bcd60e51b8152602060048201526012602482015271092dcecc2d8d2c840eae6cae440d2dcc8caf60731b6044820152606490fd5b60405162461bcd60e51b8152602060048201526014602482015273125b98dbdc9c9958dd081c185e48185b5bdd5b9d60621b6044820152606490fd5b816118db918d612946565b60405163696412bd60e11b815290356004820152600081602481865afa8015610a2d5761191d91600091611e29575b50611916838b8d612946565b35906129cf565b5160405163d3e8948360e01b815260048101829052608081602481875afa908115610a2d57600099600090600092600094611dfc575b509061195e916125df565b99421015611dc6576001600160a01b031615611d8957611d4c5760405163796d749b60e01b815233600482015290602082602481875afa918215610a2d57600092611d10575b506119b0838989612946565b35801515810361016c5715611b0e5760405190636f6bfa5760e11b82526004820152600081602481875afa908115610a2d57600091611a5e575b506001600160a01b0390611a039061191685888a612946565b51166001600160a01b0390911603611a2357611a1e90612937565b6112d1565b60405162461bcd60e51b8152602060048201526013602482015272556e617574686f72697a65642061636365737360681b6044820152606490fd5b3d9150816000823e611a708282612548565b602081838101031261016c578051916001600160401b03831161016c57808201601f84840101121561016c578282015191611aaa836127ff565b93611ab86040519586612548565b8385526020850192820160208560051b83850101011161016c57602081830101925b60208560051b83850101018410611af65750505050508f6119ea565b60208091611b03866129e3565b815201930192611ada565b6040519063854e7cb360e01b82526004820152600081602481875afa8015610a2d57600090611c42575b611b489150611916848789612946565b516020815191012090604051611b5d816124f7565b602060019182815201601560f91b8152208203611b80575b5050611a1e90612937565b60405162aee7a360e71b81526001600160a01b039091166004820152600081602481875afa908115610a2d57600091611c01575b506020815191012003611bc8578d80611b75565b60405162461bcd60e51b8152602060048201526011602482015270086c2e8cacedee4f240dad2e6dac2e8c6d607b1b6044820152606490fd5b90503d806000833e611c138183612548565b810160408282031261016c5760208201516001600160401b03811161016c57611c3c9201612a24565b8f611bb4565b503d806000833e611c538183612548565b602082828101031261016c578151916001600160401b03831161016c57818101601f84830101121561016c578281015190611c8d826127ff565b93611c9b6040519586612548565b828552602085019084830160208560051b83860101011161016c57602081840101915b60208560051b83860101018310611cde57505050505050611b4890611b38565b82516001600160401b03811161016c57602091611d058392838a890191878a010101612a24565b815201920191611cbe565b9091506020813d602011611d44575b81611d2c60209383612548565b8101031261016c57611d3d906129e3565b908f6119a4565b3d9150611d1f565b60405162461bcd60e51b8152602060048201526015602482015274141bdb1a58de481a5cc819195858dd1a5d985d1959605a1b6044820152606490fd5b60405162461bcd60e51b8152602060048201526015602482015274141bdb1a58de48191bd95cc81b9bdd08195e1a5cdd605a1b6044820152606490fd5b60405162461bcd60e51b815260206004820152600e60248201526d141bdb1a58de48195e1c1a5c995960921b6044820152606490fd5b9150925061195e9a50611e1e915060803d608011610f6457610f528183612548565b929b92939092611953565b611e3e91503d806000833e610f808183612548565b8f61190a565b60405162461bcd60e51b815260206004820152602660248201527f4275636b657473206d757374206861766520636f72726573706f6e64696e6720604482015265706f6c69637960d01b6064820152608490fd5b3461016c57602036600319011261016c576004359063ffffffff60e01b821680920361016c57602091637965db0b60e01b8114908115611eda575b5015158152f35b6301ffc9a760e01b14905083611ed3565b9181601f8401121561016c578235916001600160401b03831161016c576020838186019501011161016c57565b9181601f8401121561016c578235916001600160401b03831161016c576020808501948460051b01011161016c57565b90604060031983011261016c5760043591602435906001600160401b03821161016c57611f7791600401611eeb565b9091565b600435906001600160a01b038216820361016c57565b602435906001600160a01b038216820361016c57565b60005b838110611fba5750506000910152565b8181015183820152602001611faa565b90602091611fe381518092818552858086019101611fa7565b601f01601f1916010190565b90815180825260208080930193019160005b82811061200f575050505090565b835185529381019392810192600101612001565b80518252612055612043602083015160e0602086015260e0850190611fca565b60408301518482036040860152611fca565b9160608201519260048410156116be5761209060c0916120a19560608501526080850151608085015260a085015184820360a0860152611fef565b9201519060c0818403910152611fef565b90565b3360009081527f6d51351eb7b22a09a8f336cea466b225fe287f25ae5dec64ddc74b92c45bf33760209081526040808320549092600080516020612dce8339815191529160ff16156120f65750505050565b6120ff3361262e565b9184519061210c8261252d565b6042825284820192606036853782511561229957603084538251906001918210156122995790607860218501536041915b81831161222b575050506121e95760486121e59386936121c9936121ba985198899376020b1b1b2b9b9a1b7b73a3937b61d1030b1b1b7bab73a1604d1b8a860152612191815180928c603789019101611fa7565b8401917001034b99036b4b9b9b4b733903937b6329607d1b603784015251809386840190611fa7565b01036028810187520185612548565b5192839262461bcd60e51b845260048401526024830190611fca565b0390fd5b60648486519062461bcd60e51b825280600483015260248201527f537472696e67733a20686578206c656e67746820696e73756666696369656e746044820152fd5b909192600f81166010811015612285576f181899199a1a9b1b9c1cb0b131b232b360811b901a61225b8587612607565b5360041c9280156122715760001901919061213d565b634e487b7160e01b82526011600452602482fd5b634e487b7160e01b83526032600452602483fd5b634e487b7160e01b81526032600452602490fd5b3360009081527fffdfc1249c027f9191656349feb0761381bb32c9f557e01f419fd08754bf5a1b602090815260408083205490929060ff16156122ef57505050565b6122f83361262e565b90808451906123068261252d565b6042825284820192606036853782511561229957603084538251906001918210156122995790607860218501536041915b81831161238b575050506121e95760486121e59386936121c9936121ba985198899376020b1b1b2b9b9a1b7b73a3937b61d1030b1b1b7bab73a1604d1b8a860152612191815180928c603789019101611fa7565b909192600f81166010811015612285576f181899199a1a9b1b9c1cb0b131b232b360811b901a6123bb8587612607565b5360041c92801561227157600019019190612337565b60009080825260209060658252604092838120338252835260ff8482205416156123fb5750505050565b6124043361262e565b918451906124118261252d565b6042825284820192606036853782511561229957603084538251906001918210156122995790607860218501536041915b818311612496575050506121e95760486121e59386936121c9936121ba985198899376020b1b1b2b9b9a1b7b73a3937b61d1030b1b1b7bab73a1604d1b8a860152612191815180928c603789019101611fa7565b909192600f81166010811015612285576f181899199a1a9b1b9c1cb0b131b232b360811b901a6124c68587612607565b5360041c92801561227157600019019190612442565b60e081019081106001600160401b03821117610ac457604052565b604081019081106001600160401b03821117610ac457604052565b602081019081106001600160401b03821117610ac457604052565b608081019081106001600160401b03821117610ac457604052565b90601f801991011681019081106001600160401b03821117610ac457604052565b906000918083526065602052604083209160018060a01b03169182845260205260ff60408420541661259a57505050565b8083526065602052604083208284526020526040832060ff1981541690557ff6391f5c32d9c69d2a47ea670b442974b53935d1edc7fd64eb21e047a839171b339380a4565b91908201809211610a3957565b6001600160401b038111610ac457601f01601f191660200190565b908151811015612618570160200190565b634e487b7160e01b600052603260045260246000fd5b60405190606082018281106001600160401b03821117610ac457604052602a82526020820160403682378251156126185760309053815160019081101561261857607860218401536029905b8082116126ce57505061268a5790565b606460405162461bcd60e51b815260206004820152602060248201527f537472696e67733a20686578206c656e67746820696e73756666696369656e746044820152fd5b9091600f81166010811015612727576f181899199a1a9b1b9c1cb0b131b232b360811b901a6126fd8486612607565b5360041c91801561271257600019019061267a565b60246000634e487b7160e01b81526011600452fd5b60246000634e487b7160e01b81526032600452fd5b1561274357565b60405162461bcd60e51b815260206004820152602b60248201527f496e697469616c697a61626c653a20636f6e7472616374206973206e6f74206960448201526a6e697469616c697a696e6760a81b6064820152608490fd5b6002609754146127ad576002609755565b60405162461bcd60e51b815260206004820152601f60248201527f5265656e7472616e637947756172643a207265656e7472616e742063616c6c006044820152606490fd5b5190811515820361016c57565b6001600160401b038111610ac45760051b60200190565b9291612821826127ff565b9161282f6040519384612548565b829481845260208094019160051b810192831161016c57905b8282106128555750505050565b81358152908301908301612848565b8054821015612618576000526007602060002091020190600090565b90600182811c921680156128b0575b602083101461289a57565b634e487b7160e01b600052602260045260246000fd5b91607f169161288f565b8181106128c5575050565b600081556001016128ba565b9190601f81116128e057505050565b61290c926000526020600020906020601f840160051c8301931061290e575b601f0160051c01906128ba565b565b90915081906128ff565b60cc548110156126185760cc60005260206000209060011b0190600090565b6000198114610a395760010190565b91908110156126185760051b0190565b602090818184031261016c578051906001600160401b03821161016c57019180601f8401121561016c57825161298b816127ff565b936129996040519586612548565b818552838086019260051b82010192831161016c578301905b8282106129c0575050505090565b815181529083019083016129b2565b80518210156126185760209160051b010190565b51906001600160a01b038216820361016c57565b919082608091031261016c578151916020810151916120a16060612a1d604085016129e3565b93016127f2565b81601f8201121561016c578051612a3a816125ec565b92612a486040519485612548565b8184526020828401011161016c576120a19160208085019101611fa7565b60405190612a73826124dc565b606060c08360008152826020820152826040820152600083820152600060808201528260a08201520152565b90604051612aac816124f7565b82546001600160a01b031681526001909201546020830152565b9060405191826000825492612ada84612880565b908184526001948581169081600014612b475750600114612b04575b505061290c92500383612548565b9093915060005260209081600020936000915b818310612b2f57505061290c93508201013880612af6565b85548884018501529485019487945091830191612b17565b91505061290c94506020925060ff191682840152151560051b8201013880612af6565b9060405191828154918282526020928383019160005283600020936000905b828210612b9f5750505061290c92500383612548565b855484526001958601958895509381019390910190612b89565b90604051612bc6816124dc565b809280548252612bd860018201612ac6565b6020830152612be960028201612ac6565b604083015260ff6003820154169060048210156116be576006612c2f9160c093606086015260048101546080860152612c2460058201612b6a565b60a086015201612b6a565b910152565b612c3c612a66565b5060cc54811015612c5f57612c596105786105726120a193612918565b50612bb9565b50604051612c6c816124dc565b60008152604051612c7c81612512565b600081526020820152604051612c9181612512565b6000815260408201526000606082015260006080820152606060a0820152606060c082015290565b612cc1612a66565b506001600160a01b0316600081815260cd60205260408082205490939290831015612cfd5792816120a194612c5994935260cd60205220612864565b509050815191612d0c836124dc565b8183528051612d1a81612512565b8281526020840152805190612d2e82612512565b8282528301528060608301526080820152606060a0820152606060c082015290565b15612d5757565b60405162461bcd60e51b81526020600482015260166024820152750aadccaf0e0cac6e8cac840e2eacae4f240d2dcc8caf60531b6044820152606490fd5b8054821015612618576000526020600020019060009056fe2f8788117e7eff1d82e926ec794901d17c78024a50270940304540a733656f0dfc9efeb1a4bb8e4320137debe56dee502334d29d03c022fe29495c8d7825ec5fa2646970667358221220c7afad94240b07b0e1ea23e4fc3325cdda222544a26105977a9cbfbdac0b1e6364736f6c63430008130033",
  "linkReferences": {},
  "deployedLinkReferences": {}
}