{
  "_format": "hh-sol-artifact-1",
  "contractName": "OrionEncryptedVault",
  "sourceName": "contracts/vaults/OrionEncryptedVault.sol",
  "abi": [
    {
      "inputs": [
        {
          "internalType": "address",
          "name": "vaultOwner",
          "type": "address"
        },
        {
          "internalType": "address",
          "name": "curator",
          "type": "address"
        },
        {
          "internalType": "contract IOrionConfig",
          "name": "configAddress",
          "type": "address"
        },
        {
          "internalType": "string",
          "name": "name",
          "type": "string"
        },
        {
          "internalType": "string",
          "name": "symbol",
          "type": "string"
        },
        {
          "internalType": "uint8",
          "name": "feeType",
          "type": "uint8"
        },
        {
          "internalType": "uint16",
          "name": "performanceFee",
          "type": "uint16"
        },
        {
          "internalType": "uint16",
          "name": "managementFee",
          "type": "uint16"
        }
      ],
      "stateMutability": "nonpayable",
      "type": "constructor"
    },
    {
      "inputs": [],
      "name": "AlreadyRegistered",
      "type": "error"
    },
    {
      "inputs": [
        {
          "internalType": "address",
          "name": "asset",
          "type": "address"
        }
      ],
      "name": "AmountMustBeGreaterThanZero",
      "type": "error"
    },
    {
      "inputs": [
        {
          "internalType": "address",
          "name": "spender",
          "type": "address"
        },
        {
          "internalType": "uint256",
          "name": "allowance",
          "type": "uint256"
        },
        {
          "internalType": "uint256",
          "name": "needed",
          "type": "uint256"
        }
      ],
      "name": "ERC20InsufficientAllowance",
      "type": "error"
    },
    {
      "inputs": [
        {
          "internalType": "address",
          "name": "sender",
          "type": "address"
        },
        {
          "internalType": "uint256",
          "name": "balance",
          "type": "uint256"
        },
        {
          "internalType": "uint256",
          "name": "needed",
          "type": "uint256"
        }
      ],
      "name": "ERC20InsufficientBalance",
      "type": "error"
    },
    {
      "inputs": [
        {
          "internalType": "address",
          "name": "approver",
          "type": "address"
        }
      ],
      "name": "ERC20InvalidApprover",
      "type": "error"
    },
    {
      "inputs": [
        {
          "internalType": "address",
          "name": "receiver",
          "type": "address"
        }
      ],
      "name": "ERC20InvalidReceiver",
      "type": "error"
    },
    {
      "inputs": [
        {
          "internalType": "address",
          "name": "sender",
          "type": "address"
        }
      ],
      "name": "ERC20InvalidSender",
      "type": "error"
    },
    {
      "inputs": [
        {
          "internalType": "address",
          "name": "spender",
          "type": "address"
        }
      ],
      "name": "ERC20InvalidSpender",
      "type": "error"
    },
    {
      "inputs": [
        {
          "internalType": "address",
          "name": "receiver",
          "type": "address"
        },
        {
          "internalType": "uint256",
          "name": "assets",
          "type": "uint256"
        },
        {
          "internalType": "uint256",
          "name": "max",
          "type": "uint256"
        }
      ],
      "name": "ERC4626ExceededMaxDeposit",
      "type": "error"
    },
    {
      "inputs": [
        {
          "internalType": "address",
          "name": "receiver",
          "type": "address"
        },
        {
          "internalType": "uint256",
          "name": "shares",
          "type": "uint256"
        },
        {
          "internalType": "uint256",
          "name": "max",
          "type": "uint256"
        }
      ],
      "name": "ERC4626ExceededMaxMint",
      "type": "error"
    },
    {
      "inputs": [
        {
          "internalType": "address",
          "name": "owner",
          "type": "address"
        },
        {
          "internalType": "uint256",
          "name": "shares",
          "type": "uint256"
        },
        {
          "internalType": "uint256",
          "name": "max",
          "type": "uint256"
        }
      ],
      "name": "ERC4626ExceededMaxRedeem",
      "type": "error"
    },
    {
      "inputs": [
        {
          "internalType": "address",
          "name": "owner",
          "type": "address"
        },
        {
          "internalType": "uint256",
          "name": "assets",
          "type": "uint256"
        },
        {
          "internalType": "uint256",
          "name": "max",
          "type": "uint256"
        }
      ],
      "name": "ERC4626ExceededMaxWithdraw",
      "type": "error"
    },
    {
      "inputs": [],
      "name": "HandlesAlreadySavedForRequestID",
      "type": "error"
    },
    {
      "inputs": [],
      "name": "InsufficientAmount",
      "type": "error"
    },
    {
      "inputs": [],
      "name": "InvalidAddress",
      "type": "error"
    },
    {
      "inputs": [],
      "name": "InvalidArguments",
      "type": "error"
    },
    {
      "inputs": [],
      "name": "InvalidKMSSignatures",
      "type": "error"
    },
    {
      "inputs": [],
      "name": "InvalidUnderlyingDecimals",
      "type": "error"
    },
    {
      "inputs": [],
      "name": "NoHandleFoundForRequestID",
      "type": "error"
    },
    {
      "inputs": [],
      "name": "OrderIntentCannotBeEmpty",
      "type": "error"
    },
    {
      "inputs": [],
      "name": "ReentrancyGuardReentrantCall",
      "type": "error"
    },
    {
      "inputs": [],
      "name": "SynchronousCallDisabled",
      "type": "error"
    },
    {
      "inputs": [],
      "name": "SystemNotIdle",
      "type": "error"
    },
    {
      "inputs": [
        {
          "internalType": "address",
          "name": "token",
          "type": "address"
        }
      ],
      "name": "TokenAlreadyInOrder",
      "type": "error"
    },
    {
      "inputs": [
        {
          "internalType": "address",
          "name": "token",
          "type": "address"
        }
      ],
      "name": "TokenNotWhitelisted",
      "type": "error"
    },
    {
      "inputs": [],
      "name": "TransferFailed",
      "type": "error"
    },
    {
      "inputs": [],
      "name": "UnauthorizedAccess",
      "type": "error"
    },
    {
      "anonymous": false,
      "inputs": [
        {
          "indexed": true,
          "internalType": "address",
          "name": "owner",
          "type": "address"
        },
        {
          "indexed": true,
          "internalType": "address",
          "name": "spender",
          "type": "address"
        },
        {
          "indexed": false,
          "internalType": "uint256",
          "name": "value",
          "type": "uint256"
        }
      ],
      "name": "Approval",
      "type": "event"
    },
    {
      "anonymous": false,
      "inputs": [
        {
          "indexed": true,
          "internalType": "uint256",
          "name": "epoch",
          "type": "uint256"
        },
        {
          "indexed": true,
          "internalType": "uint256",
          "name": "feeAmount",
          "type": "uint256"
        },
        {
          "indexed": true,
          "internalType": "uint256",
          "name": "pendingCuratorFees",
          "type": "uint256"
        }
      ],
      "name": "CuratorFeesAccrued",
      "type": "event"
    },
    {
      "anonymous": false,
      "inputs": [
        {
          "indexed": true,
          "internalType": "address",
          "name": "newCurator",
          "type": "address"
        }
      ],
      "name": "CuratorUpdated",
      "type": "event"
    },
    {
      "anonymous": false,
      "inputs": [
        {
          "indexed": true,
          "internalType": "uint256",
          "name": "requestID",
          "type": "uint256"
        }
      ],
      "name": "DecryptionFulfilled",
      "type": "event"
    },
    {
      "anonymous": false,
      "inputs": [
        {
          "indexed": true,
          "internalType": "address",
          "name": "sender",
          "type": "address"
        },
        {
          "indexed": true,
          "internalType": "address",
          "name": "owner",
          "type": "address"
        },
        {
          "indexed": false,
          "internalType": "uint256",
          "name": "assets",
          "type": "uint256"
        },
        {
          "indexed": false,
          "internalType": "uint256",
          "name": "shares",
          "type": "uint256"
        }
      ],
      "name": "Deposit",
      "type": "event"
    },
    {
      "anonymous": false,
      "inputs": [
        {
          "indexed": true,
          "internalType": "address",
          "name": "user",
          "type": "address"
        },
        {
          "indexed": true,
          "internalType": "uint256",
          "name": "amount",
          "type": "uint256"
        },
        {
          "indexed": true,
          "internalType": "uint256",
          "name": "shares",
          "type": "uint256"
        }
      ],
      "name": "Deposit",
      "type": "event"
    },
    {
      "anonymous": false,
      "inputs": [
        {
          "indexed": true,
          "internalType": "address",
          "name": "sender",
          "type": "address"
        },
        {
          "indexed": true,
          "internalType": "uint256",
          "name": "assets",
          "type": "uint256"
        }
      ],
      "name": "DepositRequest",
      "type": "event"
    },
    {
      "anonymous": false,
      "inputs": [
        {
          "indexed": true,
          "internalType": "address",
          "name": "user",
          "type": "address"
        },
        {
          "indexed": true,
          "internalType": "uint256",
          "name": "amount",
          "type": "uint256"
        }
      ],
      "name": "DepositRequestCancelled",
      "type": "event"
    },
    {
      "anonymous": false,
      "inputs": [
        {
          "indexed": true,
          "internalType": "uint8",
          "name": "mode",
          "type": "uint8"
        },
        {
          "indexed": true,
          "internalType": "uint16",
          "name": "performanceFee",
          "type": "uint16"
        },
        {
          "indexed": true,
          "internalType": "uint16",
          "name": "managementFee",
          "type": "uint16"
        }
      ],
      "name": "FeeModelUpdated",
      "type": "event"
    },
    {
      "anonymous": false,
      "inputs": [
        {
          "indexed": true,
          "internalType": "address",
          "name": "curator",
          "type": "address"
        }
      ],
      "name": "OrderSubmitted",
      "type": "event"
    },
    {
      "anonymous": false,
      "inputs": [
        {
          "indexed": true,
          "internalType": "address",
          "name": "sender",
          "type": "address"
        },
        {
          "indexed": true,
          "internalType": "uint256",
          "name": "shares",
          "type": "uint256"
        }
      ],
      "name": "RedeemRequest",
      "type": "event"
    },
    {
      "anonymous": false,
      "inputs": [
        {
          "indexed": true,
          "internalType": "address",
          "name": "user",
          "type": "address"
        },
        {
          "indexed": true,
          "internalType": "uint256",
          "name": "shares",
          "type": "uint256"
        }
      ],
      "name": "RedeemRequestCancelled",
      "type": "event"
    },
    {
      "anonymous": false,
      "inputs": [
        {
          "indexed": true,
          "internalType": "address",
          "name": "from",
          "type": "address"
        },
        {
          "indexed": true,
          "internalType": "address",
          "name": "to",
          "type": "address"
        },
        {
          "indexed": false,
          "internalType": "uint256",
          "name": "value",
          "type": "uint256"
        }
      ],
      "name": "Transfer",
      "type": "event"
    },
    {
      "anonymous": false,
      "inputs": [
        {
          "indexed": true,
          "internalType": "uint256",
          "name": "newTotalAssets",
          "type": "uint256"
        }
      ],
      "name": "VaultStateUpdated",
      "type": "event"
    },
    {
      "anonymous": false,
      "inputs": [
        {
          "indexed": true,
          "internalType": "address",
          "name": "sender",
          "type": "address"
        },
        {
          "indexed": true,
          "internalType": "address",
          "name": "receiver",
          "type": "address"
        },
        {
          "indexed": true,
          "internalType": "address",
          "name": "owner",
          "type": "address"
        },
        {
          "indexed": false,
          "internalType": "uint256",
          "name": "assets",
          "type": "uint256"
        },
        {
          "indexed": false,
          "internalType": "uint256",
          "name": "shares",
          "type": "uint256"
        }
      ],
      "name": "Withdraw",
      "type": "event"
    },
    {
      "anonymous": false,
      "inputs": [
        {
          "indexed": true,
          "internalType": "address",
          "name": "user",
          "type": "address"
        },
        {
          "indexed": true,
          "internalType": "uint256",
          "name": "assets",
          "type": "uint256"
        },
        {
          "indexed": true,
          "internalType": "uint256",
          "name": "shares",
          "type": "uint256"
        }
      ],
      "name": "Withdraw",
      "type": "event"
    },
    {
      "inputs": [],
      "name": "BASIS_POINTS_FACTOR",
      "outputs": [
        {
          "internalType": "uint16",
          "name": "",
          "type": "uint16"
        }
      ],
      "stateMutability": "view",
      "type": "function"
    },
    {
      "inputs": [],
      "name": "MAX_MANAGEMENT_FEE",
      "outputs": [
        {
          "internalType": "uint16",
          "name": "",
          "type": "uint16"
        }
      ],
      "stateMutability": "view",
      "type": "function"
    },
    {
      "inputs": [],
      "name": "MAX_PERFORMANCE_FEE",
      "outputs": [
        {
          "internalType": "uint16",
          "name": "",
          "type": "uint16"
        }
      ],
      "stateMutability": "view",
      "type": "function"
    },
    {
      "inputs": [],
      "name": "SHARE_DECIMALS",
      "outputs": [
        {
          "internalType": "uint8",
          "name": "",
          "type": "uint8"
        }
      ],
      "stateMutability": "view",
      "type": "function"
    },
    {
      "inputs": [],
      "name": "YEAR_IN_SECONDS",
      "outputs": [
        {
          "internalType": "uint32",
          "name": "",
          "type": "uint32"
        }
      ],
      "stateMutability": "view",
      "type": "function"
    },
    {
      "inputs": [
        {
          "internalType": "uint256",
          "name": "epoch",
          "type": "uint256"
        },
        {
          "internalType": "uint256",
          "name": "feeAmount",
          "type": "uint256"
        }
      ],
      "name": "accrueCuratorFees",
      "outputs": [],
      "stateMutability": "nonpayable",
      "type": "function"
    },
    {
      "inputs": [
        {
          "internalType": "address",
          "name": "owner",
          "type": "address"
        },
        {
          "internalType": "address",
          "name": "spender",
          "type": "address"
        }
      ],
      "name": "allowance",
      "outputs": [
        {
          "internalType": "uint256",
          "name": "",
          "type": "uint256"
        }
      ],
      "stateMutability": "view",
      "type": "function"
    },
    {
      "inputs": [
        {
          "internalType": "address",
          "name": "spender",
          "type": "address"
        },
        {
          "internalType": "uint256",
          "name": "value",
          "type": "uint256"
        }
      ],
      "name": "approve",
      "outputs": [
        {
          "internalType": "bool",
          "name": "",
          "type": "bool"
        }
      ],
      "stateMutability": "nonpayable",
      "type": "function"
    },
    {
      "inputs": [],
      "name": "asset",
      "outputs": [
        {
          "internalType": "address",
          "name": "",
          "type": "address"
        }
      ],
      "stateMutability": "view",
      "type": "function"
    },
    {
      "inputs": [
        {
          "internalType": "address",
          "name": "account",
          "type": "address"
        }
      ],
      "name": "balanceOf",
      "outputs": [
        {
          "internalType": "uint256",
          "name": "",
          "type": "uint256"
        }
      ],
      "stateMutability": "view",
      "type": "function"
    },
    {
      "inputs": [
        {
          "internalType": "uint256",
          "name": "requestID",
          "type": "uint256"
        },
        {
          "internalType": "bytes",
          "name": "cleartexts",
          "type": "bytes"
        },
        {
          "internalType": "bytes",
          "name": "decryptionProof",
          "type": "bytes"
        }
      ],
      "name": "callbackDecryptSingleEbool",
      "outputs": [],
      "stateMutability": "nonpayable",
      "type": "function"
    },
    {
      "inputs": [
        {
          "internalType": "uint256",
          "name": "amount",
          "type": "uint256"
        }
      ],
      "name": "cancelDepositRequest",
      "outputs": [],
      "stateMutability": "nonpayable",
      "type": "function"
    },
    {
      "inputs": [
        {
          "internalType": "uint256",
          "name": "shares",
          "type": "uint256"
        }
      ],
      "name": "cancelRedeemRequest",
      "outputs": [],
      "stateMutability": "nonpayable",
      "type": "function"
    },
    {
      "inputs": [
        {
          "internalType": "uint256",
          "name": "amount",
          "type": "uint256"
        }
      ],
      "name": "claimCuratorFees",
      "outputs": [],
      "stateMutability": "nonpayable",
      "type": "function"
    },
    {
      "inputs": [],
      "name": "config",
      "outputs": [
        {
          "internalType": "contract IOrionConfig",
          "name": "",
          "type": "address"
        }
      ],
      "stateMutability": "view",
      "type": "function"
    },
    {
      "inputs": [
        {
          "internalType": "uint256",
          "name": "shares",
          "type": "uint256"
        }
      ],
      "name": "convertToAssets",
      "outputs": [
        {
          "internalType": "uint256",
          "name": "",
          "type": "uint256"
        }
      ],
      "stateMutability": "view",
      "type": "function"
    },
    {
      "inputs": [
        {
          "internalType": "uint256",
          "name": "shares",
          "type": "uint256"
        },
        {
          "internalType": "uint256",
          "name": "pointInTimeTotalAssets",
          "type": "uint256"
        },
        {
          "internalType": "enum Math.Rounding",
          "name": "rounding",
          "type": "uint8"
        }
      ],
      "name": "convertToAssetsWithPITTotalAssets",
      "outputs": [
        {
          "internalType": "uint256",
          "name": "",
          "type": "uint256"
        }
      ],
      "stateMutability": "view",
      "type": "function"
    },
    {
      "inputs": [
        {
          "internalType": "uint256",
          "name": "assets",
          "type": "uint256"
        }
      ],
      "name": "convertToShares",
      "outputs": [
        {
          "internalType": "uint256",
          "name": "",
          "type": "uint256"
        }
      ],
      "stateMutability": "view",
      "type": "function"
    },
    {
      "inputs": [],
      "name": "curator",
      "outputs": [
        {
          "internalType": "address",
          "name": "",
          "type": "address"
        }
      ],
      "stateMutability": "view",
      "type": "function"
    },
    {
      "inputs": [
        {
          "internalType": "uint256",
          "name": "activeTotalAssets",
          "type": "uint256"
        }
      ],
      "name": "curatorFee",
      "outputs": [
        {
          "internalType": "uint256",
          "name": "",
          "type": "uint256"
        }
      ],
      "stateMutability": "view",
      "type": "function"
    },
    {
      "inputs": [],
      "name": "curatorIntentDecimals",
      "outputs": [
        {
          "internalType": "uint8",
          "name": "",
          "type": "uint8"
        }
      ],
      "stateMutability": "view",
      "type": "function"
    },
    {
      "inputs": [],
      "name": "decimals",
      "outputs": [
        {
          "internalType": "uint8",
          "name": "",
          "type": "uint8"
        }
      ],
      "stateMutability": "view",
      "type": "function"
    },
    {
      "inputs": [
        {
          "internalType": "uint256",
          "name": "",
          "type": "uint256"
        },
        {
          "internalType": "address",
          "name": "",
          "type": "address"
        }
      ],
      "name": "deposit",
      "outputs": [
        {
          "internalType": "uint256",
          "name": "",
          "type": "uint256"
        }
      ],
      "stateMutability": "pure",
      "type": "function"
    },
    {
      "inputs": [],
      "name": "feeModel",
      "outputs": [
        {
          "internalType": "enum OrionVault.FeeType",
          "name": "feeType",
          "type": "uint8"
        },
        {
          "internalType": "uint16",
          "name": "performanceFee",
          "type": "uint16"
        },
        {
          "internalType": "uint16",
          "name": "managementFee",
          "type": "uint16"
        },
        {
          "internalType": "uint256",
          "name": "highWaterMark",
          "type": "uint256"
        }
      ],
      "stateMutability": "view",
      "type": "function"
    },
    {
      "inputs": [],
      "name": "fulfillDeposit",
      "outputs": [],
      "stateMutability": "nonpayable",
      "type": "function"
    },
    {
      "inputs": [],
      "name": "fulfillRedeem",
      "outputs": [],
      "stateMutability": "nonpayable",
      "type": "function"
    },
    {
      "inputs": [],
      "name": "getIntent",
      "outputs": [
        {
          "internalType": "address[]",
          "name": "tokens",
          "type": "address[]"
        },
        {
          "internalType": "euint128[]",
          "name": "weights",
          "type": "bytes32[]"
        }
      ],
      "stateMutability": "view",
      "type": "function"
    },
    {
      "inputs": [],
      "name": "getPortfolio",
      "outputs": [
        {
          "internalType": "address[]",
          "name": "tokens",
          "type": "address[]"
        },
        {
          "internalType": "euint128[]",
          "name": "sharesPerAsset",
          "type": "bytes32[]"
        }
      ],
      "stateMutability": "view",
      "type": "function"
    },
    {
      "inputs": [],
      "name": "internalStatesOrchestrator",
      "outputs": [
        {
          "internalType": "contract IInternalStateOrchestrator",
          "name": "",
          "type": "address"
        }
      ],
      "stateMutability": "view",
      "type": "function"
    },
    {
      "inputs": [],
      "name": "isIntentValid",
      "outputs": [
        {
          "internalType": "bool",
          "name": "",
          "type": "bool"
        }
      ],
      "stateMutability": "view",
      "type": "function"
    },
    {
      "inputs": [],
      "name": "liquidityOrchestrator",
      "outputs": [
        {
          "internalType": "contract ILiquidityOrchestrator",
          "name": "",
          "type": "address"
        }
      ],
      "stateMutability": "view",
      "type": "function"
    },
    {
      "inputs": [
        {
          "internalType": "address",
          "name": "",
          "type": "address"
        }
      ],
      "name": "maxDeposit",
      "outputs": [
        {
          "internalType": "uint256",
          "name": "",
          "type": "uint256"
        }
      ],
      "stateMutability": "view",
      "type": "function"
    },
    {
      "inputs": [
        {
          "internalType": "address",
          "name": "",
          "type": "address"
        }
      ],
      "name": "maxMint",
      "outputs": [
        {
          "internalType": "uint256",
          "name": "",
          "type": "uint256"
        }
      ],
      "stateMutability": "view",
      "type": "function"
    },
    {
      "inputs": [
        {
          "internalType": "address",
          "name": "owner",
          "type": "address"
        }
      ],
      "name": "maxRedeem",
      "outputs": [
        {
          "internalType": "uint256",
          "name": "",
          "type": "uint256"
        }
      ],
      "stateMutability": "view",
      "type": "function"
    },
    {
      "inputs": [
        {
          "internalType": "address",
          "name": "owner",
          "type": "address"
        }
      ],
      "name": "maxWithdraw",
      "outputs": [
        {
          "internalType": "uint256",
          "name": "",
          "type": "uint256"
        }
      ],
      "stateMutability": "view",
      "type": "function"
    },
    {
      "inputs": [
        {
          "internalType": "uint256",
          "name": "",
          "type": "uint256"
        },
        {
          "internalType": "address",
          "name": "",
          "type": "address"
        }
      ],
      "name": "mint",
      "outputs": [
        {
          "internalType": "uint256",
          "name": "",
          "type": "uint256"
        }
      ],
      "stateMutability": "pure",
      "type": "function"
    },
    {
      "inputs": [],
      "name": "name",
      "outputs": [
        {
          "internalType": "string",
          "name": "",
          "type": "string"
        }
      ],
      "stateMutability": "view",
      "type": "function"
    },
    {
      "inputs": [],
      "name": "pendingCuratorFees",
      "outputs": [
        {
          "internalType": "uint256",
          "name": "",
          "type": "uint256"
        }
      ],
      "stateMutability": "view",
      "type": "function"
    },
    {
      "inputs": [],
      "name": "pendingDeposit",
      "outputs": [
        {
          "internalType": "uint256",
          "name": "",
          "type": "uint256"
        }
      ],
      "stateMutability": "view",
      "type": "function"
    },
    {
      "inputs": [],
      "name": "pendingRedeem",
      "outputs": [
        {
          "internalType": "uint256",
          "name": "",
          "type": "uint256"
        }
      ],
      "stateMutability": "view",
      "type": "function"
    },
    {
      "inputs": [
        {
          "internalType": "uint256",
          "name": "",
          "type": "uint256"
        }
      ],
      "name": "previewDeposit",
      "outputs": [
        {
          "internalType": "uint256",
          "name": "",
          "type": "uint256"
        }
      ],
      "stateMutability": "pure",
      "type": "function"
    },
    {
      "inputs": [
        {
          "internalType": "uint256",
          "name": "",
          "type": "uint256"
        }
      ],
      "name": "previewMint",
      "outputs": [
        {
          "internalType": "uint256",
          "name": "",
          "type": "uint256"
        }
      ],
      "stateMutability": "pure",
      "type": "function"
    },
    {
      "inputs": [
        {
          "internalType": "uint256",
          "name": "",
          "type": "uint256"
        }
      ],
      "name": "previewRedeem",
      "outputs": [
        {
          "internalType": "uint256",
          "name": "",
          "type": "uint256"
        }
      ],
      "stateMutability": "pure",
      "type": "function"
    },
    {
      "inputs": [
        {
          "internalType": "uint256",
          "name": "",
          "type": "uint256"
        }
      ],
      "name": "previewWithdraw",
      "outputs": [
        {
          "internalType": "uint256",
          "name": "",
          "type": "uint256"
        }
      ],
      "stateMutability": "pure",
      "type": "function"
    },
    {
      "inputs": [],
      "name": "protocolId",
      "outputs": [
        {
          "internalType": "uint256",
          "name": "",
          "type": "uint256"
        }
      ],
      "stateMutability": "pure",
      "type": "function"
    },
    {
      "inputs": [
        {
          "internalType": "uint256",
          "name": "",
          "type": "uint256"
        },
        {
          "internalType": "address",
          "name": "",
          "type": "address"
        },
        {
          "internalType": "address",
          "name": "",
          "type": "address"
        }
      ],
      "name": "redeem",
      "outputs": [
        {
          "internalType": "uint256",
          "name": "",
          "type": "uint256"
        }
      ],
      "stateMutability": "pure",
      "type": "function"
    },
    {
      "inputs": [
        {
          "internalType": "uint256",
          "name": "assets",
          "type": "uint256"
        }
      ],
      "name": "requestDeposit",
      "outputs": [],
      "stateMutability": "nonpayable",
      "type": "function"
    },
    {
      "inputs": [
        {
          "internalType": "uint256",
          "name": "shares",
          "type": "uint256"
        }
      ],
      "name": "requestRedeem",
      "outputs": [],
      "stateMutability": "nonpayable",
      "type": "function"
    },
    {
      "inputs": [
        {
          "components": [
            {
              "internalType": "address",
              "name": "token",
              "type": "address"
            },
            {
              "internalType": "externalEuint128",
              "name": "weight",
              "type": "bytes32"
            }
          ],
          "internalType": "struct IOrionEncryptedVault.EncryptedIntent[]",
          "name": "intent",
          "type": "tuple[]"
        },
        {
          "internalType": "bytes",
          "name": "inputProof",
          "type": "bytes"
        }
      ],
      "name": "submitIntent",
      "outputs": [],
      "stateMutability": "nonpayable",
      "type": "function"
    },
    {
      "inputs": [],
      "name": "symbol",
      "outputs": [
        {
          "internalType": "string",
          "name": "",
          "type": "string"
        }
      ],
      "stateMutability": "view",
      "type": "function"
    },
    {
      "inputs": [],
      "name": "totalAssets",
      "outputs": [
        {
          "internalType": "uint256",
          "name": "",
          "type": "uint256"
        }
      ],
      "stateMutability": "view",
      "type": "function"
    },
    {
      "inputs": [],
      "name": "totalSupply",
      "outputs": [
        {
          "internalType": "uint256",
          "name": "",
          "type": "uint256"
        }
      ],
      "stateMutability": "view",
      "type": "function"
    },
    {
      "inputs": [
        {
          "internalType": "address",
          "name": "to",
          "type": "address"
        },
        {
          "internalType": "uint256",
          "name": "value",
          "type": "uint256"
        }
      ],
      "name": "transfer",
      "outputs": [
        {
          "internalType": "bool",
          "name": "",
          "type": "bool"
        }
      ],
      "stateMutability": "nonpayable",
      "type": "function"
    },
    {
      "inputs": [
        {
          "internalType": "address",
          "name": "from",
          "type": "address"
        },
        {
          "internalType": "address",
          "name": "to",
          "type": "address"
        },
        {
          "internalType": "uint256",
          "name": "value",
          "type": "uint256"
        }
      ],
      "name": "transferFrom",
      "outputs": [
        {
          "internalType": "bool",
          "name": "",
          "type": "bool"
        }
      ],
      "stateMutability": "nonpayable",
      "type": "function"
    },
    {
      "inputs": [
        {
          "internalType": "address",
          "name": "newCurator",
          "type": "address"
        }
      ],
      "name": "updateCurator",
      "outputs": [],
      "stateMutability": "nonpayable",
      "type": "function"
    },
    {
      "inputs": [
        {
          "internalType": "uint8",
          "name": "feeType",
          "type": "uint8"
        },
        {
          "internalType": "uint16",
          "name": "performanceFee",
          "type": "uint16"
        },
        {
          "internalType": "uint16",
          "name": "managementFee",
          "type": "uint16"
        }
      ],
      "name": "updateFeeModel",
      "outputs": [],
      "stateMutability": "nonpayable",
      "type": "function"
    },
    {
      "inputs": [],
      "name": "updateHighWaterMark",
      "outputs": [],
      "stateMutability": "nonpayable",
      "type": "function"
    },
    {
      "inputs": [
        {
          "components": [
            {
              "internalType": "address",
              "name": "token",
              "type": "address"
            },
            {
              "internalType": "euint128",
              "name": "value",
              "type": "bytes32"
            }
          ],
          "internalType": "struct IOrionEncryptedVault.EncryptedPortfolio[]",
          "name": "portfolio",
          "type": "tuple[]"
        },
        {
          "internalType": "uint256",
          "name": "newTotalAssets",
          "type": "uint256"
        }
      ],
      "name": "updateVaultState",
      "outputs": [],
      "stateMutability": "nonpayable",
      "type": "function"
    },
    {
      "inputs": [
        {
          "internalType": "address[]",
          "name": "assets",
          "type": "address[]"
        }
      ],
      "name": "updateVaultWhitelist",
      "outputs": [],
      "stateMutability": "nonpayable",
      "type": "function"
    },
    {
      "inputs": [],
      "name": "vaultOwner",
      "outputs": [
        {
          "internalType": "address",
          "name": "",
          "type": "address"
        }
      ],
      "stateMutability": "view",
      "type": "function"
    },
    {
      "inputs": [],
      "name": "vaultWhitelist",
      "outputs": [
        {
          "internalType": "address[]",
          "name": "",
          "type": "address[]"
        }
      ],
      "stateMutability": "view",
      "type": "function"
    },
    {
      "inputs": [
        {
          "internalType": "uint256",
          "name": "",
          "type": "uint256"
        },
        {
          "internalType": "address",
          "name": "",
          "type": "address"
        },
        {
          "internalType": "address",
          "name": "",
          "type": "address"
        }
      ],
      "name": "withdraw",
      "outputs": [
        {
          "internalType": "uint256",
          "name": "",
          "type": "uint256"
        }
      ],
      "stateMutability": "pure",
      "type": "function"
    }
  ],
  "bytecode": "0x60c060405234801561000f575f5ffd5b5060405161536038038061536083398101604081905261002e91610b0c565b8787878787878787856001600160a01b0316637158da7c6040518163ffffffff1660e01b8152600401602060405180830381865afa158015610072573d5f5f3e3d5ffd5b505050506040513d601f19601f820116820180604052508101906100969190610bdb565b858561013b610136604080516080810182525f80825260208201819052918101829052606081019190915250604080516080810182527350157cffd6bbfa2dece204a89ec419c23ef5755d815273cd3ab3bd6bcc0c0bf3e27912a92043e817b1cf69602082015273a02cda4ca3a71d7c46997716f4283aa851c2881291810191909152731364cbbf2cdf5032c47d8226a6f6fbd2afcdacac606082015290565b610606565b60036101478382610c7a565b5060046101548282610c7a565b5050505f5f610168836106bf60201b60201c565b915091508161017857601261017a565b805b60ff1660a05250506001600160a01b03908116608052600160055587166101b45760405163e6c4247b60e01b815260040160405180910390fd5b6001600160a01b0386166101db5760405163e6c4247b60e01b815260040160405180910390fd5b600680546001600160a01b03808b166001600160a01b031992831617909255600780548a841690831617905560088054928916929091168217905560408051630691d8b960e31b8152905163348ec5c8916004808201926020929091908290030181865afa15801561024f573d5f5f3e3d5ffd5b505050506040513d601f19601f820116820180604052508101906102739190610bdb565b60095f6101000a8154816001600160a01b0302191690836001600160a01b03160217905550856001600160a01b0316633a0dad8e6040518163ffffffff1660e01b8152600401602060405180830381865afa1580156102d4573d5f5f3e3d5ffd5b505050506040513d601f19601f820116820180604052508101906102f89190610bdb565b600a5f6101000a8154816001600160a01b0302191690836001600160a01b03160217905550856001600160a01b031663d1717c7d6040518163ffffffff1660e01b8152600401602060405180830381865afa158015610359573d5f5f3e3d5ffd5b505050506040513d601f19601f8201168201806040525081019061037d9190610d34565b600a60146101000a81548160ff021916908360ff1602179055505f600d819055505f6014819055505f6015819055505f866001600160a01b0316637158da7c6040518163ffffffff1660e01b8152600401602060405180830381865afa1580156103e9573d5f5f3e3d5ffd5b505050506040513d601f19601f8201168201806040525081019061040d9190610bdb565b6001600160a01b031663313ce5676040518163ffffffff1660e01b8152600401602060405180830381865afa158015610448573d5f5f3e3d5ffd5b505050506040513d601f19601f8201168201806040525081019061046c9190610d34565b9050601260ff8216111561049357604051631c03248960e11b815260040160405180910390fd5b600460ff851611156104b8576040516317dbc4cb60e21b815260040160405180910390fd5b610bb861ffff841611156104df576040516317dbc4cb60e21b815260040160405180910390fd5b61012c61ffff83161115610506576040516317dbc4cb60e21b815260040160405180910390fd5b8360ff16600481111561051b5761051b610d4d565b6017805460ff1916600183600481111561053757610537610d4d565b02179055506017805461ffff84811663010000000264ffff00000019918716610100029190911664ffffffff00199092169190911717905561057b6012600a610e58565b601855610586610795565b50505050505050505061059e5f61086a60201b60201c565b601e556105ab6001610885565b601f55600a80546105cf916105ca91600160a01b900460ff1690610e58565b61086a565b602055601e546105de906108a0565b50601f546105eb906108a0565b506020546105f8906108a0565b505050505050505050610f89565b80515f5160206153405f395f51905f5280546001600160a01b03199081166001600160a01b039384161790915560208301515f5160206153205f395f51905f528054831691841691909117905560408301517f9e7b61f58c47dc699ac88507c4f5bb9f121c03808c5676a8078fe583e46497028054831691841691909117905560608301517f9e7b61f58c47dc699ac88507c4f5bb9f121c03808c5676a8078fe583e46497038054909216921691909117905550565b50565b60408051600481526024810182526020810180516001600160e01b031663313ce56760e01b17905290515f918291829182916001600160a01b0387169161070591610e66565b5f60405180830381855afa9150503d805f811461073d576040519150601f19603f3d011682016040523d82523d5f602084013e610742565b606091505b509150915081801561075657506020815110155b15610789575f818060200190518101906107709190610e7c565b905060ff8111610787576001969095509350505050565b505b505f9485945092505050565b60085460408051636c366a2760e11b815290515f926001600160a01b03169163d86cd44e91600480830192869291908290030181865afa1580156107db573d5f5f3e3d5ffd5b505050506040513d5f823e601f3d908101601f191682016040526108029190810190610e93565b90505f5b8151811015610866575f61083d83838151811061082557610825610f45565b6020026020010151600b6108af60201b90919060201c565b90508061085d57604051630ea075bf60e21b815260040160405180910390fd5b50600101610806565b5050565b5f61087f6001600160801b03831660066108ca565b92915050565b5f61087f82610894575f610897565b60015b60ff165f6108ca565b5f6108ab8230610961565b5090565b5f6108c3836001600160a01b0384166109d7565b9392505050565b5f5160206153205f395f51905f5254604051639cd07acb60e01b81525f915f5160206153405f395f51905f52916001600160a01b0390911690639cd07acb906109199087908790600401610f59565b6020604051808303815f875af1158015610935573d5f5f3e3d5ffd5b505050506040513d601f19601f820116820180604052508101906109599190610e7c565b949350505050565b5f5f5160206153405f395f51905f528054604051635ca4b5b160e11b8152600481018690526001600160a01b03858116602483015292935091169063b9496b62906044015f604051808303815f87803b1580156109bc575f5ffd5b505af11580156109ce573d5f5f3e3d5ffd5b50505050505050565b5f818152600183016020526040812054610a1c57508154600181810184555f84815260208082209093018490558454848252828601909352604090209190915561087f565b505f61087f565b6001600160a01b03811681146106bc575f5ffd5b634e487b7160e01b5f52604160045260245ffd5b604051601f8201601f191681016001600160401b0381118282101715610a7357610a73610a37565b604052919050565b5f82601f830112610a8a575f5ffd5b81516001600160401b03811115610aa357610aa3610a37565b610ab6601f8201601f1916602001610a4b565b818152846020838601011115610aca575f5ffd5b8160208501602083015e5f918101602001919091529392505050565b805160ff81168114610af6575f5ffd5b919050565b805161ffff81168114610af6575f5ffd5b5f5f5f5f5f5f5f5f610100898b031215610b24575f5ffd5b8851610b2f81610a23565b60208a0151909850610b4081610a23565b60408a0151909750610b5181610a23565b60608a01519096506001600160401b03811115610b6c575f5ffd5b610b788b828c01610a7b565b60808b015190965090506001600160401b03811115610b95575f5ffd5b610ba18b828c01610a7b565b945050610bb060a08a01610ae6565b9250610bbe60c08a01610afb565b9150610bcc60e08a01610afb565b90509295985092959890939650565b5f60208284031215610beb575f5ffd5b81516108c381610a23565b600181811c90821680610c0a57607f821691505b602082108103610c2857634e487b7160e01b5f52602260045260245ffd5b50919050565b601f821115610c7557805f5260205f20601f840160051c81016020851015610c535750805b601f840160051c820191505b81811015610c72575f8155600101610c5f565b50505b505050565b81516001600160401b03811115610c9357610c93610a37565b610ca781610ca18454610bf6565b84610c2e565b6020601f821160018114610cd9575f8315610cc25750848201515b5f19600385901b1c1916600184901b178455610c72565b5f84815260208120601f198516915b82811015610d085787850151825560209485019460019092019101610ce8565b5084821015610d2557868401515f19600387901b60f8161c191681555b50505050600190811b01905550565b5f60208284031215610d44575f5ffd5b6108c382610ae6565b634e487b7160e01b5f52602160045260245ffd5b634e487b7160e01b5f52601160045260245ffd5b6001815b6001841115610db057808504811115610d9457610d94610d61565b6001841615610da257908102905b60019390931c928002610d79565b935093915050565b5f82610dc65750600161087f565b81610dd257505f61087f565b8160018114610de85760028114610df257610e0e565b600191505061087f565b60ff841115610e0357610e03610d61565b50506001821b61087f565b5060208310610133831016604e8410600b8410161715610e31575081810a61087f565b610e3d5f198484610d75565b805f1904821115610e5057610e50610d61565b029392505050565b5f6108c360ff841683610db8565b5f82518060208501845e5f920191825250919050565b5f60208284031215610e8c575f5ffd5b5051919050565b5f60208284031215610ea3575f5ffd5b81516001600160401b03811115610eb8575f5ffd5b8201601f81018413610ec8575f5ffd5b80516001600160401b03811115610ee157610ee1610a37565b8060051b610ef160208201610a4b565b91825260208184018101929081019087841115610f0c575f5ffd5b6020850194505b83851015610f3a5784519250610f2883610a23565b82825260209485019490910190610f13565b979650505050505050565b634e487b7160e01b5f52603260045260245ffd5b8281526040810160548310610f7c57634e487b7160e01b5f52602160045260245ffd5b8260208301529392505050565b60805160a051614379610fa75f395f50505f6110e001526143795ff3fe608060405234801561000f575f5ffd5b50600436106102d7575f3560e01c80639531a485116101815780639531a4851461050657806395d89b411461050e57806397ee1144146105165780639908840c1461054c5780639adb298114610555578063a68a526714610568578063a9059cbb1461057b578063aa2f892d1461058e578063acdb3d51146105a1578063b3d7f6b914610352578063b460af94146105aa578063b6eba653146105b8578063ba087652146105aa578063bdca9165146105ce578063c0b568e1146105d7578063c392e58c146105ea578063c3f0d30e146105fd578063c63d75b61461046d578063c6e6f59214610610578063ce96cb7714610623578063d1717c7d14610636578063d3d034581461064a578063d853365f14610652578063d905777e1461065a578063da1f12ab1461066d578063dceb7e2814610675578063dd62ed3e14610682578063e51a85f614610695578063e66f53b7146106a8578063ef8b30f714610352578063f64c6f32146106bb575f5ffd5b806301e1d114146102db57806303d44854146102f257806306fdde031461030757806307a2d13a1461031c578063095ea7b31461032f5780630a28a477146103525780630a605c6d146103655780630c6a62dd1461036d5780630d1e6667146103805780630df571f7146103935780630fdca94f146103a657806310121fed146103b957806318160ddd146103c157806318c21949146103c95780631f52692b146103dc57806323b872dd146103fc5780632dae29671461040f578063313ce56714610417578063348ec5c81461042c57806338d52e0f1461043f5780633a0dad8e146104475780633ab6d27c1461045a578063402d267d1461046d5780634cdad506146103525780634e85b135146104815780636e553f651461049657806370a08231146104a45780637847ea53146104b757806379502c55146104d75780638f5c9465146104ea57806394bf804d14610496575b5f5ffd5b600d545b6040519081526020015b60405180910390f35b61030561030036600461397f565b6106c3565b005b61030f6107fd565b6040516102e99190613a1c565b6102df61032a366004613a2e565b61088d565b61034261033d366004613a60565b61089e565b60405190151581526020016102e9565b6102df610360366004613a2e565b6108b5565b6015546102df565b61030561037b366004613a88565b6108cf565b61030561038e366004613a2e565b61096a565b6103056103a1366004613aa1565b610bdb565b6103056103b4366004613afe565b610c56565b610305610cec565b6002546102df565b6103056103d7366004613a2e565b610f9b565b6006546103ef906001600160a01b031681565b6040516102e99190613b75565b61034261040a366004613b89565b61106a565b61030561108f565b60125b60405160ff90911681526020016102e9565b6009546103ef906001600160a01b031681565b6103ef6110de565b600a546103ef906001600160a01b031681565b610305610468366004613be0565b611102565b6102df61047b366004613a88565b505f1990565b6104896112cf565b6040516102e99190613c6b565b6102df610360366004613c7d565b6102df6104b2366004613a88565b6112e0565b6104c26301e1338081565b60405163ffffffff90911681526020016102e9565b6008546103ef906001600160a01b031681565b6104f361271081565b60405161ffff90911681526020016102e9565b6103056112fa565b61030f61153a565b60175460185461053c9160ff81169161ffff610100830481169263010000009004169084565b6040516102e99493929190613cbb565b6104f361012c81565b610305610563366004613d2d565b611549565b6102df610576366004613d74565b6116f5565b610342610589366004613a60565b611735565b61030561059c366004613a2e565b611742565b6102df60165481565b6102df610360366004613da2565b6105c061191b565b6040516102e9929190613ddb565b6104f3610bb881565b6103056105e5366004613a2e565b611a9c565b6103056105f8366004613e33565b611c56565b61030561060b366004613a2e565b6120c6565b6102df61061e366004613a2e565b6122ba565b6102df610631366004613a88565b6122c5565b600a5461041a90600160a01b900460ff1681565b6105c06122d8565b61041a601281565b6102df610668366004613a88565b61243c565b6127116102df565b6021546103429060ff1681565b6102df610690366004613e9d565b612446565b6102df6106a3366004613a2e565b612470565b6007546103ef906001600160a01b031681565b6014546102df565b6006546001600160a01b031633146106ee57604051631a27eac360e11b815260040160405180910390fd5b6106f8600b6124a9565b5f5b818110156107f8575f83838381811061071557610715613ec5565b905060200201602081019061072a9190613a88565b600854604051633af32abf60e01b81529192506001600160a01b031690633af32abf9061075b908490600401613b75565b602060405180830381865afa158015610776573d5f5f3e3d5ffd5b505050506040513d601f19601f8201168201806040525081019061079a9190613ee6565b6107c2578060405163751dff9760e11b81526004016107b99190613b75565b60405180910390fd5b5f6107ce600b836124b2565b9050806107ee57604051630ea075bf60e21b815260040160405180910390fd5b50506001016106fa565b505050565b60606003805461080c90613f01565b80601f016020809104026020016040519081016040528092919081815260200182805461083890613f01565b80156108835780601f1061085a57610100808354040283529160200191610883565b820191905f5260205f20905b81548152906001019060200180831161086657829003601f168201915b5050505050905090565b5f610898825f6124c6565b92915050565b5f336108ab818585612507565b5060019392505050565b5f60405163125ad87760e31b815260040160405180910390fd5b6006546001600160a01b031633146108fa57604051631a27eac360e11b815260040160405180910390fd5b6001600160a01b0381166109215760405163e6c4247b60e01b815260040160405180910390fd5b600780546001600160a01b0319166001600160a01b0383169081179091556040517f83293ffeebb677b167941693470018acf300605df266a35e9fdb66f24ff00fe0905f90a250565b610972612514565b60085f9054906101000a90046001600160a01b03166001600160a01b031663edcf9c1f6040518163ffffffff1660e01b8152600401602060405180830381865afa1580156109c2573d5f5f3e3d5ffd5b505050506040513d601f19601f820116820180604052508101906109e69190613ee6565b610a03576040516312aecd8160e01b815260040160405180910390fd5b805f03610a2c57610a126110de565b604051636b30633560e01b81526004016107b99190613b75565b5f610a356110de565b6001600160a01b03166370a08231336040518263ffffffff1660e01b8152600401610a609190613b75565b602060405180830381865afa158015610a7b573d5f5f3e3d5ffd5b505050506040513d601f19601f82011682018060405250810190610a9f9190613f39565b905080821115610ac257604051632ca2f52b60e11b815260040160405180910390fd5b5f610acb6110de565b600a546040516323b872dd60e01b81526001600160a01b03928316926323b872dd92610b01923392909116908890600401613f50565b6020604051808303815f875af1158015610b1d573d5f5f3e3d5ffd5b505050506040513d601f19601f82011682018060405250810190610b419190613ee6565b905080610b61576040516312171d8360e31b815260040160405180910390fd5b5f610b6d600e3361253e565b9150610b88905033610b7f8684613f88565b600e9190612564565b508360145f828254610b9a9190613f88565b9091555050604051849033907f55896b30a78fc55b78937f8014dde3f0035e9d37a4f6ac36841fb8b62f7e2b13905f90a3505050610bd86001600555565b50565b600a546001600160a01b03163314610c0657604051631a27eac360e11b815260040160405180910390fd5b8015610c52578060165f828254610c1d9190613f88565b9091555050601654604051829084907f8b8789cf9157fe7b016901e4ed3a5d0971caa8b7c031da0b25638ccf65841b2a905f90a45b5050565b610cc88585858080601f0160208091040260200160405190810160405280939291908181526020018383808284375f9201919091525050604080516020601f890181900481028201810190925287815292508791508690819084018382808284375f9201919091525061257992505050565b610cd483850185613f9b565b6021805460ff19169115159190911790555050505050565b600a546001600160a01b03163314610d1757604051631a27eac360e11b815260040160405180910390fd5b610d1f612514565b5f610d2a60116125e2565b90505f8163ffffffff166001600160401b03811115610d4b57610d4b613fb6565b604051908082528060200260200182016040528015610d74578160200160208202803683370190505b5090505f8263ffffffff166001600160401b03811115610d9657610d96613fb6565b604051908082528060200260200182016040528015610dbf578160200160208202803683370190505b5090505f5b8363ffffffff168163ffffffff161015610e59575f80610dee601163ffffffff808616906125ec16565b9150915081858463ffffffff1681518110610e0b57610e0b613ec5565b60200260200101906001600160a01b031690816001600160a01b03168152505080848463ffffffff1681518110610e4457610e44613ec5565b60209081029190910101525050600101610dc4565b505f60158190555b8363ffffffff168163ffffffff161015610f8b575f838263ffffffff1681518110610e8e57610e8e613ec5565b602002602001015190505f838363ffffffff1681518110610eb157610eb1613ec5565b60200260200101519050610ecf8260116125fa90919063ffffffff16565b505f610eda8261088d565b9050610ee6308361260e565b600a54604051634adfc2e760e01b81526001600160a01b0390911690634adfc2e790610f189086908590600401613fca565b5f604051808303815f87803b158015610f2f575f5ffd5b505af1158015610f41573d5f5f3e3d5ffd5b505050508181846001600160a01b03167ff279e6a1f5e320cca91135676d9cb6e44ca8a08c0b88342bcdb1144f6511b56860405160405180910390a4505050806001019050610e61565b50505050610f996001600555565b565b6006546001600160a01b03163314610fc657604051631a27eac360e11b815260040160405180910390fd5b805f03610fd557610a126110de565b601654811115610ff857604051632ca2f52b60e11b815260040160405180910390fd5b8060165f8282546110099190613fe3565b9091555050600a5460405163741fca4b60e01b8152600481018390526001600160a01b039091169063741fca4b906024015f604051808303815f87803b158015611051575f5ffd5b505af1158015611063573d5f5f3e3d5ffd5b5050505050565b5f33611077858285612642565b61108285858561268d565b60019150505b9392505050565b600a546001600160a01b031633146110ba57604051631a27eac360e11b815260040160405180910390fd5b5f6110cc60125b61032a90600a6140d9565b601854909150811115610bd857601855565b7f000000000000000000000000000000000000000000000000000000000000000090565b6006546001600160a01b0316331461112d57604051631a27eac360e11b815260040160405180910390fd5b60085f9054906101000a90046001600160a01b03166001600160a01b031663edcf9c1f6040518163ffffffff1660e01b8152600401602060405180830381865afa15801561117d573d5f5f3e3d5ffd5b505050506040513d601f19601f820116820180604052508101906111a19190613ee6565b6111be576040516312aecd8160e01b815260040160405180910390fd5b600460ff841611156111e3576040516317dbc4cb60e21b815260040160405180910390fd5b610bb861ffff8316111561120a576040516317dbc4cb60e21b815260040160405180910390fd5b61012c61ffff82161115611231576040516317dbc4cb60e21b815260040160405180910390fd5b8260ff16600481111561124657611246613ca7565b6017805460ff1916600183600481111561126257611262613ca7565b02179055506017805464ffffffff00191661010061ffff85811691820264ffff00000019169290921763010000009285169283021790925560405190919060ff8616907fd24f39e523bfa412fa391702710dc62e1c82d87a8e83228a37c42be1b4870f45905f90a4505050565b60606112db600b6126ea565b905090565b6001600160a01b03165f9081526020819052604090205490565b600a546001600160a01b0316331461132557604051631a27eac360e11b815260040160405180910390fd5b61132d612514565b5f611338600e6125e2565b90505f8163ffffffff166001600160401b0381111561135957611359613fb6565b604051908082528060200260200182016040528015611382578160200160208202803683370190505b5090505f8263ffffffff166001600160401b038111156113a4576113a4613fb6565b6040519080825280602002602001820160405280156113cd578160200160208202803683370190505b5090505f5b8363ffffffff168163ffffffff161015611467575f806113fc600e63ffffffff808616906125ec16565b9150915081858463ffffffff168151811061141957611419613ec5565b60200260200101906001600160a01b031690816001600160a01b03168152505080848463ffffffff168151811061145257611452613ec5565b602090810291909101015250506001016113d2565b505f60148190555b8363ffffffff168163ffffffff161015610f8b575f838263ffffffff168151811061149c5761149c613ec5565b602002602001015190505f838363ffffffff16815181106114bf576114bf613ec5565b602002602001015190506114dd82600e6125fa90919063ffffffff16565b505f6114e8826122ba565b90506114f483826126f6565b8082846001600160a01b03167f90890809c654f11d6e72a28fa60149770a0d11ec6c92319d6ceb2bb0a4ea1a1560405160405180910390a450505080600101905061146f565b60606004805461080c90613f01565b600a546001600160a01b0316331461157457604051631a27eac360e11b815260040160405180910390fd5b601a545f5b8161ffff168161ffff1610156115d257601e5460195f601a8461ffff16815481106115a6576115a6613ec5565b5f9182526020808320909101546001600160a01b03168352820192909252604001902055600101611579565b506115de601a5f61390f565b825f5b8161ffff168161ffff1610156116be5785858261ffff1681811061160757611607613ec5565b9050604002016020013560195f88888561ffff1681811061162a5761162a613ec5565b6116409260206040909202019081019150613a88565b6001600160a01b0316815260208101919091526040015f2055601a868661ffff841681811061167157611671613ec5565b6116879260206040909202019081019150613a88565b8154600180820184555f93845260209093200180546001600160a01b0319166001600160a01b0392909216919091179055016115e1565b50600d83905560405183907f5e1ff954b5e5257e9ee5d4cb07059e8f5e69b1aaaf9911e5d8d90a6894de9c21905f90a25050505050565b5f61172d611704846001613f88565b61170c61272a565b61171790600a6140d9565b6002546117249190613f88565b869190856127a6565b949350505050565b5f336108ab81858561268d565b60085f9054906101000a90046001600160a01b03166001600160a01b031663edcf9c1f6040518163ffffffff1660e01b8152600401602060405180830381865afa158015611792573d5f5f3e3d5ffd5b505050506040513d601f19601f820116820180604052508101906117b69190613ee6565b6117d3576040516312aecd8160e01b815260040160405180910390fd5b805f036117f55730604051636b30633560e01b81526004016107b99190613b75565b5f6117ff336112e0565b90508082111561182257604051632ca2f52b60e11b815260040160405180910390fd5b6040516323b872dd60e01b81525f9030906323b872dd9061184b90339084908890600401613f50565b6020604051808303815f875af1158015611867573d5f5f3e3d5ffd5b505050506040513d601f19601f8201168201806040525081019061188b9190613ee6565b9050806118ab576040516312171d8360e31b815260040160405180910390fd5b5f6118b760113361253e565b91506118d29050336118c98684613f88565b60119190612564565b508360155f8282546118e49190613f88565b9091555050604051849033907f222dc200773fe9b45015bf792e8fee37d651e3590c215806a5042404b6d741d2905f90a350505050565b601c54606090819061ffff81166001600160401b0381111561193f5761193f613fb6565b604051908082528060200260200182016040528015611968578160200160208202803683370190505b5092508061ffff166001600160401b0381111561198757611987613fb6565b6040519080825280602002602001820160405280156119b0578160200160208202803683370190505b5091505f5b8161ffff168161ffff161015611a9657601c8161ffff16815481106119dc576119dc613ec5565b905f5260205f20015f9054906101000a90046001600160a01b0316848261ffff1681518110611a0d57611a0d613ec5565b60200260200101906001600160a01b031690816001600160a01b031681525050601b5f601c8361ffff1681548110611a4757611a47613ec5565b5f9182526020808320909101546001600160a01b031683528201929092526040019020548351849061ffff8416908110611a8357611a83613ec5565b60209081029190910101526001016119b5565b50509091565b611aa4612514565b60085f9054906101000a90046001600160a01b03166001600160a01b031663edcf9c1f6040518163ffffffff1660e01b8152600401602060405180830381865afa158015611af4573d5f5f3e3d5ffd5b505050506040513d601f19601f82011682018060405250810190611b189190613ee6565b611b35576040516312aecd8160e01b815260040160405180910390fd5b805f03611b4457610a126110de565b5f611b50600e3361253e565b91505081811015611b7457604051632ca2f52b60e11b815260040160405180910390fd5b600a546040516351edffb160e01b81526001600160a01b03909116906351edffb190611ba69033908690600401613fca565b5f604051808303815f87803b158015611bbd575f5ffd5b505af1158015611bcf573d5f5f3e3d5ffd5b505050505f8282611be09190613fe3565b9050805f03611bfa57611bf4600e336125fa565b50611c08565b611c06600e3383612564565b505b8260145f828254611c199190613fe3565b9091555050604051839033907f96a9a6886cdf3047a125454218a23d3961fd3a78643123b248a9d106d0ac94fd905f90a35050610bd86001600555565b6007546001600160a01b03163314611c8157604051631a27eac360e11b815260040160405180910390fd5b611c89612514565b5f839003611caa57604051631121aa8d60e01b815260040160405180910390fd5b6021805460ff19169055601e5483905f61ffff83166001600160401b03811115611cd657611cd6613fb6565b604051908082528060200260200182016040528015611cff578160200160208202803683370190505b5090505f8361ffff166001600160401b03811115611d1f57611d1f613fb6565b604051908082528060200260200182016040528015611d48578160200160208202803683370190505b5090505f8461ffff166001600160401b03811115611d6857611d68613fb6565b604051908082528060200260200182016040528015611d91578160200160208202803683370190505b5090505f5b8561ffff168161ffff161015611f4a575f8a8a8361ffff16818110611dbd57611dbd613ec5565b611dd39260206040909202019081019150613a88565b905080838361ffff1681518110611dec57611dec613ec5565b60200260200101906001600160a01b031690816001600160a01b0316815250505f611e6b8c8c8561ffff16818110611e2657611e26613ec5565b905060400201602001358b8b8080601f0160208091040260200160405190810160405280939291908181526020018383808284375f920191909152506127e892505050565b9050611e76816127f5565b506001600160a01b0382165f908152601d602052604090205460ff1615611eb257816040516346bdabe160e01b81526004016107b99190613b75565b6001600160a01b0382165f908152601d60205260409020805460ff1916600117905585518290879061ffff8616908110611eee57611eee613ec5565b60200260200101906001600160a01b031690816001600160a01b03168152505080858461ffff1681518110611f2557611f25613ec5565b602002602001018181525050611f3b8782612804565b96505050806001019050611d96565b50611f558185612832565b5f5b601c5461ffff9081169082161015611fb257601e54601b5f601c8461ffff1681548110611f8657611f86613ec5565b5f9182526020808320909101546001600160a01b03168352820192909252604001902055600101611f57565b50611fbe601c5f61390f565b5f5b8561ffff168161ffff161015612086575f848261ffff1681518110611fe757611fe7613ec5565b60200260200101519050838261ffff168151811061200757612007613ec5565b6020908102919091018101516001600160a01b039092165f818152601b8352604080822094909455601c805460018181019092557f0e4562a10381dec21b205ed72637e6b1b523bdd0e4d4d50af5cd23dd4500a2110180546001600160a01b03191684179055918152601d909252919020805460ff1916905501611fc0565b5060405133907f2d47a742b8d7df7c1fc5a9a631b206b364e6cb2722490759f63bb3ab14b132e0905f90a250505050506120c06001600555565b50505050565b6120ce612514565b60085f9054906101000a90046001600160a01b03166001600160a01b031663edcf9c1f6040518163ffffffff1660e01b8152600401602060405180830381865afa15801561211e573d5f5f3e3d5ffd5b505050506040513d601f19601f820116820180604052508101906121429190613ee6565b61215f576040516312aecd8160e01b815260040160405180910390fd5b805f036121815730604051636b30633560e01b81526004016107b99190613b75565b5f61218d60113361253e565b915050818110156121b157604051632ca2f52b60e11b815260040160405180910390fd5b5f6121bc8383613fe3565b9050805f036121d6576121d06011336125fa565b506121e4565b6121e260113383612564565b505b8260155f8282546121f59190613fe3565b909155505060405163a9059cbb60e01b81525f90309063a9059cbb906122219033908890600401613fca565b6020604051808303815f875af115801561223d573d5f5f3e3d5ffd5b505050506040513d601f19601f820116820180604052508101906122619190613ee6565b905080612281576040516312171d8360e31b815260040160405180910390fd5b604051849033907f046d3e17087d323298991516e3fdec36fe1204d6bff7fb6e2b8eca77b80a22ad905f90a3505050610bd86001600555565b5f610898825f6128a4565b5f6108986122d2836112e0565b5f6124c6565b601a54606090819061ffff81166001600160401b038111156122fc576122fc613fb6565b604051908082528060200260200182016040528015612325578160200160208202803683370190505b5092508061ffff166001600160401b0381111561234457612344613fb6565b60405190808252806020026020018201604052801561236d578160200160208202803683370190505b5091505f5b8161ffff168161ffff161015611a96575f601a8261ffff168154811061239a5761239a613ec5565b905f5260205f20015f9054906101000a90046001600160a01b0316905080858361ffff16815181106123ce576123ce613ec5565b60200260200101906001600160a01b031690816001600160a01b03168152505060195f826001600160a01b03166001600160a01b031681526020019081526020015f2054848361ffff168151811061242857612428613ec5565b602090810291909101015250600101612372565b5f610898826112e0565b6001600160a01b039182165f90815260016020908152604080832093909416825291909152205490565b5f5f61247b836128d6565b90505f6124888285613fe3565b90505f612494826129a0565b90506124a08184613f88565b95945050505050565b610bd881612a5d565b5f611088836001600160a01b038416612ab6565b5f6110886124d3600d5490565b6124de906001613f88565b6124e661272a565b6124f190600a6140d9565b6002546124fe9190613f88565b859190856127a6565b6107f88383836001612afd565b60026005540361253757604051633ee5aeb560e01b815260040160405180910390fd5b6002600555565b5f808080612555866001600160a01b038716612bcf565b909450925050505b9250929050565b5f61172d846001600160a01b03851684612c07565b5f61258384612c23565b90505f612591828585612cbf565b9050806125b15760405163cf6c44e960e01b815260040160405180910390fd5b60405185907f1af0453083661051f6e56e5c070792320652e612154bf9af8637bb1e7655b99d905f90a25050505050565b5f61089882612d8c565b5f8080806125558686612d96565b5f611088836001600160a01b038416612dbf565b6001600160a01b038216612637575f604051634b637e8f60e11b81526004016107b99190613b75565b610c52825f83612ddb565b5f61264d8484612446565b90505f198110156120c0578181101561267f57828183604051637dc7a0d960e11b81526004016107b9939291906140e7565b6120c084848484035f612afd565b6001600160a01b0383166126b6575f604051634b637e8f60e11b81526004016107b99190613b75565b6001600160a01b0382166126df575f60405163ec442f0560e01b81526004016107b99190613b75565b6107f8838383612ddb565b60605f61108883612eee565b6001600160a01b03821661271f575f60405163ec442f0560e01b81526004016107b99190613b75565b610c525f8383612ddb565b5f5f6127346110de565b6001600160a01b031663313ce5676040518163ffffffff1660e01b8152600401602060405180830381865afa15801561276f573d5f5f3e3d5ffd5b505050506040513d601f19601f820116820180604052508101906127939190614108565b90506127a0816012614123565b91505090565b5f6127d36127b383612f47565b80156127ce57505f84806127c9576127c961413c565b868809115b151590565b6127de868686612f73565b6124a09190613f88565b5f61108883836006613023565b5f612800823061310d565b5090565b5f82612816576128135f61317a565b92505b81612827576128245f61317a565b91505b61108883835f61318f565b61283b82613225565b5f6128488260205461329d565b9050612853816127f5565b506040805160018082528183019092525f916020808301908036833701905050905081815f8151811061288857612888613ec5565b602090810291909101015261106381630fdca94f60e01b6132cb565b5f6110886128b061272a565b6128bb90600a6140d9565b6002546128c89190613f88565b600d546124fe906001613f88565b6017545f906301000000900461ffff1681036128f357505f919050565b6017545f90612910906301000000900461ffff1684612710612f73565b905061108860095f9054906101000a90046001600160a01b03166001600160a01b0316634ff0876a6040518163ffffffff1660e01b8152600401602060405180830381865afa158015612965573d5f5f3e3d5ffd5b505050506040513d601f19601f820116820180604052508101906129899190614150565b829063ffffffff908116906301e1338090612f7316565b6017545f90610100900461ffff1681036129bb57505f919050565b5f6129ff6129ca846001613f88565b6129d261272a565b6129dd90600a6140d9565b6002546129ea9190613f88565b5f6129f76012600a6140d9565b9291906127a6565b6017549091505f908190612a159060ff166132d7565b9150915081831015612a2b57505f949350505050565b6017545f90612a4490610100900461ffff168584612f73565b9050612a538187612710612f73565b9695505050505050565b5f612a66825490565b90505f5b81811015612aaf57826001015f845f018381548110612a8b57612a8b613ec5565b905f5260205f20015481526020019081526020015f205f9055806001019050612a6a565b50505f9055565b5f612ac183836133c1565b612af657508154600181810184555f848152602080822090930184905584548482528286019093526040902091909155610898565b505f610898565b6001600160a01b038416612b26575f60405163e602df0560e01b81526004016107b99190613b75565b6001600160a01b038316612b4f575f604051634a1406b160e11b81526004016107b99190613b75565b6001600160a01b038085165f90815260016020908152604080832093871683529290522082905580156120c057826001600160a01b0316846001600160a01b03167f8c5be1e5ebec7d5bd14f71427d1e84f3dd0314c0f7b2291e5b200ac8c7c3b92584604051612bc191815260200190565b60405180910390a350505050565b5f818152600283016020526040812054819080612bfc57612bf085856133d8565b92505f915061255d9050565b60019250905061255d565b5f828152600284016020526040812082905561172d84846133e3565b60605f612c2e6133ee565b5f84815260018201602052604081205491925003612c5f5760405163d66ca67560e01b815260040160405180910390fd5b5f83815260018201602090815260409182902080548351818402810184019094528084529091830182828015612cb257602002820191905f5260205f20905b815481526020019060010190808311612c9e575b5050505050915050919050565b5f5f83516020612ccf9190613f88565b612cda906020613f88565b90505f8482604051602001612cf0929190614173565b60405160208183030381529060405290505f612d0a613412565b60038101546040516378542ead60e01b81529192506001600160a01b0316906378542ead90612d41908a9086908a906004016141bd565b6020604051808303815f875af1158015612d5d573d5f5f3e3d5ffd5b505050506040513d601f19601f82011682018060405250810190612d819190613ee6565b979650505050505050565b5f61089882613436565b5f8080612da3858561343f565b5f81815260029690960160205260409095205494959350505050565b5f8181526002830160205260408120819055611088838361344a565b6001600160a01b038316612e05578060025f828254612dfa9190613f88565b90915550612e629050565b6001600160a01b0383165f9081526020819052604090205481811015612e445783818360405163391434e360e21b81526004016107b9939291906140e7565b6001600160a01b0384165f9081526020819052604090209082900390555b6001600160a01b038216612e7e57600280548290039055612e9c565b6001600160a01b0382165f9081526020819052604090208054820190555b816001600160a01b0316836001600160a01b03167fddf252ad1be2c89b69c2b068fc378daa952ba7f163c4a11628f55a4df523b3ef83604051612ee191815260200190565b60405180910390a3505050565b6060815f01805480602002602001604051908101604052809291908181526020018280548015612f3b57602002820191905f5260205f20905b815481526020019060010190808311612f27575b50505050509050919050565b5f6002826003811115612f5c57612f5c613ca7565b612f6691906141f5565b60ff166001149050919050565b5f5f5f612f808686613455565b91509150815f03612fa457838181612f9a57612f9a61413c565b0492505050611088565b818411612fbb57612fbb6003851502601118613471565b5f848688095f868103871696879004966002600389028118808a02820302808a02820302808a02820302808a02820302808a02820302808a02909103029181900381900460010185841190960395909502919093039390930492909217029150509392505050565b5f5f61302d613412565b600181015460405163196d0b9b60e01b81529192506001600160a01b03169063196d0b9b90613066908890339089908990600401614236565b6020604051808303815f875af1158015613082573d5f5f3e3d5ffd5b505050506040513d601f19601f820116820180604052508101906130a69190613f39565b8154604051630f8e573b60e21b81529193506001600160a01b031690633e395cec906130d8908590339060040161426e565b5f604051808303815f87803b1580156130ef575f5ffd5b505af1158015613101573d5f5f3e3d5ffd5b50505050509392505050565b5f613116613412565b8054604051635ca4b5b160e11b81529192506001600160a01b03169063b9496b6290613148908690869060040161426e565b5f604051808303815f87803b15801561315f575f5ffd5b505af1158015613171573d5f5f3e3d5ffd5b50505050505050565b5f610898826001600160801b03166006613482565b5f5f82156131a25750600160f81b6131a5565b505f5b5f6131ae613412565b600181015460405163022f65e760e31b81529192506001600160a01b03169063117b2f38906131e590899089908790600401614285565b6020604051808303815f875af1158015613201573d5f5f3e3d5ffd5b505050506040513d601f19601f82011682018060405250810190612a539190613f39565b5f5b8151811015610c525761325d82828151811061324557613245613ec5565b6020026020010151600b61350190919063ffffffff16565b6132955781818151811061327357613273613ec5565b602002602001015160405163751dff9760e11b81526004016107b99190613b75565b600101613227565b5f826132af576132ac5f61317a565b92505b816132c0576132bd5f61317a565b91505b61108883835f613515565b5f61108883835f61356b565b5f80806132e460126110c1565b90505f8460048111156132f9576132f9613ca7565b03613309578092508291506133bb565b600384600481111561331d5761331d613ca7565b0361332f5760185492508291506133bb565b600184600481111561334357613343613ca7565b0361335b576133518161366c565b92508091506133bb565b600284600481111561336f5761336f613ca7565b036133875761337d8161366c565b92508291506133bb565b600484600481111561339b5761339b613ca7565b036133bb576018546133b5906133b08361366c565b613792565b92508291505b50915091565b5f9081526001919091016020526040902054151590565b5f61108883836137a1565b5f6110888383612ab6565b7f878245876662ba28a480c5ea71726db859fb50222b0a3d7cbbc21cfa336faf0090565b7f9e7b61f58c47dc699ac88507c4f5bb9f121c03808c5676a8078fe583e464970090565b5f610898825490565b5f61108883836137ac565b5f61108883836137d2565b5f805f1983850993909202808410938190039390930393915050565b634e487b715f52806020526024601cfd5b5f5f61348c613412565b6001810154604051639cd07acb60e01b81529192506001600160a01b031690639cd07acb906134c190879087906004016142a5565b6020604051808303815f875af11580156134dd573d5f5f3e3d5ffd5b505050506040513d601f19601f8201168201806040525081019061172d9190613f39565b5f611088836001600160a01b0384166133c1565b5f5f82156135285750600160f81b61352b565b505f5b5f613534613412565b600181015460405163f77f3f1d60e01b81529192506001600160a01b03169063f77f3f1d906131e590899089908790600401614285565b5f5f6135756133ee565b8054925090505f613584613412565b8054604051637d6e912360e11b81529192506001600160a01b03169063fadd2246906135b49089906004016142b9565b5f604051808303815f87803b1580156135cb575f5ffd5b505af11580156135dd573d5f5f3e3d5ffd5b5050506002820154604051633263b83b60e01b81526001600160a01b039091169150633263b83b9086906136199087908b908b906004016142cb565b5f604051808303818588803b158015613630575f5ffd5b505af1158015613642573d5f5f3e3d5ffd5b505050505061365183876138b5565b8154825f61365e836142fc565b919050555050509392505050565b5f5f60085f9054906101000a90046001600160a01b03166001600160a01b031663f3cc69936040518163ffffffff1660e01b8152600401602060405180830381865afa1580156136be573d5f5f3e3d5ffd5b505050506040513d601f19601f820116820180604052508101906136e29190614314565b61ffff1690505f61377760095f9054906101000a90046001600160a01b03166001600160a01b0316634ff0876a6040518163ffffffff1660e01b8152600401602060405180830381865afa15801561373c573d5f5f3e3d5ffd5b505050506040513d601f19601f820116820180604052508101906137609190614150565b839063ffffffff908116906301e1338090612f7316565b905061172d61378882612710613f88565b8590612710612f73565b5f828218828411028218611088565b5f61108883836133c1565b5f825f0182815481106137c1576137c1613ec5565b905f5260205f200154905092915050565b5f81815260018301602052604081205480156138ac575f6137f4600183613fe3565b85549091505f9061380790600190613fe3565b9050808214613866575f865f01828154811061382557613825613ec5565b905f5260205f200154905080875f01848154811061384557613845613ec5565b5f918252602080832090910192909255918252600188019052604090208390555b85548690806138775761387761432f565b600190038181905f5260205f20015f90559055856001015f8681526020019081526020015f205f905560019350505050610898565b5f915050610898565b5f6138be6133ee565b5f848152600182016020526040902054909150156138ef57604051633f06d22b60e01b815260040160405180910390fd5b5f838152600182016020908152604090912083516120c09285019061392a565b5080545f8255905f5260205f2090810190610bd8919061396b565b828054828255905f5260205f20908101928215613963579160200282015b82811115613963578251825591602001919060010190613948565b506128009291505b5b80821115612800575f815560010161396c565b5f5f60208385031215613990575f5ffd5b82356001600160401b038111156139a5575f5ffd5b8301601f810185136139b5575f5ffd5b80356001600160401b038111156139ca575f5ffd5b8560208260051b84010111156139de575f5ffd5b6020919091019590945092505050565b5f81518084528060208401602086015e5f602082860101526020601f19601f83011685010191505092915050565b602081525f61108860208301846139ee565b5f60208284031215613a3e575f5ffd5b5035919050565b80356001600160a01b0381168114613a5b575f5ffd5b919050565b5f5f60408385031215613a71575f5ffd5b613a7a83613a45565b946020939093013593505050565b5f60208284031215613a98575f5ffd5b61108882613a45565b5f5f60408385031215613ab2575f5ffd5b50508035926020909101359150565b5f5f83601f840112613ad1575f5ffd5b5081356001600160401b03811115613ae7575f5ffd5b60208301915083602082850101111561255d575f5ffd5b5f5f5f5f5f60608688031215613b12575f5ffd5b8535945060208601356001600160401b03811115613b2e575f5ffd5b613b3a88828901613ac1565b90955093505060408601356001600160401b03811115613b58575f5ffd5b613b6488828901613ac1565b969995985093965092949392505050565b6001600160a01b0391909116815260200190565b5f5f5f60608486031215613b9b575f5ffd5b613ba484613a45565b9250613bb260208501613a45565b929592945050506040919091013590565b60ff81168114610bd8575f5ffd5b61ffff81168114610bd8575f5ffd5b5f5f5f60608486031215613bf2575f5ffd5b8335613bfd81613bc3565b92506020840135613c0d81613bd1565b91506040840135613c1d81613bd1565b809150509250925092565b5f8151808452602084019350602083015f5b82811015613c615781516001600160a01b0316865260209586019590910190600101613c3a565b5093949350505050565b602081525f6110886020830184613c28565b5f5f60408385031215613c8e575f5ffd5b82359150613c9e60208401613a45565b90509250929050565b634e487b7160e01b5f52602160045260245ffd5b6080810160058610613ccf57613ccf613ca7565b94815261ffff93841660208201529190921660408201526060015290565b5f5f83601f840112613cfd575f5ffd5b5081356001600160401b03811115613d13575f5ffd5b6020830191508360208260061b850101111561255d575f5ffd5b5f5f5f60408486031215613d3f575f5ffd5b83356001600160401b03811115613d54575f5ffd5b613d6086828701613ced565b909790965060209590950135949350505050565b5f5f5f60608486031215613d86575f5ffd5b8335925060208401359150604084013560048110613c1d575f5ffd5b5f5f5f60608486031215613db4575f5ffd5b83359250613dc460208501613a45565b9150613dd260408501613a45565b90509250925092565b604081525f613ded6040830185613c28565b82810360208401528084518083526020830191506020860192505f5b81811015613e27578351835260209384019390920191600101613e09565b50909695505050505050565b5f5f5f5f60408587031215613e46575f5ffd5b84356001600160401b03811115613e5b575f5ffd5b613e6787828801613ced565b90955093505060208501356001600160401b03811115613e85575f5ffd5b613e9187828801613ac1565b95989497509550505050565b5f5f60408385031215613eae575f5ffd5b613eb783613a45565b9150613c9e60208401613a45565b634e487b7160e01b5f52603260045260245ffd5b8015158114610bd8575f5ffd5b5f60208284031215613ef6575f5ffd5b815161108881613ed9565b600181811c90821680613f1557607f821691505b602082108103613f3357634e487b7160e01b5f52602260045260245ffd5b50919050565b5f60208284031215613f49575f5ffd5b5051919050565b6001600160a01b039384168152919092166020820152604081019190915260600190565b634e487b7160e01b5f52601160045260245ffd5b8082018082111561089857610898613f74565b5f60208284031215613fab575f5ffd5b813561108881613ed9565b634e487b7160e01b5f52604160045260245ffd5b6001600160a01b03929092168252602082015260400190565b8181038181111561089857610898613f74565b6001815b60018411156140315780850481111561401557614015613f74565b600184161561402357908102905b60019390931c928002613ffa565b935093915050565b5f8261404757506001610898565b8161405357505f610898565b816001811461406957600281146140735761408f565b6001915050610898565b60ff84111561408457614084613f74565b50506001821b610898565b5060208310610133831016604e8410600b84101617156140b2575081810a610898565b6140be5f198484613ff6565b805f19048211156140d1576140d1613f74565b029392505050565b5f61108860ff841683614039565b6001600160a01b039390931683526020830191909152604082015260600190565b5f60208284031215614118575f5ffd5b815161108881613bc3565b60ff828116828216039081111561089857610898613f74565b634e487b7160e01b5f52601260045260245ffd5b5f60208284031215614160575f5ffd5b815163ffffffff81168114611088575f5ffd5b5f83518060208601845e9190910191825250602001919050565b5f8151808452602084019350602083015f5b82811015613c6157815186526020958601959091019060010161419f565b606081525f6141cf606083018661418d565b82810360208401526141e181866139ee565b90508281036040840152612a5381856139ee565b5f60ff83168061421357634e487b7160e01b5f52601260045260245ffd5b8060ff84160691505092915050565b6054811061423257614232613ca7565b9052565b8481526001600160a01b03841660208201526080604082018190525f9061425f908301856139ee565b90506124a06060830184614222565b9182526001600160a01b0316602082015260400190565b92835260208301919091526001600160f81b031916604082015260600190565b828152604081016110886020830184614222565b602081525f611088602083018461418d565b838152606060208201525f6142e3606083018561418d565b905063ffffffff60e01b83166040830152949350505050565b5f6001820161430d5761430d613f74565b5060010190565b5f60208284031215614324575f5ffd5b815161108881613bd1565b634e487b7160e01b5f52603160045260245ffdfea2646970667358221220ab6ec3e1696641fd29b8d9dc58e17f573d56ed7f75fca5b99833878d8049c2d264736f6c634300081c00339e7b61f58c47dc699ac88507c4f5bb9f121c03808c5676a8078fe583e46497019e7b61f58c47dc699ac88507c4f5bb9f121c03808c5676a8078fe583e4649700",
  "linkReferences": {},
  "deployedLinkReferences": {}
}