{
  "_format": "hh-sol-artifact-1",
  "contractName": "TransparentVaultFactory",
  "sourceName": "contracts/factories/TransparentVaultFactory.sol",
  "abi": [
    {
      "inputs": [
        {
          "internalType": "address",
          "name": "configAddress",
          "type": "address"
        }
      ],
      "stateMutability": "nonpayable",
      "type": "constructor"
    },
    {
      "inputs": [],
      "name": "SystemNotIdle",
      "type": "error"
    },
    {
      "inputs": [],
      "name": "ZeroAddress",
      "type": "error"
    },
    {
      "anonymous": false,
      "inputs": [
        {
          "indexed": true,
          "internalType": "address",
          "name": "vault",
          "type": "address"
        },
        {
          "indexed": true,
          "internalType": "address",
          "name": "vaultOwner",
          "type": "address"
        },
        {
          "indexed": true,
          "internalType": "address",
          "name": "curator",
          "type": "address"
        },
        {
          "indexed": false,
          "internalType": "string",
          "name": "name",
          "type": "string"
        },
        {
          "indexed": false,
          "internalType": "string",
          "name": "symbol",
          "type": "string"
        },
        {
          "indexed": false,
          "internalType": "uint8",
          "name": "feeType",
          "type": "uint8"
        },
        {
          "indexed": false,
          "internalType": "uint16",
          "name": "performanceFee",
          "type": "uint16"
        },
        {
          "indexed": false,
          "internalType": "uint16",
          "name": "managementFee",
          "type": "uint16"
        },
        {
          "indexed": false,
          "internalType": "enum EventsLib.VaultType",
          "name": "vaultType",
          "type": "uint8"
        }
      ],
      "name": "OrionVaultCreated",
      "type": "event"
    },
    {
      "inputs": [],
      "name": "config",
      "outputs": [
        {
          "internalType": "contract IOrionConfig",
          "name": "",
          "type": "address"
        }
      ],
      "stateMutability": "view",
      "type": "function"
    },
    {
      "inputs": [
        {
          "internalType": "address",
          "name": "curator",
          "type": "address"
        },
        {
          "internalType": "string",
          "name": "name",
          "type": "string"
        },
        {
          "internalType": "string",
          "name": "symbol",
          "type": "string"
        },
        {
          "internalType": "uint8",
          "name": "feeType",
          "type": "uint8"
        },
        {
          "internalType": "uint16",
          "name": "performanceFee",
          "type": "uint16"
        },
        {
          "internalType": "uint16",
          "name": "managementFee",
          "type": "uint16"
        }
      ],
      "name": "createVault",
      "outputs": [
        {
          "internalType": "address",
          "name": "vault",
          "type": "address"
        }
      ],
      "stateMutability": "nonpayable",
      "type": "function"
    }
  ],
  "bytecode": "0x6080604052348015600e575f5ffd5b506040516147f53803806147f5833981016040819052602b916074565b6001600160a01b03811660515760405163d92e233d60e01b815260040160405180910390fd5b5f80546001600160a01b0319166001600160a01b0392909216919091179055609f565b5f602082840312156083575f5ffd5b81516001600160a01b03811681146098575f5ffd5b9392505050565b614749806100ac5f395ff3fe608060405234801561000f575f5ffd5b5060043610610034575f3560e01c8063341624941461003857806379502c5514610067575b5f5ffd5b61004b6100463660046102e1565b610079565b6040516001600160a01b03909116815260200160405180910390f35b5f5461004b906001600160a01b031681565b5f33806100995760405163d92e233d60e01b815260040160405180910390fd5b6001600160a01b038a166100c05760405163d92e233d60e01b815260040160405180910390fd5b5f5f9054906101000a90046001600160a01b03166001600160a01b031663edcf9c1f6040518163ffffffff1660e01b8152600401602060405180830381865afa15801561010f573d5f5f3e3d5ffd5b505050506040513d601f19601f8201168201806040525081019061013391906103a2565b610150576040516312aecd8160e01b815260040160405180910390fd5b5f818b5f5f9054906101000a90046001600160a01b03168c8c8c8c8c8c8c60405161017a9061027a565b61018d9a999897969594939291906103f0565b604051809103905ff0801580156101a6573d5f5f3e3d5ffd5b505f8054604051631e832de160e21b81529295508593506001600160a01b031691637a0cb784916101dc91859190600401610483565b5f604051808303815f87803b1580156101f3575f5ffd5b505af1158015610205573d5f5f3e3d5ffd5b505050508a6001600160a01b0316826001600160a01b0316846001600160a01b03167f91700e2f05ab5287673189803ecbe9609340db98196ee954ac9865daf4308d2d8d8d8d8d8d8d8d5f6040516102649897969594939291906104a0565b60405180910390a4505098975050505050505050565b6142138061050183390190565b5f5f83601f840112610297575f5ffd5b5081356001600160401b038111156102ad575f5ffd5b6020830191508360208285010111156102c4575f5ffd5b9250929050565b803561ffff811681146102dc575f5ffd5b919050565b5f5f5f5f5f5f5f5f60c0898b0312156102f8575f5ffd5b88356001600160a01b038116811461030e575f5ffd5b975060208901356001600160401b03811115610328575f5ffd5b6103348b828c01610287565b90985096505060408901356001600160401b03811115610352575f5ffd5b61035e8b828c01610287565b909650945050606089013560ff81168114610377575f5ffd5b925061038560808a016102cb565b915061039360a08a016102cb565b90509295985092959890939650565b5f602082840312156103b2575f5ffd5b815180151581146103c1575f5ffd5b9392505050565b81835281816020850137505f828201602090810191909152601f909101601f19169091010190565b6001600160a01b038b811682528a8116602083015289166040820152610100606082018190525f90610425908301898b6103c8565b828103608084015261043881888a6103c8565b60ff9690961660a0840152505061ffff92831660c0820152911660e090910152979650505050505050565b6002811061047f57634e487b7160e01b5f52602160045260245ffd5b9052565b6001600160a01b0383168152604081016103c16020830184610463565b60c081525f6104b360c083018a8c6103c8565b82810360208401526104c681898b6103c8565b91505060ff8616604083015261ffff8516606083015261ffff841660808301526104f360a0830184610463565b999850505050505050505056fe60c060405234801561000f575f5ffd5b5060405161421338038061421383398101604081905261002e916107f9565b8787878787878787856001600160a01b0316637158da7c6040518163ffffffff1660e01b8152600401602060405180830381865afa158015610072573d5f5f3e3d5ffd5b505050506040513d601f19601f8201168201806040525081019061009691906108c8565b858560036100a4838261096e565b5060046100b1828261096e565b5050505f5f6100c5836104f960201b60201c565b91509150816100d55760126100d7565b805b60ff1660a05250506001600160a01b03908116608052600160055587166101115760405163e6c4247b60e01b815260040160405180910390fd5b6001600160a01b0386166101385760405163e6c4247b60e01b815260040160405180910390fd5b600680546001600160a01b03808b166001600160a01b031992831617909255600780548a841690831617905560088054928916929091168217905560408051630691d8b960e31b8152905163348ec5c8916004808201926020929091908290030181865afa1580156101ac573d5f5f3e3d5ffd5b505050506040513d601f19601f820116820180604052508101906101d091906108c8565b60095f6101000a8154816001600160a01b0302191690836001600160a01b03160217905550856001600160a01b0316633a0dad8e6040518163ffffffff1660e01b8152600401602060405180830381865afa158015610231573d5f5f3e3d5ffd5b505050506040513d601f19601f8201168201806040525081019061025591906108c8565b600a5f6101000a8154816001600160a01b0302191690836001600160a01b03160217905550856001600160a01b031663d1717c7d6040518163ffffffff1660e01b8152600401602060405180830381865afa1580156102b6573d5f5f3e3d5ffd5b505050506040513d601f19601f820116820180604052508101906102da9190610a28565b600a60146101000a81548160ff021916908360ff1602179055505f600d819055505f6014819055505f6015819055505f866001600160a01b0316637158da7c6040518163ffffffff1660e01b8152600401602060405180830381865afa158015610346573d5f5f3e3d5ffd5b505050506040513d601f19601f8201168201806040525081019061036a91906108c8565b6001600160a01b031663313ce5676040518163ffffffff1660e01b8152600401602060405180830381865afa1580156103a5573d5f5f3e3d5ffd5b505050506040513d601f19601f820116820180604052508101906103c99190610a28565b9050601260ff821611156103f057604051631c03248960e11b815260040160405180910390fd5b600460ff85161115610415576040516317dbc4cb60e21b815260040160405180910390fd5b610bb861ffff8416111561043c576040516317dbc4cb60e21b815260040160405180910390fd5b61012c61ffff83161115610463576040516317dbc4cb60e21b815260040160405180910390fd5b8360ff16600481111561047857610478610a41565b6017805460ff1916600183600481111561049457610494610a41565b02179055506017805461ffff84811663010000000264ffff00000019918716610100029190911664ffffffff0019909216919091171790556104d86012600a610b4c565b6018556104e36105cf565b5050505050505050505050505050505050610c4d565b60408051600481526024810182526020810180516001600160e01b031663313ce56760e01b17905290515f918291829182916001600160a01b0387169161053f91610b5a565b5f60405180830381855afa9150503d805f8114610577576040519150601f19603f3d011682016040523d82523d5f602084013e61057c565b606091505b509150915081801561059057506020815110155b156105c3575f818060200190518101906105aa9190610b70565b905060ff81116105c1576001969095509350505050565b505b505f9485945092505050565b60085460408051636c366a2760e11b815290515f926001600160a01b03169163d86cd44e91600480830192869291908290030181865afa158015610615573d5f5f3e3d5ffd5b505050506040513d5f823e601f3d908101601f1916820160405261063c9190810190610b87565b90505f5b81518110156106a0575f61067783838151811061065f5761065f610c39565b6020026020010151600b6106a460201b90919060201c565b90508061069757604051630ea075bf60e21b815260040160405180910390fd5b50600101610640565b5050565b5f6106b8836001600160a01b0384166106c1565b90505b92915050565b5f81815260018301602052604081205461070657508154600181810184555f8481526020808220909301849055845484825282860190935260409020919091556106bb565b505f6106bb565b6001600160a01b0381168114610721575f5ffd5b50565b634e487b7160e01b5f52604160045260245ffd5b604051601f8201601f191681016001600160401b038111828210171561076057610760610724565b604052919050565b5f82601f830112610777575f5ffd5b81516001600160401b0381111561079057610790610724565b6107a3601f8201601f1916602001610738565b8181528460208386010111156107b7575f5ffd5b8160208501602083015e5f918101602001919091529392505050565b805160ff811681146107e3575f5ffd5b919050565b805161ffff811681146107e3575f5ffd5b5f5f5f5f5f5f5f5f610100898b031215610811575f5ffd5b885161081c8161070d565b60208a015190985061082d8161070d565b60408a015190975061083e8161070d565b60608a01519096506001600160401b03811115610859575f5ffd5b6108658b828c01610768565b60808b015190965090506001600160401b03811115610882575f5ffd5b61088e8b828c01610768565b94505061089d60a08a016107d3565b92506108ab60c08a016107e8565b91506108b960e08a016107e8565b90509295985092959890939650565b5f602082840312156108d8575f5ffd5b81516108e38161070d565b9392505050565b600181811c908216806108fe57607f821691505b60208210810361091c57634e487b7160e01b5f52602260045260245ffd5b50919050565b601f82111561096957805f5260205f20601f840160051c810160208510156109475750805b601f840160051c820191505b81811015610966575f8155600101610953565b50505b505050565b81516001600160401b0381111561098757610987610724565b61099b8161099584546108ea565b84610922565b6020601f8211600181146109cd575f83156109b65750848201515b5f19600385901b1c1916600184901b178455610966565b5f84815260208120601f198516915b828110156109fc57878501518255602094850194600190920191016109dc565b5084821015610a1957868401515f19600387901b60f8161c191681555b50505050600190811b01905550565b5f60208284031215610a38575f5ffd5b6106b8826107d3565b634e487b7160e01b5f52602160045260245ffd5b634e487b7160e01b5f52601160045260245ffd5b6001815b6001841115610aa457808504811115610a8857610a88610a55565b6001841615610a9657908102905b60019390931c928002610a6d565b935093915050565b5f82610aba575060016106bb565b81610ac657505f6106bb565b8160018114610adc5760028114610ae657610b02565b60019150506106bb565b60ff841115610af757610af7610a55565b50506001821b6106bb565b5060208310610133831016604e8410600b8410161715610b25575081810a6106bb565b610b315f198484610a69565b805f1904821115610b4457610b44610a55565b029392505050565b5f6106b860ff841683610aac565b5f82518060208501845e5f920191825250919050565b5f60208284031215610b80575f5ffd5b5051919050565b5f60208284031215610b97575f5ffd5b81516001600160401b03811115610bac575f5ffd5b8201601f81018413610bbc575f5ffd5b80516001600160401b03811115610bd557610bd5610724565b8060051b610be560208201610738565b91825260208184018101929081019087841115610c00575f5ffd5b6020850194505b83851015610c2e5784519250610c1c8361070d565b82825260209485019490910190610c07565b979650505050505050565b634e487b7160e01b5f52603260045260245ffd5b60805160a0516135a8610c6b5f395f50505f6110fb01526135a85ff3fe608060405234801561000f575f5ffd5b50600436106102a7575f3560e01c806301e1d114146102ab57806303d44854146102c257806306fdde03146102d757806307a2d13a146102ec578063095ea7b3146102ff5780630a28a477146103225780630a605c6d146103355780630c6a62dd1461033d5780630d1e6667146103505780630df571f71461036357806310121fed14610376578063105444941461037e57806318160ddd1461039157806318c21949146103995780631f52692b146103ac57806323b872dd146103cc5780632dae2967146103df578063313ce567146103e7578063348ec5c8146103fc57806338d52e0f1461040f5780633a0dad8e146104175780633ab6d27c1461042a578063402d267d1461043d5780634cdad506146103225780634e85b135146104515780636e553f651461046657806370a08231146104745780637847ea531461048757806379502c55146104a75780638f5c9465146104ba57806394bf804d146104665780639531a485146104d657806395d89b41146104de57806397ee1144146104e65780639908840c1461051c578063a68a526714610525578063a9059cbb14610538578063aa2f892d1461054b578063acdb3d511461055e578063b1bd7e2e14610567578063b3d7f6b914610322578063b460af941461057a578063b6eba65314610588578063ba0876521461057a578063bdca91651461059e578063c0b568e1146105a7578063c3f0d30e146105ba578063c63d75b61461043d578063c6e6f592146105cd578063ce96cb77146105e0578063d1717c7d146105f3578063d3d0345814610607578063d853365f1461061d578063d905777e14610625578063dd62ed3e14610638578063e51a85f61461064b578063e66f53b71461065e578063ef8b30f714610322578063f64c6f3214610671575b5f5ffd5b600d545b6040519081526020015b60405180910390f35b6102d56102d0366004612daf565b610679565b005b6102df6107b3565b6040516102b99190612e1e565b6102af6102fa366004612e53565b610843565b61031261030d366004612e85565b610854565b60405190151581526020016102b9565b6102af610330366004612e53565b61086b565b6015546102af565b6102d561034b366004612ead565b610885565b6102d561035e366004612e53565b610920565b6102d5610371366004612ec6565b610b91565b6102d5610c0c565b6102d561038c366004612f26565b610ebb565b6002546102af565b6102d56103a7366004612e53565b610fb6565b6006546103bf906001600160a01b031681565b6040516102b99190612f6d565b6103126103da366004612f81565b611085565b6102d56110aa565b60125b60405160ff90911681526020016102b9565b6009546103bf906001600160a01b031681565b6103bf6110f9565b600a546103bf906001600160a01b031681565b6102d5610438366004612fd8565b61111d565b6102af61044b366004612ead565b505f1990565b6104596112ea565b6040516102b99190613063565b6102af610330366004613075565b6102af610482366004612ead565b6112fb565b6104926301e1338081565b60405163ffffffff90911681526020016102b9565b6008546103bf906001600160a01b031681565b6104c361271081565b60405161ffff90911681526020016102b9565b6102d5611315565b6102df611555565b60175460185461050c9160ff81169161ffff610100830481169263010000009004169084565b6040516102b994939291906130b3565b6104c361012c81565b6102af6105333660046130f1565b611564565b610312610546366004612e85565b6115a4565b6102d5610559366004612e53565b6115b1565b6102af60165481565b6102d561057536600461311f565b61178a565b6102af61033036600461315d565b610590611996565b6040516102b9929190613196565b6104c3610bb881565b6102d56105b5366004612e53565b611ad0565b6102d56105c8366004612e53565b611c8a565b6102af6105db366004612e53565b611e7e565b6102af6105ee366004612ead565b611e89565b600a546103ea90600160a01b900460ff1681565b61060f611e9c565b6040516102b99291906131f4565b6103ea601281565b6102af610633366004612ead565b611fc6565b6102af610646366004613240565b611fd0565b6102af610659366004612e53565b611ffa565b6007546103bf906001600160a01b031681565b6014546102af565b6006546001600160a01b031633146106a457604051631a27eac360e11b815260040160405180910390fd5b6106ae600b612033565b5f5b818110156107ae575f8383838181106106cb576106cb613268565b90506020020160208101906106e09190612ead565b600854604051633af32abf60e01b81529192506001600160a01b031690633af32abf90610711908490600401612f6d565b602060405180830381865afa15801561072c573d5f5f3e3d5ffd5b505050506040513d601f19601f82011682018060405250810190610750919061327c565b610778578060405163751dff9760e11b815260040161076f9190612f6d565b60405180910390fd5b5f610784600b8361203c565b9050806107a457604051630ea075bf60e21b815260040160405180910390fd5b50506001016106b0565b505050565b6060600380546107c29061329b565b80601f01602080910402602001604051908101604052809291908181526020018280546107ee9061329b565b80156108395780601f1061081057610100808354040283529160200191610839565b820191905f5260205f20905b81548152906001019060200180831161081c57829003601f168201915b5050505050905090565b5f61084e825f612050565b92915050565b5f33610861818585612091565b5060019392505050565b5f60405163125ad87760e31b815260040160405180910390fd5b6006546001600160a01b031633146108b057604051631a27eac360e11b815260040160405180910390fd5b6001600160a01b0381166108d75760405163e6c4247b60e01b815260040160405180910390fd5b600780546001600160a01b0319166001600160a01b0383169081179091556040517f83293ffeebb677b167941693470018acf300605df266a35e9fdb66f24ff00fe0905f90a250565b61092861209e565b60085f9054906101000a90046001600160a01b03166001600160a01b031663edcf9c1f6040518163ffffffff1660e01b8152600401602060405180830381865afa158015610978573d5f5f3e3d5ffd5b505050506040513d601f19601f8201168201806040525081019061099c919061327c565b6109b9576040516312aecd8160e01b815260040160405180910390fd5b805f036109e2576109c86110f9565b604051636b30633560e01b815260040161076f9190612f6d565b5f6109eb6110f9565b6001600160a01b03166370a08231336040518263ffffffff1660e01b8152600401610a169190612f6d565b602060405180830381865afa158015610a31573d5f5f3e3d5ffd5b505050506040513d601f19601f82011682018060405250810190610a5591906132d3565b905080821115610a7857604051632ca2f52b60e11b815260040160405180910390fd5b5f610a816110f9565b600a546040516323b872dd60e01b81526001600160a01b03928316926323b872dd92610ab79233929091169088906004016132ea565b6020604051808303815f875af1158015610ad3573d5f5f3e3d5ffd5b505050506040513d601f19601f82011682018060405250810190610af7919061327c565b905080610b17576040516312171d8360e31b815260040160405180910390fd5b5f610b23600e336120c8565b9150610b3e905033610b358684613322565b600e91906120ee565b508360145f828254610b509190613322565b9091555050604051849033907f55896b30a78fc55b78937f8014dde3f0035e9d37a4f6ac36841fb8b62f7e2b13905f90a3505050610b8e6001600555565b50565b600a546001600160a01b03163314610bbc57604051631a27eac360e11b815260040160405180910390fd5b8015610c08578060165f828254610bd39190613322565b9091555050601654604051829084907f8b8789cf9157fe7b016901e4ed3a5d0971caa8b7c031da0b25638ccf65841b2a905f90a45b5050565b600a546001600160a01b03163314610c3757604051631a27eac360e11b815260040160405180910390fd5b610c3f61209e565b5f610c4a6011612103565b90505f8163ffffffff166001600160401b03811115610c6b57610c6b613335565b604051908082528060200260200182016040528015610c94578160200160208202803683370190505b5090505f8263ffffffff166001600160401b03811115610cb657610cb6613335565b604051908082528060200260200182016040528015610cdf578160200160208202803683370190505b5090505f5b8363ffffffff168163ffffffff161015610d79575f80610d0e601163ffffffff8086169061210d16565b9150915081858463ffffffff1681518110610d2b57610d2b613268565b60200260200101906001600160a01b031690816001600160a01b03168152505080848463ffffffff1681518110610d6457610d64613268565b60209081029190910101525050600101610ce4565b505f60158190555b8363ffffffff168163ffffffff161015610eab575f838263ffffffff1681518110610dae57610dae613268565b602002602001015190505f838363ffffffff1681518110610dd157610dd1613268565b60200260200101519050610def82601161211b90919063ffffffff16565b505f610dfa82610843565b9050610e06308361212f565b600a54604051634adfc2e760e01b81526001600160a01b0390911690634adfc2e790610e389086908590600401613349565b5f604051808303815f87803b158015610e4f575f5ffd5b505af1158015610e61573d5f5f3e3d5ffd5b505050508181846001600160a01b03167ff279e6a1f5e320cca91135676d9cb6e44ca8a08c0b88342bcdb1144f6511b56860405160405180910390a4505050806001019050610d81565b50505050610eb96001600555565b565b600a546001600160a01b03163314610ee657604051631a27eac360e11b815260040160405180910390fd5b610ef06019612163565b815f5b8161ffff168161ffff161015610f8057610f7785858361ffff16818110610f1c57610f1c613268565b610f329260206040909202019081019150612ead565b86868461ffff16818110610f4857610f48613268565b9050604002016020016020810190610f609190613373565b63ffffffff1660196120ee9092919063ffffffff16565b50600101610ef3565b50600d82905560405182907f5e1ff954b5e5257e9ee5d4cb07059e8f5e69b1aaaf9911e5d8d90a6894de9c21905f90a250505050565b6006546001600160a01b03163314610fe157604051631a27eac360e11b815260040160405180910390fd5b805f03610ff0576109c86110f9565b60165481111561101357604051632ca2f52b60e11b815260040160405180910390fd5b8060165f828254611024919061338e565b9091555050600a5460405163741fca4b60e01b8152600481018390526001600160a01b039091169063741fca4b906024015f604051808303815f87803b15801561106c575f5ffd5b505af115801561107e573d5f5f3e3d5ffd5b5050505050565b5f3361109285828561216c565b61109d8585856121bd565b60019150505b9392505050565b600a546001600160a01b031633146110d557604051631a27eac360e11b815260040160405180910390fd5b5f6110e760125b6102fa90600a613484565b601854909150811115610b8e57601855565b7f000000000000000000000000000000000000000000000000000000000000000090565b6006546001600160a01b0316331461114857604051631a27eac360e11b815260040160405180910390fd5b60085f9054906101000a90046001600160a01b03166001600160a01b031663edcf9c1f6040518163ffffffff1660e01b8152600401602060405180830381865afa158015611198573d5f5f3e3d5ffd5b505050506040513d601f19601f820116820180604052508101906111bc919061327c565b6111d9576040516312aecd8160e01b815260040160405180910390fd5b600460ff841611156111fe576040516317dbc4cb60e21b815260040160405180910390fd5b610bb861ffff83161115611225576040516317dbc4cb60e21b815260040160405180910390fd5b61012c61ffff8216111561124c576040516317dbc4cb60e21b815260040160405180910390fd5b8260ff1660048111156112615761126161309f565b6017805460ff1916600183600481111561127d5761127d61309f565b02179055506017805464ffffffff00191661010061ffff85811691820264ffff00000019169290921763010000009285169283021790925560405190919060ff8616907fd24f39e523bfa412fa391702710dc62e1c82d87a8e83228a37c42be1b4870f45905f90a4505050565b60606112f6600b61221a565b905090565b6001600160a01b03165f9081526020819052604090205490565b600a546001600160a01b0316331461134057604051631a27eac360e11b815260040160405180910390fd5b61134861209e565b5f611353600e612103565b90505f8163ffffffff166001600160401b0381111561137457611374613335565b60405190808252806020026020018201604052801561139d578160200160208202803683370190505b5090505f8263ffffffff166001600160401b038111156113bf576113bf613335565b6040519080825280602002602001820160405280156113e8578160200160208202803683370190505b5090505f5b8363ffffffff168163ffffffff161015611482575f80611417600e63ffffffff8086169061210d16565b9150915081858463ffffffff168151811061143457611434613268565b60200260200101906001600160a01b031690816001600160a01b03168152505080848463ffffffff168151811061146d5761146d613268565b602090810291909101015250506001016113ed565b505f60148190555b8363ffffffff168163ffffffff161015610eab575f838263ffffffff16815181106114b7576114b7613268565b602002602001015190505f838363ffffffff16815181106114da576114da613268565b602002602001015190506114f882600e61211b90919063ffffffff16565b505f61150382611e7e565b905061150f8382612226565b8082846001600160a01b03167f90890809c654f11d6e72a28fa60149770a0d11ec6c92319d6ceb2bb0a4ea1a1560405160405180910390a450505080600101905061148a565b6060600480546107c29061329b565b5f61159c611573846001613322565b61157b61225a565b61158690600a613484565b6002546115939190613322565b869190856122d6565b949350505050565b5f336108618185856121bd565b60085f9054906101000a90046001600160a01b03166001600160a01b031663edcf9c1f6040518163ffffffff1660e01b8152600401602060405180830381865afa158015611601573d5f5f3e3d5ffd5b505050506040513d601f19601f82011682018060405250810190611625919061327c565b611642576040516312aecd8160e01b815260040160405180910390fd5b805f036116645730604051636b30633560e01b815260040161076f9190612f6d565b5f61166e336112fb565b90508082111561169157604051632ca2f52b60e11b815260040160405180910390fd5b6040516323b872dd60e01b81525f9030906323b872dd906116ba903390849088906004016132ea565b6020604051808303815f875af11580156116d6573d5f5f3e3d5ffd5b505050506040513d601f19601f820116820180604052508101906116fa919061327c565b90508061171a576040516312171d8360e31b815260040160405180910390fd5b5f6117266011336120c8565b91506117419050336117388684613322565b601191906120ee565b508360155f8282546117539190613322565b9091555050604051849033907f222dc200773fe9b45015bf792e8fee37d651e3590c215806a5042404b6d741d2905f90a350505050565b6007546001600160a01b031633146117b557604051631a27eac360e11b815260040160405180910390fd5b5f8190036117d657604051631121aa8d60e01b815260040160405180910390fd5b6117e0601c612163565b5f816001600160401b038111156117f9576117f9613335565b604051908082528060200260200182016040528015611822578160200160208202803683370190505b5090505f82815b8161ffff168161ffff161015611920575f86868361ffff1681811061185057611850613268565b6118669260206040909202019081019150612ead565b90505f87878461ffff1681811061187f5761187f613268565b90506040020160200160208101906118979190613373565b905081868461ffff16815181106118b0576118b0613268565b6001600160a01b03909216602092830291909101909101525f6118de601c8463ffffffff808616906120ee16565b90508061190057826040516346bdabe160e01b815260040161076f9190612f6d565b61191063ffffffff831687613322565b9550505050806001019050611829565b5061192a83612318565b600a60149054906101000a900460ff16600a6119469190613484565b821461196557604051639006dd2760e01b815260040160405180910390fd5b60405133907f2d47a742b8d7df7c1fc5a9a631b206b364e6cb2722490759f63bb3ab14b132e0905f90a25050505050565b6060805f6119a4601c612103565b90508061ffff166001600160401b038111156119c2576119c2613335565b6040519080825280602002602001820160405280156119eb578160200160208202803683370190505b5092508061ffff166001600160401b03811115611a0a57611a0a613335565b604051908082528060200260200182016040528015611a33578160200160208202803683370190505b5091505f5b8161ffff168161ffff161015611aca575f80611a59601c61ffff851661210d565b9150915081868461ffff1681518110611a7457611a74613268565b60200260200101906001600160a01b031690816001600160a01b03168152505080858461ffff1681518110611aab57611aab613268565b63ffffffff909216602092830291909101909101525050600101611a38565b50509091565b611ad861209e565b60085f9054906101000a90046001600160a01b03166001600160a01b031663edcf9c1f6040518163ffffffff1660e01b8152600401602060405180830381865afa158015611b28573d5f5f3e3d5ffd5b505050506040513d601f19601f82011682018060405250810190611b4c919061327c565b611b69576040516312aecd8160e01b815260040160405180910390fd5b805f03611b78576109c86110f9565b5f611b84600e336120c8565b91505081811015611ba857604051632ca2f52b60e11b815260040160405180910390fd5b600a546040516351edffb160e01b81526001600160a01b03909116906351edffb190611bda9033908690600401613349565b5f604051808303815f87803b158015611bf1575f5ffd5b505af1158015611c03573d5f5f3e3d5ffd5b505050505f8282611c14919061338e565b9050805f03611c2e57611c28600e3361211b565b50611c3c565b611c3a600e33836120ee565b505b8260145f828254611c4d919061338e565b9091555050604051839033907f96a9a6886cdf3047a125454218a23d3961fd3a78643123b248a9d106d0ac94fd905f90a35050610b8e6001600555565b611c9261209e565b60085f9054906101000a90046001600160a01b03166001600160a01b031663edcf9c1f6040518163ffffffff1660e01b8152600401602060405180830381865afa158015611ce2573d5f5f3e3d5ffd5b505050506040513d601f19601f82011682018060405250810190611d06919061327c565b611d23576040516312aecd8160e01b815260040160405180910390fd5b805f03611d455730604051636b30633560e01b815260040161076f9190612f6d565b5f611d516011336120c8565b91505081811015611d7557604051632ca2f52b60e11b815260040160405180910390fd5b5f611d80838361338e565b9050805f03611d9a57611d9460113361211b565b50611da8565b611da6601133836120ee565b505b8260155f828254611db9919061338e565b909155505060405163a9059cbb60e01b81525f90309063a9059cbb90611de59033908890600401613349565b6020604051808303815f875af1158015611e01573d5f5f3e3d5ffd5b505050506040513d601f19601f82011682018060405250810190611e25919061327c565b905080611e45576040516312171d8360e31b815260040160405180910390fd5b604051849033907f046d3e17087d323298991516e3fdec36fe1204d6bff7fb6e2b8eca77b80a22ad905f90a3505050610b8e6001600555565b5f61084e825f612390565b5f61084e611e96836112fb565b5f612050565b6060805f611eaa6019612103565b90508061ffff166001600160401b03811115611ec857611ec8613335565b604051908082528060200260200182016040528015611ef1578160200160208202803683370190505b5092508061ffff166001600160401b03811115611f1057611f10613335565b604051908082528060200260200182016040528015611f39578160200160208202803683370190505b5091505f5b8161ffff168161ffff161015611aca575f80611f5f601961ffff851661210d565b9150915081868461ffff1681518110611f7a57611f7a613268565b60200260200101906001600160a01b031690816001600160a01b03168152505080858461ffff1681518110611fb157611fb1613268565b60209081029190910101525050600101611f3e565b5f61084e826112fb565b6001600160a01b039182165f90815260016020908152604080832093909416825291909152205490565b5f5f612005836123c2565b90505f612012828561338e565b90505f61201e8261248c565b905061202a8184613322565b95945050505050565b610b8e81612549565b5f6110a3836001600160a01b0384166125a2565b5f6110a361205d600d5490565b612068906001613322565b61207061225a565b61207b90600a613484565b6002546120889190613322565b859190856122d6565b6107ae83838360016125e9565b6002600554036120c157604051633ee5aeb560e01b815260040160405180910390fd5b6002600555565b5f8080806120df866001600160a01b0387166126bb565b909450925050505b9250929050565b5f61159c846001600160a01b038516846126f3565b5f61084e8261270f565b5f8080806120df8686612719565b5f6110a3836001600160a01b038416612742565b6001600160a01b038216612158575f604051634b637e8f60e11b815260040161076f9190612f6d565b610c08825f8361275e565b610b8e81612871565b5f6121778484611fd0565b90505f198110156121b757818110156121a957828183604051637dc7a0d960e11b815260040161076f93929190613492565b6121b784848484035f6125e9565b50505050565b6001600160a01b0383166121e6575f604051634b637e8f60e11b815260040161076f9190612f6d565b6001600160a01b03821661220f575f60405163ec442f0560e01b815260040161076f9190612f6d565b6107ae83838361275e565b60605f6110a3836128ba565b6001600160a01b03821661224f575f60405163ec442f0560e01b815260040161076f9190612f6d565b610c085f838361275e565b5f5f6122646110f9565b6001600160a01b031663313ce5676040518163ffffffff1660e01b8152600401602060405180830381865afa15801561229f573d5f5f3e3d5ffd5b505050506040513d601f19601f820116820180604052508101906122c391906134b3565b90506122d08160126134ce565b91505090565b5f6123036122e383612913565b80156122fe57505f84806122f9576122f96134e7565b868809115b151590565b61230e86868661293f565b61202a9190613322565b5f5b8151811015610c085761235082828151811061233857612338613268565b6020026020010151600b6129ef90919063ffffffff16565b6123885781818151811061236657612366613268565b602002602001015160405163751dff9760e11b815260040161076f9190612f6d565b60010161231a565b5f6110a361239c61225a565b6123a790600a613484565b6002546123b49190613322565b600d54612088906001613322565b6017545f906301000000900461ffff1681036123df57505f919050565b6017545f906123fc906301000000900461ffff168461271061293f565b90506110a360095f9054906101000a90046001600160a01b03166001600160a01b0316634ff0876a6040518163ffffffff1660e01b8152600401602060405180830381865afa158015612451573d5f5f3e3d5ffd5b505050506040513d601f19601f8201168201806040525081019061247591906134fb565b829063ffffffff908116906301e133809061293f16565b6017545f90610100900461ffff1681036124a757505f919050565b5f6124eb6124b6846001613322565b6124be61225a565b6124c990600a613484565b6002546124d69190613322565b5f6124e36012600a613484565b9291906122d6565b6017549091505f9081906125019060ff16612a03565b915091508183101561251757505f949350505050565b6017545f9061253090610100900461ffff16858461293f565b905061253f818761271061293f565b9695505050505050565b5f612552825490565b90505f5b8181101561259b57826001015f845f01838154811061257757612577613268565b905f5260205f20015481526020019081526020015f205f9055806001019050612556565b50505f9055565b5f6125ad8383612aed565b6125e257508154600181810184555f84815260208082209093018490558454848252828601909352604090209190915561084e565b505f61084e565b6001600160a01b038416612612575f60405163e602df0560e01b815260040161076f9190612f6d565b6001600160a01b03831661263b575f604051634a1406b160e11b815260040161076f9190612f6d565b6001600160a01b038085165f90815260016020908152604080832093871683529290522082905580156121b757826001600160a01b0316846001600160a01b03167f8c5be1e5ebec7d5bd14f71427d1e84f3dd0314c0f7b2291e5b200ac8c7c3b925846040516126ad91815260200190565b60405180910390a350505050565b5f8181526002830160205260408120548190806126e8576126dc8585612b04565b92505f91506120e79050565b6001925090506120e7565b5f828152600284016020526040812082905561159c8484612b0f565b5f61084e82612b1a565b5f80806127268585612b23565b5f81815260029690960160205260409095205494959350505050565b5f81815260028301602052604081208190556110a38383612b2e565b6001600160a01b038316612788578060025f82825461277d9190613322565b909155506127e59050565b6001600160a01b0383165f90815260208190526040902054818110156127c75783818360405163391434e360e21b815260040161076f93929190613492565b6001600160a01b0384165f9081526020819052604090209082900390555b6001600160a01b0382166128015760028054829003905561281f565b6001600160a01b0382165f9081526020819052604090208054820190555b816001600160a01b0316836001600160a01b03167fddf252ad1be2c89b69c2b068fc378daa952ba7f163c4a11628f55a4df523b3ef8360405161286491815260200190565b60405180910390a3505050565b5f61287b8261270f565b90505f5b818110156128b057600283015f6128968584612b23565b815260208101919091526040015f9081205560010161287f565b50610c0882612033565b6060815f0180548060200260200160405190810160405280929190818152602001828054801561290757602002820191905f5260205f20905b8154815260200190600101908083116128f3575b50505050509050919050565b5f60028260038111156129285761292861309f565b6129329190613516565b60ff166001149050919050565b5f5f5f61294c8686612b39565b91509150815f0361297057838181612966576129666134e7565b04925050506110a3565b818411612987576129876003851502601118612b55565b5f848688095f868103871696879004966002600389028118808a02820302808a02820302808a02820302808a02820302808a02820302808a02909103029181900381900460010185841190960395909502919093039390930492909217029150509392505050565b5f6110a3836001600160a01b038416612aed565b5f8080612a1060126110dc565b90505f846004811115612a2557612a2561309f565b03612a3557809250829150612ae7565b6003846004811115612a4957612a4961309f565b03612a5b576018549250829150612ae7565b6001846004811115612a6f57612a6f61309f565b03612a8757612a7d81612b66565b9250809150612ae7565b6002846004811115612a9b57612a9b61309f565b03612ab357612aa981612b66565b9250829150612ae7565b6004846004811115612ac757612ac761309f565b03612ae757601854612ae190612adc83612b66565b612c8c565b92508291505b50915091565b5f9081526001919091016020526040902054151590565b5f6110a38383612c9b565b5f6110a383836125a2565b5f61084e825490565b5f6110a38383612ca6565b5f6110a38383612ccc565b5f805f1983850993909202808410938190039390930393915050565b634e487b715f52806020526024601cfd5b5f5f60085f9054906101000a90046001600160a01b03166001600160a01b031663f3cc69936040518163ffffffff1660e01b8152600401602060405180830381865afa158015612bb8573d5f5f3e3d5ffd5b505050506040513d601f19601f82011682018060405250810190612bdc9190613543565b61ffff1690505f612c7160095f9054906101000a90046001600160a01b03166001600160a01b0316634ff0876a6040518163ffffffff1660e01b8152600401602060405180830381865afa158015612c36573d5f5f3e3d5ffd5b505050506040513d601f19601f82011682018060405250810190612c5a91906134fb565b839063ffffffff908116906301e133809061293f16565b905061159c612c8282612710613322565b859061271061293f565b5f8282188284110282186110a3565b5f6110a38383612aed565b5f825f018281548110612cbb57612cbb613268565b905f5260205f200154905092915050565b5f8181526001830160205260408120548015612da6575f612cee60018361338e565b85549091505f90612d019060019061338e565b9050808214612d60575f865f018281548110612d1f57612d1f613268565b905f5260205f200154905080875f018481548110612d3f57612d3f613268565b5f918252602080832090910192909255918252600188019052604090208390555b8554869080612d7157612d7161355e565b600190038181905f5260205f20015f90559055856001015f8681526020019081526020015f205f90556001935050505061084e565b5f91505061084e565b5f5f60208385031215612dc0575f5ffd5b82356001600160401b03811115612dd5575f5ffd5b8301601f81018513612de5575f5ffd5b80356001600160401b03811115612dfa575f5ffd5b8560208260051b8401011115612e0e575f5ffd5b6020919091019590945092505050565b602081525f82518060208401528060208501604085015e5f604082850101526040601f19601f83011684010191505092915050565b5f60208284031215612e63575f5ffd5b5035919050565b80356001600160a01b0381168114612e80575f5ffd5b919050565b5f5f60408385031215612e96575f5ffd5b612e9f83612e6a565b946020939093013593505050565b5f60208284031215612ebd575f5ffd5b6110a382612e6a565b5f5f60408385031215612ed7575f5ffd5b50508035926020909101359150565b5f5f83601f840112612ef6575f5ffd5b5081356001600160401b03811115612f0c575f5ffd5b6020830191508360208260061b85010111156120e7575f5ffd5b5f5f5f60408486031215612f38575f5ffd5b83356001600160401b03811115612f4d575f5ffd5b612f5986828701612ee6565b909790965060209590950135949350505050565b6001600160a01b0391909116815260200190565b5f5f5f60608486031215612f93575f5ffd5b612f9c84612e6a565b9250612faa60208501612e6a565b929592945050506040919091013590565b60ff81168114610b8e575f5ffd5b61ffff81168114610b8e575f5ffd5b5f5f5f60608486031215612fea575f5ffd5b8335612ff581612fbb565b9250602084013561300581612fc9565b9150604084013561301581612fc9565b809150509250925092565b5f8151808452602084019350602083015f5b828110156130595781516001600160a01b0316865260209586019590910190600101613032565b5093949350505050565b602081525f6110a36020830184613020565b5f5f60408385031215613086575f5ffd5b8235915061309660208401612e6a565b90509250929050565b634e487b7160e01b5f52602160045260245ffd5b60808101600586106130d357634e487b7160e01b5f52602160045260245ffd5b94815261ffff93841660208201529190921660408201526060015290565b5f5f5f60608486031215613103575f5ffd5b8335925060208401359150604084013560048110613015575f5ffd5b5f5f60208385031215613130575f5ffd5b82356001600160401b03811115613145575f5ffd5b61315185828601612ee6565b90969095509350505050565b5f5f5f6060848603121561316f575f5ffd5b8335925061317f60208501612e6a565b915061318d60408501612e6a565b90509250925092565b604081525f6131a86040830185613020565b82810360208401528084518083526020830191506020860192505f5b818110156131e857835163ffffffff168352602093840193909201916001016131c4565b50909695505050505050565b604081525f6132066040830185613020565b82810360208401528084518083526020830191506020860192505f5b818110156131e8578351835260209384019390920191600101613222565b5f5f60408385031215613251575f5ffd5b61325a83612e6a565b915061309660208401612e6a565b634e487b7160e01b5f52603260045260245ffd5b5f6020828403121561328c575f5ffd5b815180151581146110a3575f5ffd5b600181811c908216806132af57607f821691505b6020821081036132cd57634e487b7160e01b5f52602260045260245ffd5b50919050565b5f602082840312156132e3575f5ffd5b5051919050565b6001600160a01b039384168152919092166020820152604081019190915260600190565b634e487b7160e01b5f52601160045260245ffd5b8082018082111561084e5761084e61330e565b634e487b7160e01b5f52604160045260245ffd5b6001600160a01b03929092168252602082015260400190565b63ffffffff81168114610b8e575f5ffd5b5f60208284031215613383575f5ffd5b81356110a381613362565b8181038181111561084e5761084e61330e565b6001815b60018411156133dc578085048111156133c0576133c061330e565b60018416156133ce57908102905b60019390931c9280026133a5565b935093915050565b5f826133f25750600161084e565b816133fe57505f61084e565b8160018114613414576002811461341e5761343a565b600191505061084e565b60ff84111561342f5761342f61330e565b50506001821b61084e565b5060208310610133831016604e8410600b841016171561345d575081810a61084e565b6134695f1984846133a1565b805f190482111561347c5761347c61330e565b029392505050565b5f6110a360ff8416836133e4565b6001600160a01b039390931683526020830191909152604082015260600190565b5f602082840312156134c3575f5ffd5b81516110a381612fbb565b60ff828116828216039081111561084e5761084e61330e565b634e487b7160e01b5f52601260045260245ffd5b5f6020828403121561350b575f5ffd5b81516110a381613362565b5f60ff83168061353457634e487b7160e01b5f52601260045260245ffd5b8060ff84160691505092915050565b5f60208284031215613553575f5ffd5b81516110a381612fc9565b634e487b7160e01b5f52603160045260245ffdfea26469706673582212207145f1f6faac1e7f4c28833d130300ff922c0f03350b2a905e6e37e4ebd25ea464736f6c634300081c0033a2646970667358221220faa90f422fc27ed826c37fd885b49d559251dead9001c16b3ca33116298acc9964736f6c634300081c0033",
  "linkReferences": {},
  "deployedLinkReferences": {}
}