{
  "_format": "hh-sol-artifact-1",
  "contractName": "EoaBond",
  "sourceName": "contracts/EoaBond.sol",
  "abi": [
    {
      "inputs": [],
      "stateMutability": "nonpayable",
      "type": "constructor"
    },
    {
      "anonymous": false,
      "inputs": [
        {
          "indexed": false,
          "internalType": "uint256",
          "name": "policyId",
          "type": "uint256"
        },
        {
          "indexed": false,
          "internalType": "address",
          "name": "allowedAddress",
          "type": "address"
        }
      ],
      "name": "AddressAddedToPolicy",
      "type": "event"
    },
    {
      "anonymous": false,
      "inputs": [
        {
          "indexed": false,
          "internalType": "address",
          "name": "mainEoa",
          "type": "address"
        },
        {
          "indexed": false,
          "internalType": "address",
          "name": "apiEoa",
          "type": "address"
        }
      ],
      "name": "Bond",
      "type": "event"
    },
    {
      "anonymous": false,
      "inputs": [
        {
          "indexed": false,
          "internalType": "uint256",
          "name": "bucketId",
          "type": "uint256"
        },
        {
          "indexed": false,
          "internalType": "address",
          "name": "owner",
          "type": "address"
        }
      ],
      "name": "BucketAdded",
      "type": "event"
    },
    {
      "anonymous": false,
      "inputs": [
        {
          "indexed": false,
          "internalType": "uint256",
          "name": "bucketId",
          "type": "uint256"
        }
      ],
      "name": "BucketDeactivated",
      "type": "event"
    },
    {
      "anonymous": false,
      "inputs": [
        {
          "indexed": false,
          "internalType": "address",
          "name": "mainEoa",
          "type": "address"
        }
      ],
      "name": "Detach",
      "type": "event"
    },
    {
      "anonymous": false,
      "inputs": [
        {
          "indexed": false,
          "internalType": "uint8",
          "name": "version",
          "type": "uint8"
        }
      ],
      "name": "Initialized",
      "type": "event"
    },
    {
      "anonymous": false,
      "inputs": [
        {
          "indexed": false,
          "internalType": "uint256",
          "name": "policyId",
          "type": "uint256"
        },
        {
          "indexed": false,
          "internalType": "address",
          "name": "owner",
          "type": "address"
        }
      ],
      "name": "PolicyAdded",
      "type": "event"
    },
    {
      "anonymous": false,
      "inputs": [
        {
          "indexed": false,
          "internalType": "uint256",
          "name": "bucketId",
          "type": "uint256"
        },
        {
          "indexed": false,
          "internalType": "uint256",
          "name": "policyId",
          "type": "uint256"
        }
      ],
      "name": "PolicyAddedToBucket",
      "type": "event"
    },
    {
      "anonymous": false,
      "inputs": [
        {
          "indexed": false,
          "internalType": "uint256",
          "name": "policyId",
          "type": "uint256"
        }
      ],
      "name": "PolicyDeactivated",
      "type": "event"
    },
    {
      "anonymous": false,
      "inputs": [
        {
          "indexed": true,
          "internalType": "bytes32",
          "name": "role",
          "type": "bytes32"
        },
        {
          "indexed": true,
          "internalType": "bytes32",
          "name": "previousAdminRole",
          "type": "bytes32"
        },
        {
          "indexed": true,
          "internalType": "bytes32",
          "name": "newAdminRole",
          "type": "bytes32"
        }
      ],
      "name": "RoleAdminChanged",
      "type": "event"
    },
    {
      "anonymous": false,
      "inputs": [
        {
          "indexed": true,
          "internalType": "bytes32",
          "name": "role",
          "type": "bytes32"
        },
        {
          "indexed": true,
          "internalType": "address",
          "name": "account",
          "type": "address"
        },
        {
          "indexed": true,
          "internalType": "address",
          "name": "sender",
          "type": "address"
        }
      ],
      "name": "RoleGranted",
      "type": "event"
    },
    {
      "anonymous": false,
      "inputs": [
        {
          "indexed": true,
          "internalType": "bytes32",
          "name": "role",
          "type": "bytes32"
        },
        {
          "indexed": true,
          "internalType": "address",
          "name": "account",
          "type": "address"
        },
        {
          "indexed": true,
          "internalType": "address",
          "name": "sender",
          "type": "address"
        }
      ],
      "name": "RoleRevoked",
      "type": "event"
    },
    {
      "inputs": [],
      "name": "DEFAULT_ADMIN_ROLE",
      "outputs": [
        {
          "internalType": "bytes32",
          "name": "",
          "type": "bytes32"
        }
      ],
      "stateMutability": "view",
      "type": "function"
    },
    {
      "inputs": [
        {
          "internalType": "uint256",
          "name": "policyId",
          "type": "uint256"
        },
        {
          "internalType": "address",
          "name": "allowedAddress",
          "type": "address"
        }
      ],
      "name": "addAllowedAddressToPolicy",
      "outputs": [],
      "stateMutability": "nonpayable",
      "type": "function"
    },
    {
      "inputs": [
        {
          "internalType": "uint256",
          "name": "bucketId",
          "type": "uint256"
        },
        {
          "internalType": "uint256[]",
          "name": "policyIds",
          "type": "uint256[]"
        },
        {
          "internalType": "string",
          "name": "dataFormat",
          "type": "string"
        },
        {
          "internalType": "string",
          "name": "nodeAddress",
          "type": "string"
        }
      ],
      "name": "addBucket",
      "outputs": [],
      "stateMutability": "nonpayable",
      "type": "function"
    },
    {
      "inputs": [
        {
          "internalType": "uint256",
          "name": "policyId",
          "type": "uint256"
        },
        {
          "internalType": "string[]",
          "name": "allowedCategories",
          "type": "string[]"
        },
        {
          "internalType": "address[]",
          "name": "allowedAddresses",
          "type": "address[]"
        },
        {
          "internalType": "string[]",
          "name": "allowedColumns",
          "type": "string[]"
        },
        {
          "internalType": "uint256",
          "name": "expDate",
          "type": "uint256"
        },
        {
          "internalType": "uint256",
          "name": "price",
          "type": "uint256"
        }
      ],
      "name": "addPolicy",
      "outputs": [],
      "stateMutability": "nonpayable",
      "type": "function"
    },
    {
      "inputs": [
        {
          "internalType": "uint256",
          "name": "bucketId",
          "type": "uint256"
        },
        {
          "internalType": "uint256",
          "name": "policyId",
          "type": "uint256"
        }
      ],
      "name": "addPolicyToBucket",
      "outputs": [],
      "stateMutability": "nonpayable",
      "type": "function"
    },
    {
      "inputs": [
        {
          "internalType": "address",
          "name": "",
          "type": "address"
        }
      ],
      "name": "apiEoas",
      "outputs": [
        {
          "internalType": "address",
          "name": "",
          "type": "address"
        }
      ],
      "stateMutability": "view",
      "type": "function"
    },
    {
      "inputs": [
        {
          "internalType": "address",
          "name": "apiEoa",
          "type": "address"
        }
      ],
      "name": "bond",
      "outputs": [],
      "stateMutability": "nonpayable",
      "type": "function"
    },
    {
      "inputs": [
        {
          "internalType": "uint256",
          "name": "",
          "type": "uint256"
        }
      ],
      "name": "buckets",
      "outputs": [
        {
          "internalType": "string",
          "name": "dataFormat",
          "type": "string"
        },
        {
          "internalType": "string",
          "name": "nodeAddress",
          "type": "string"
        },
        {
          "internalType": "address",
          "name": "owner",
          "type": "address"
        },
        {
          "internalType": "bool",
          "name": "deactivated",
          "type": "bool"
        }
      ],
      "stateMutability": "view",
      "type": "function"
    },
    {
      "inputs": [
        {
          "internalType": "address",
          "name": "",
          "type": "address"
        }
      ],
      "name": "dataProviders",
      "outputs": [
        {
          "internalType": "uint256",
          "name": "joinDate",
          "type": "uint256"
        },
        {
          "internalType": "string",
          "name": "category",
          "type": "string"
        }
      ],
      "stateMutability": "view",
      "type": "function"
    },
    {
      "inputs": [
        {
          "internalType": "address",
          "name": "",
          "type": "address"
        }
      ],
      "name": "dataSeekers",
      "outputs": [
        {
          "internalType": "uint256",
          "name": "joinDate",
          "type": "uint256"
        },
        {
          "internalType": "string",
          "name": "category",
          "type": "string"
        }
      ],
      "stateMutability": "view",
      "type": "function"
    },
    {
      "inputs": [
        {
          "internalType": "uint256",
          "name": "bucketId",
          "type": "uint256"
        }
      ],
      "name": "deactivateBucket",
      "outputs": [],
      "stateMutability": "nonpayable",
      "type": "function"
    },
    {
      "inputs": [
        {
          "internalType": "uint256",
          "name": "policyId",
          "type": "uint256"
        }
      ],
      "name": "deactivatePolicy",
      "outputs": [],
      "stateMutability": "nonpayable",
      "type": "function"
    },
    {
      "inputs": [],
      "name": "detach",
      "outputs": [],
      "stateMutability": "nonpayable",
      "type": "function"
    },
    {
      "inputs": [
        {
          "internalType": "uint256",
          "name": "policyId",
          "type": "uint256"
        }
      ],
      "name": "getAllowedAddresses",
      "outputs": [
        {
          "internalType": "address[]",
          "name": "",
          "type": "address[]"
        }
      ],
      "stateMutability": "view",
      "type": "function"
    },
    {
      "inputs": [
        {
          "internalType": "uint256",
          "name": "policyId",
          "type": "uint256"
        }
      ],
      "name": "getAllowedCategories",
      "outputs": [
        {
          "internalType": "string[]",
          "name": "",
          "type": "string[]"
        }
      ],
      "stateMutability": "view",
      "type": "function"
    },
    {
      "inputs": [
        {
          "internalType": "uint256",
          "name": "policyId",
          "type": "uint256"
        }
      ],
      "name": "getAllowedColumns",
      "outputs": [
        {
          "internalType": "string[]",
          "name": "",
          "type": "string[]"
        }
      ],
      "stateMutability": "view",
      "type": "function"
    },
    {
      "inputs": [
        {
          "internalType": "uint256",
          "name": "bucketId",
          "type": "uint256"
        }
      ],
      "name": "getPolicyIds",
      "outputs": [
        {
          "internalType": "uint256[]",
          "name": "",
          "type": "uint256[]"
        }
      ],
      "stateMutability": "view",
      "type": "function"
    },
    {
      "inputs": [
        {
          "internalType": "bytes32",
          "name": "role",
          "type": "bytes32"
        }
      ],
      "name": "getRoleAdmin",
      "outputs": [
        {
          "internalType": "bytes32",
          "name": "",
          "type": "bytes32"
        }
      ],
      "stateMutability": "view",
      "type": "function"
    },
    {
      "inputs": [
        {
          "internalType": "bytes32",
          "name": "role",
          "type": "bytes32"
        },
        {
          "internalType": "address",
          "name": "account",
          "type": "address"
        }
      ],
      "name": "grantRole",
      "outputs": [],
      "stateMutability": "nonpayable",
      "type": "function"
    },
    {
      "inputs": [
        {
          "internalType": "bytes32",
          "name": "role",
          "type": "bytes32"
        },
        {
          "internalType": "address",
          "name": "account",
          "type": "address"
        }
      ],
      "name": "hasRole",
      "outputs": [
        {
          "internalType": "bool",
          "name": "",
          "type": "bool"
        }
      ],
      "stateMutability": "view",
      "type": "function"
    },
    {
      "inputs": [],
      "name": "initialize",
      "outputs": [],
      "stateMutability": "nonpayable",
      "type": "function"
    },
    {
      "inputs": [
        {
          "internalType": "address",
          "name": "a",
          "type": "address"
        }
      ],
      "name": "mainAccount",
      "outputs": [
        {
          "internalType": "address",
          "name": "",
          "type": "address"
        }
      ],
      "stateMutability": "view",
      "type": "function"
    },
    {
      "inputs": [
        {
          "internalType": "address",
          "name": "",
          "type": "address"
        }
      ],
      "name": "mainEoas",
      "outputs": [
        {
          "internalType": "address",
          "name": "",
          "type": "address"
        }
      ],
      "stateMutability": "view",
      "type": "function"
    },
    {
      "inputs": [
        {
          "internalType": "address",
          "name": "",
          "type": "address"
        },
        {
          "internalType": "uint256",
          "name": "",
          "type": "uint256"
        }
      ],
      "name": "ownerBucketIds",
      "outputs": [
        {
          "internalType": "uint256",
          "name": "",
          "type": "uint256"
        }
      ],
      "stateMutability": "view",
      "type": "function"
    },
    {
      "inputs": [
        {
          "internalType": "address",
          "name": "",
          "type": "address"
        },
        {
          "internalType": "uint256",
          "name": "",
          "type": "uint256"
        }
      ],
      "name": "ownerPolicyIds",
      "outputs": [
        {
          "internalType": "uint256",
          "name": "",
          "type": "uint256"
        }
      ],
      "stateMutability": "view",
      "type": "function"
    },
    {
      "inputs": [
        {
          "internalType": "uint256",
          "name": "",
          "type": "uint256"
        }
      ],
      "name": "policies",
      "outputs": [
        {
          "internalType": "uint256",
          "name": "expDate",
          "type": "uint256"
        },
        {
          "internalType": "uint256",
          "name": "price",
          "type": "uint256"
        },
        {
          "internalType": "address",
          "name": "owner",
          "type": "address"
        },
        {
          "internalType": "bool",
          "name": "deactivated",
          "type": "bool"
        }
      ],
      "stateMutability": "view",
      "type": "function"
    },
    {
      "inputs": [
        {
          "internalType": "bytes32",
          "name": "role",
          "type": "bytes32"
        },
        {
          "internalType": "address",
          "name": "account",
          "type": "address"
        }
      ],
      "name": "renounceRole",
      "outputs": [],
      "stateMutability": "nonpayable",
      "type": "function"
    },
    {
      "inputs": [
        {
          "internalType": "bytes32",
          "name": "role",
          "type": "bytes32"
        },
        {
          "internalType": "address",
          "name": "account",
          "type": "address"
        }
      ],
      "name": "revokeRole",
      "outputs": [],
      "stateMutability": "nonpayable",
      "type": "function"
    },
    {
      "inputs": [
        {
          "internalType": "address",
          "name": "dpAddr",
          "type": "address"
        },
        {
          "internalType": "string",
          "name": "category",
          "type": "string"
        }
      ],
      "name": "setDataProvider",
      "outputs": [],
      "stateMutability": "nonpayable",
      "type": "function"
    },
    {
      "inputs": [
        {
          "internalType": "address",
          "name": "dsAddr",
          "type": "address"
        },
        {
          "internalType": "string",
          "name": "category",
          "type": "string"
        }
      ],
      "name": "setDataSeeker",
      "outputs": [],
      "stateMutability": "nonpayable",
      "type": "function"
    },
    {
      "inputs": [
        {
          "internalType": "bytes4",
          "name": "interfaceId",
          "type": "bytes4"
        }
      ],
      "name": "supportsInterface",
      "outputs": [
        {
          "internalType": "bool",
          "name": "",
          "type": "bool"
        }
      ],
      "stateMutability": "view",
      "type": "function"
    }
  ],
  "bytecode": "0x608080604052346100c1576000549060ff8260081c1661006f575060ff80821603610034575b6040516123de90816100c78239f35b60ff90811916176000557f7f26b83ff96e1f2b6a682f133852f6798a09c465da95921460cefb3847402498602060405160ff8152a138610025565b62461bcd60e51b815260206004820152602760248201527f496e697469616c697a61626c653a20636f6e747261637420697320696e697469604482015266616c697a696e6760c81b6064820152608490fd5b600080fdfe608080604052600436101561001357600080fd5b60003560e01c90816225606f146119b45750806301ffc9a71461195e578063118f124914611901578063225435c014611880578063247ce85b1461170d578063248a9ca3146116de5780632f2ff15d1461162b57806336568abe1461159957806336998de8146112585780635773d1801461121b5780635efb538a1461114d5780636f22aa7014611112578063780aac03146110b8578063796d749b146110835780638129fc1c14610e8c578063854e7cb314610e115780638897f04514610d355780638d8e8e3c14610ceb57806391d1485414610c9e57806396c78fb414610b865780639b51fb0d14610afb578063a0f82994146109f2578063a217fddf146109d6578063afa245b41461097e578063d2c8257a146108d8578063d3e894831461087c578063d547741f1461083b578063de92695a146107b9578063ded7f4ae14610704578063eb4a4645146106855763fde37aee1461017357600080fd5b346104f05760c03660031901126104f0576024356001600160401b0381116104f0576101a3903690600401611cc3565b6044356001600160401b0381116104f0576101c2903690600401611a18565b906064356001600160401b0381116104f0576101e2903690600401611cc3565b91600435600052609b60205260406000209360018060a01b0360058601541661064757805190600160401b821161043c5785548287558083106105d1575b50600086815260208082209392015b8282106104f557505050506001600160401b03811161043c57600160401b811161043c576001840191610267828454818655856122aa565b916000526020600020916000905b8282106104cb578451869086600160401b821161043c576002830154826002850155808310610452575b5060200190600283016000526020600020916000905b82821061035b57608435600386015560a43560048601557f977367dcdd13b45f9ddcc1b0b549054231eee20e8e2795185f2448336a194146610356866001600160a01b0361030233612223565b168060018060a01b0319600584015416176005830155600052609e60205261033060043560406000206122cd565b600501546040805160043581526001600160a01b03909216602083015290918291820190565b0390a1005b80518051906001600160401b03821161043c576103828261037c8854611a75565b88612265565b602090601f83116001146103ce5792826001949360209386956000926103c3575b5050600019600383901b1c191690841b1787555b019401910190926102b5565b015190508a806103a3565b90601f198316918760005260206000209260005b818110610424575093602093600196938796938388951061040b575b505050811b0187556103b7565b015160001960f88460031b161c191690558a80806103fe565b929360206001819287860151815501950193016103e2565b634e487b7160e01b600052604160045260246000fd5b600284016000526020600020908382015b818301811061047357505061029f565b8061048060019254611a75565b8061048d575b5001610463565b601f9081811184146104a6575050600081555b87610486565b6104c260009284845260208420920160051c820185830161224e565b818355556104a0565b8035916001600160a01b03831683036104f05760206001920192818601550190610275565b600080fd5b80518051906001600160401b03821161043c576105168261037c8854611a75565b602090601f8311600114610562579282600194936020938695600092610557575b5050600019600383901b1c191690841b1787555b0194019101909261022f565b015190503880610537565b908660005260206000209160005b601f19851681106105b957509260209260019592869583601f198116106105a0575b505050831b8301875561054b565b015160001960f88460031b161c19169055388080610592565b91926020600181928685015181550194019201610570565b866000526020600020908382015b81830181106105ef575050610220565b806105fc60019254611a75565b80610609575b50016105df565b601f908181118414610622575050600081555b38610602565b61063e60009284845260208420920160051c820185830161224e565b8183555561061c565b60405162461bcd60e51b8152602060048201526016602482015275141bdb1a58de48125108185b1c9958591e481d5cd95960521b6044820152606490fd5b346104f05760203660031901126104f0577fa040c05c2aea9ad7da426cefbf383fc472d4759806d4aa7d1257f00f0faadd01602060043580600052609b8252600560406000200180546106ec60018060a01b03806106e233612223565b1690831614612302565b60ff60a01b1916600160a01b179055604051908152a1005b346104f0576020806003193601126104f057600435600052609b8152600190816040600020019160405191828185549182815201908195600052826000209060005b81811061079d575050508361075c910384611aca565b60405192818401908285525180915260408401949160005b8281106107815785870386f35b83516001600160a01b0316875295810195928101928401610774565b82546001600160a01b0316845292840192918501918501610746565b346104f0576020806003193601126104f057600435600052609b8152600260406000200180546107e881611cac565b916107f66040519384611aca565b8183526000908152838120938084015b83831061081f576040518061081b8782611bd9565b0390f35b600182819261082d89611aeb565b815201960192019194610806565b346104f05760403660031901126104f05761087a60043561085a611a02565b90806000526065602052610875600160406000200154611f83565b61208e565b005b346104f05760203660031901126104f057600435600052609b6020526080604060002060ff6003820154916005600482015491015490604051938452602084015260018060a01b038116604084015260a01c1615156060820152f35b346104f0576020806003193601126104f057600435600052609c8152604060002060405190818382549182815201908192600052846000209060005b8682821061096a57868661092a82880383611aca565b604051928392818401908285525180915260408401929160005b82811061095357505050500390f35b835185528695509381019392810192600101610944565b835485529093019260019283019201610914565b346104f05760403660031901126104f0576109976119ec565b6001600160a01b03166000908152609e60205260409020805460243591908210156104f0576020916109c891611c7e565b90546040519160031b1c8152f35b346104f05760003660031901126104f057602060405160008152f35b346104f057610a0036611c3b565b9091610a0a611d9b565b60018060a01b0316600052602090609a8252604060002091825415610af3575b6001809301936001600160401b03831161043c57610a5283610a4c8754611a75565b87612265565b600091601f8411600114610a905750928293918392600094610a85575b50501b916000199060031b1c1916179055600080f35b013592508580610a6f565b9183601f1981168760005284600020946000905b88838310610ad95750505010610abf575b505050811b019055005b0135600019600384901b60f8161c19169055838080610ab5565b868601358855909601959384019387935090810190610aa4565b428355610a2a565b346104f05760203660031901126104f057600435600052609c602052610b576040600020610b2b60018201611aeb565b9060ff610b656003610b3f60028501611aeb565b93015492604051958695608087526080870190611bb4565b908582036020870152611bb4565b6001600160a01b038316604085015260a09290921c16151560608301520390f35b346104f05760403660031901126104f057600435610ba2611a02565b6000828152609b6020526040902060058101546001600160a01b0393919060ff90610bda86610bd033612223565b1687831614612302565b60a01c16610c615760010180549390600160401b85101561043c5784610c269160017f9c36476ec530d5b4024edee8143f1fc33550a1ad216d2e678245eb458edcd16c97018155611c7e565b815460039190911b83811b19909116928516901b919091179055604080519182526001600160a01b0390921660208201529081908101610356565b60405162461bcd60e51b8152602060048201526015602482015274141bdb1a58de481a5cc819195858dd1a5d985d1959605a1b6044820152606490fd5b346104f05760403660031901126104f057610cb7611a02565b600435600052606560205260406000209060018060a01b0316600052602052602060ff604060002054166040519015158152f35b346104f05760403660031901126104f057610d046119ec565b6001600160a01b03166000908152609d60205260409020805460243591908210156104f0576020916109c891611c7e565b346104f057610d4336611c3b565b9091610d4d611d9b565b60018060a01b031660005260209060998252604060002091825415610e09575b6001809301936001600160401b03831161043c57610d8f83610a4c8754611a75565b600091601f8411600114610dc15750928293918392600094610a855750501b916000199060031b1c1916179055600080f35b9183601f1981168760005284600020946000905b88838310610def5750505010610abf57505050811b019055005b868601358855909601959384019387935090810190610dd5565b428355610d6d565b346104f0576020806003193601126104f057600435600052609b815260406000208054610e3d81611cac565b91610e4b6040519384611aca565b8183526000908152838120938084015b838310610e70576040518061081b8782611bd9565b6001828192610e7e89611aeb565b815201960192019194610e5b565b346104f05760003660031901126104f05760005460ff8160081c161590818092611076575b801561105f575b156110035760ff198181166001176000559082610ff1575b5060ff60005460081c1615610f9857336000908152600080516020612389833981519152602052604090205460ff1615610f44575b50610f0c57005b61ff0019600054166000557f7f26b83ff96e1f2b6a682f133852f6798a09c465da95921460cefb3847402498602060405160018152a1005b3360008181526000805160206123898339815191526020526040812080549093166001179092559081907f2f8788117e7eff1d82e926ec794901d17c78024a50270940304540a733656f0d8180a481610f05565b60405162461bcd60e51b815260206004820152602b60248201527f496e697469616c697a61626c653a20636f6e7472616374206973206e6f74206960448201526a6e697469616c697a696e6760a81b6064820152608490fd5b61ffff19166101011760005582610ed0565b60405162461bcd60e51b815260206004820152602e60248201527f496e697469616c697a61626c653a20636f6e747261637420697320616c72656160448201526d191e481a5b9a5d1a585b1a5e995960921b6064820152608490fd5b50303b158015610eb85750600160ff821614610eb8565b50600160ff821610610eb1565b346104f05760203660031901126104f05760206110a66110a16119ec565b612223565b6040516001600160a01b039091168152f35b346104f05760203660031901126104f0576001600160a01b036110d96119ec565b16600052609960205260406000206110f5600182549201611aeb565b9061081b6040519283928352604060208401526040830190611bb4565b346104f05760203660031901126104f05760206001600160a01b03806111366119ec565b166000526098825260406000205416604051908152f35b346104f05760403660031901126104f0576004356000818152609c602052604090206003810154602435929060ff9061119b6001600160a01b038061119133612223565b1690831614612345565b60a01c166111de57826111d17f97fd0f78540a5bcd5a6b6af3e260ab088b75e70678c3768ba048e94d701531b3946040946122cd565b82519182526020820152a1005b60405162461bcd60e51b8152602060048201526015602482015274109d58dad95d081a5cc819195858dd1a5d985d1959605a1b6044820152606490fd5b346104f05760203660031901126104f0576001600160a01b0361123c6119ec565b16600052609a60205260406000206110f5600182549201611aeb565b346104f05760803660031901126104f0576001600160401b036024358181116104f057611289903690600401611a18565b90916044358181116104f0576112a3903690600401611a48565b6064929192358281116104f0576112be903690600401611a48565b9190600435600052602094609c8652604060002090600382019760018060a01b03998a8a541661155b5787821161043c57600160401b821161043c57611309828554818755866122aa565b836000528860002060005b83811061154957505050506001938483019187821161043c576113418261133b8554611a75565b85612265565b600090601f83116001146114df57600294939291600091836114d4575b5050600019600383901b1c191690861b1790555b0193831161043c5761138e836113888654611a75565b86612265565b600090601f8411600114611444579280807fe737a3ee8520887c4018b97f640958f8a2ad13444ab4ff075956b54ca1251684999794610356999794609d97600094611439575b50501b916000199060031b1c19161790555b836113f033612223565b168060018060a01b03198554161784556000525261141460043560406000206122cd565b54604080516004358152929091166001600160a01b0316602083015290918291820190565b013592508b806113d4565b601f9392931983169185600052866000209260005b8181106114bf575092609d959285927fe737a3ee8520887c4018b97f640958f8a2ad13444ab4ff075956b54ca12516849b99966103569b9996106114a5575b505050811b0190556113e6565b0135600019600384901b60f8161c19169055898080611498565b83830135855593860193918801918801611459565b013590508c8061135e565b918691949392601f19821690846000528b6000209160005b8d828210611533575050968360029810611519575b505050811b019055611372565b0135600019600384901b60f8161c191690558c808061150c565b838a01358555988901988b9690940193016114f7565b823582820155918a0191600101611314565b60405162461bcd60e51b8152600481018a90526016602482015275109d58dad95d08125108185b1c9958591e481d5cd95960521b6044820152606490fd5b346104f05760403660031901126104f0576115b2611a02565b336001600160a01b038216036115ce5761087a9060043561208e565b60405162461bcd60e51b815260206004820152602f60248201527f416363657373436f6e74726f6c3a2063616e206f6e6c792072656e6f756e636560448201526e103937b632b9903337b91039b2b63360891b6064820152608490fd5b346104f05760403660031901126104f057600435611647611a02565b816000526065602052611661600160406000200154611f83565b81600052606560205260406000209060018060a01b0316908160005260205260ff604060002054161561169057005b8160005260656020526040600020816000526020526040600020600160ff1982541617905533917f2f8788117e7eff1d82e926ec794901d17c78024a50270940304540a733656f0d600080a4005b346104f05760203660031901126104f05760043560005260656020526020600160406000200154604051908152f35b346104f0576020806003193601126104f0576117276119ec565b3360009081526097835260409020546001600160a01b03919082166118455781169081600052609883526040600020541661180b578033146117c6577f926f98e4b543897a75b3e34b7494ba68a47829d3aa39ffd9c478ccc51bfbfb449160409133600052609782528260002060018060a01b0319908282825416179055816000526098835283600020903390825416179055825191338352820152a1005b60405162461bcd60e51b815260048101839052601f60248201527f4d61696e20616e64204150492063616e6e6f74206265207468652073616d65006044820152606490fd5b60405162461bcd60e51b815260048101839052601260248201527110541248185b1c9958591e48189bdb99195960721b6044820152606490fd5b60405162461bcd60e51b815260048101849052601360248201527213585a5b88185b1c9958591e48189bdb991959606a1b6044820152606490fd5b346104f05760003660031901126104f05733600081815260976020818152604080842080546001600160a01b031685526098835281852080546001600160a01b031990811690915594869052928252825490931690915590519182527fc4334c4bd536e76bf4341972a09af796d8fd3c7336b1a827427f6c0b52b6620291a1005b346104f05760203660031901126104f0577f3002681acd76b745f42970dd6c00cd7a2f96c2de284fdfd06e0f8fb11296f650602060043580600052609c8252600360406000200180546106ec60018060a01b038061119133612223565b346104f05760203660031901126104f05760043563ffffffff60e01b81168091036104f057602090637965db0b60e01b81149081156119a3575b506040519015158152f35b6301ffc9a760e01b14905082611998565b346104f05760203660031901126104f0576020906001600160a01b03806119d96119ec565b1660005260978352604060002054168152f35b600435906001600160a01b03821682036104f057565b602435906001600160a01b03821682036104f057565b9181601f840112156104f0578235916001600160401b0383116104f0576020808501948460051b0101116104f057565b9181601f840112156104f0578235916001600160401b0383116104f057602083818601950101116104f057565b90600182811c92168015611aa5575b6020831014611a8f57565b634e487b7160e01b600052602260045260246000fd5b91607f1691611a84565b608081019081106001600160401b0382111761043c57604052565b90601f801991011681019081106001600160401b0382111761043c57604052565b9060405191826000825492611aff84611a75565b908184526001948581169081600014611b6e5750600114611b2b575b5050611b2992500383611aca565b565b9093915060005260209081600020936000915b818310611b56575050611b2993508201013880611b1b565b85548884018501529485019487945091830191611b3e565b915050611b2994506020925060ff191682840152151560051b8201013880611b1b565b60005b838110611ba45750506000910152565b8181015183820152602001611b94565b90602091611bcd81518092818552858086019101611b91565b601f01601f1916010190565b602080820190808352835180925260408301928160408460051b8301019501936000915b848310611c0d5750505050505090565b9091929394958480611c2b600193603f198682030187528a51611bb4565b9801930193019194939290611bfd565b9060406003198301126104f0576004356001600160a01b03811681036104f05791602435906001600160401b0382116104f057611c7a91600401611a48565b9091565b8054821015611c965760005260206000200190600090565b634e487b7160e01b600052603260045260246000fd5b6001600160401b03811161043c5760051b60200190565b90601f8181840112156104f057823592611cdc84611cac565b93604092611cec84519687611aca565b818652602094858088019360051b850101948186116104f057868501935b868510611d1c57505050505050505090565b6001600160401b039085358281116104f05787019084603f830112156104f05789820135928311611d86578351611d5b848801601f19168c0182611aca565b838152858585850101116104f05760008b858196888397018386013783010152815201940193611d0a565b60246000634e487b7160e01b81526041600452fd5b336000908152600080516020612389833981519152602090815260408083205490929060ff1615611dcb57505050565b611dd433612115565b9080845190611de282611aaf565b60428252848201926060368537825115611f6f5760308453825190600191821015611f6f5790607860218501536041915b818311611f0157505050611ebf576048611ebb938693611e9f93611e90985198899376020b1b1b2b9b9a1b7b73a3937b61d1030b1b1b7bab73a1604d1b8a860152611e67815180928c603789019101611b91565b8401917001034b99036b4b9b9b4b733903937b6329607d1b603784015251809386840190611b91565b01036028810187520185611aca565b5192839262461bcd60e51b845260048401526024830190611bb4565b0390fd5b60648486519062461bcd60e51b825280600483015260248201527f537472696e67733a20686578206c656e67746820696e73756666696369656e746044820152fd5b909192600f81166010811015611f5b576f181899199a1a9b1b9c1cb0b131b232b360811b901a611f318587612104565b5360041c928015611f4757600019019190611e13565b634e487b7160e01b82526011600452602482fd5b634e487b7160e01b83526032600452602483fd5b634e487b7160e01b81526032600452602490fd5b60009080825260209060658252604092838120338252835260ff848220541615611fad5750505050565b611fb633612115565b91845190611fc382611aaf565b60428252848201926060368537825115611f6f5760308453825190600191821015611f6f5790607860218501536041915b81831161204857505050611ebf576048611ebb938693611e9f93611e90985198899376020b1b1b2b9b9a1b7b73a3937b61d1030b1b1b7bab73a1604d1b8a860152611e67815180928c603789019101611b91565b909192600f81166010811015611f5b576f181899199a1a9b1b9c1cb0b131b232b360811b901a6120788587612104565b5360041c928015611f4757600019019190611ff4565b906000918083526065602052604083209160018060a01b03169182845260205260ff6040842054166120bf57505050565b8083526065602052604083208284526020526040832060ff1981541690557ff6391f5c32d9c69d2a47ea670b442974b53935d1edc7fd64eb21e047a839171b339380a4565b908151811015611c96570160200190565b60405190606082018281106001600160401b0382111761043c57604052602a8252602082016040368237825115611c9657603090538151600190811015611c9657607860218401536029905b8082116121b55750506121715790565b606460405162461bcd60e51b815260206004820152602060248201527f537472696e67733a20686578206c656e67746820696e73756666696369656e746044820152fd5b9091600f8116601081101561220e576f181899199a1a9b1b9c1cb0b131b232b360811b901a6121e48486612104565b5360041c9180156121f9576000190190612161565b60246000634e487b7160e01b81526011600452fd5b60246000634e487b7160e01b81526032600452fd5b6001600160a01b0381811660009081526098602052604090205416908115612249575090565b905090565b818110612259575050565b6000815560010161224e565b9190601f811161227457505050565b611b29926000526020600020906020601f840160051c830193106122a0575b601f0160051c019061224e565b9091508190612293565b918181106122b757505050565b611b29926000526020600020918201910161224e565b8054600160401b81101561043c576122ea91600182018155611c7e565b819291549060031b91821b91600019901b1916179055565b1561230957565b60405162461bcd60e51b81526020600482015260146024820152732737ba103a3432903837b634b1bc9037bbb732b960611b6044820152606490fd5b1561234c57565b60405162461bcd60e51b81526020600482015260146024820152732737ba103a343290313ab1b5b2ba1037bbb732b960611b6044820152606490fdfeffdfc1249c027f9191656349feb0761381bb32c9f557e01f419fd08754bf5a1ba26469706673582212205d4b5591d479355e6473473fc3b69726b172bc3a172c81d087caaf723b971c8664736f6c63430008130033",
  "linkReferences": {},
  "deployedLinkReferences": {}
}