{
  "_format": "hh-sol-artifact-1",
  "contractName": "Escrow",
  "sourceName": "contracts/Escrow.sol",
  "abi": [
    {
      "inputs": [
        {
          "internalType": "address",
          "name": "_token",
          "type": "address"
        },
        {
          "internalType": "address",
          "name": "_launcher",
          "type": "address"
        },
        {
          "internalType": "address",
          "name": "_admin",
          "type": "address"
        },
        {
          "internalType": "uint256",
          "name": "_duration",
          "type": "uint256"
        }
      ],
      "stateMutability": "nonpayable",
      "type": "constructor"
    },
    {
      "inputs": [
        {
          "internalType": "address",
          "name": "target",
          "type": "address"
        }
      ],
      "name": "AddressEmptyCode",
      "type": "error"
    },
    {
      "inputs": [
        {
          "internalType": "address",
          "name": "account",
          "type": "address"
        }
      ],
      "name": "AddressInsufficientBalance",
      "type": "error"
    },
    {
      "inputs": [],
      "name": "FailedInnerCall",
      "type": "error"
    },
    {
      "inputs": [],
      "name": "ReentrancyGuardReentrantCall",
      "type": "error"
    },
    {
      "inputs": [
        {
          "internalType": "address",
          "name": "token",
          "type": "address"
        }
      ],
      "name": "SafeERC20FailedOperation",
      "type": "error"
    },
    {
      "anonymous": false,
      "inputs": [
        {
          "indexed": true,
          "internalType": "uint256",
          "name": "txId",
          "type": "uint256"
        },
        {
          "indexed": false,
          "internalType": "address[]",
          "name": "recipients",
          "type": "address[]"
        },
        {
          "indexed": false,
          "internalType": "uint256[]",
          "name": "amounts",
          "type": "uint256[]"
        },
        {
          "indexed": false,
          "internalType": "bool",
          "name": "isPartial",
          "type": "bool"
        }
      ],
      "name": "BulkTransfer",
      "type": "event"
    },
    {
      "anonymous": false,
      "inputs": [
        {
          "indexed": true,
          "internalType": "uint256",
          "name": "txId",
          "type": "uint256"
        },
        {
          "indexed": false,
          "internalType": "address[]",
          "name": "recipients",
          "type": "address[]"
        },
        {
          "indexed": false,
          "internalType": "uint256[]",
          "name": "amounts",
          "type": "uint256[]"
        },
        {
          "indexed": false,
          "internalType": "bool",
          "name": "isPartial",
          "type": "bool"
        },
        {
          "indexed": false,
          "internalType": "string",
          "name": "finalResultsUrl",
          "type": "string"
        }
      ],
      "name": "BulkTransferV2",
      "type": "event"
    },
    {
      "anonymous": false,
      "inputs": [
        {
          "indexed": true,
          "internalType": "bytes32",
          "name": "payoutId",
          "type": "bytes32"
        },
        {
          "indexed": false,
          "internalType": "address[]",
          "name": "recipients",
          "type": "address[]"
        },
        {
          "indexed": false,
          "internalType": "uint256[]",
          "name": "amounts",
          "type": "uint256[]"
        },
        {
          "indexed": false,
          "internalType": "bool",
          "name": "isPartial",
          "type": "bool"
        },
        {
          "indexed": false,
          "internalType": "string",
          "name": "finalResultsUrl",
          "type": "string"
        }
      ],
      "name": "BulkTransferV3",
      "type": "event"
    },
    {
      "anonymous": false,
      "inputs": [
        {
          "indexed": false,
          "internalType": "uint256",
          "name": "amount",
          "type": "uint256"
        }
      ],
      "name": "CancellationRefund",
      "type": "event"
    },
    {
      "anonymous": false,
      "inputs": [],
      "name": "CancellationRequested",
      "type": "event"
    },
    {
      "anonymous": false,
      "inputs": [],
      "name": "Cancelled",
      "type": "event"
    },
    {
      "anonymous": false,
      "inputs": [],
      "name": "Completed",
      "type": "event"
    },
    {
      "anonymous": false,
      "inputs": [
        {
          "indexed": false,
          "internalType": "uint256",
          "name": "amount",
          "type": "uint256"
        }
      ],
      "name": "Fund",
      "type": "event"
    },
    {
      "anonymous": false,
      "inputs": [
        {
          "indexed": false,
          "internalType": "string",
          "name": "url",
          "type": "string"
        },
        {
          "indexed": false,
          "internalType": "string",
          "name": "hash",
          "type": "string"
        }
      ],
      "name": "IntermediateStorage",
      "type": "event"
    },
    {
      "anonymous": false,
      "inputs": [
        {
          "indexed": false,
          "internalType": "string",
          "name": "manifest",
          "type": "string"
        },
        {
          "indexed": false,
          "internalType": "string",
          "name": "hash",
          "type": "string"
        }
      ],
      "name": "Pending",
      "type": "event"
    },
    {
      "anonymous": false,
      "inputs": [
        {
          "indexed": false,
          "internalType": "string",
          "name": "manifest",
          "type": "string"
        },
        {
          "indexed": false,
          "internalType": "string",
          "name": "hash",
          "type": "string"
        },
        {
          "indexed": false,
          "internalType": "address",
          "name": "reputationOracle",
          "type": "address"
        },
        {
          "indexed": false,
          "internalType": "address",
          "name": "recordingOracle",
          "type": "address"
        },
        {
          "indexed": false,
          "internalType": "address",
          "name": "exchangeOracle",
          "type": "address"
        }
      ],
      "name": "PendingV2",
      "type": "event"
    },
    {
      "anonymous": false,
      "inputs": [
        {
          "indexed": false,
          "internalType": "address",
          "name": "token",
          "type": "address"
        },
        {
          "indexed": false,
          "internalType": "uint256",
          "name": "amount",
          "type": "uint256"
        }
      ],
      "name": "Withdraw",
      "type": "event"
    },
    {
      "inputs": [],
      "name": "admin",
      "outputs": [
        {
          "internalType": "address",
          "name": "",
          "type": "address"
        }
      ],
      "stateMutability": "view",
      "type": "function"
    },
    {
      "inputs": [
        {
          "internalType": "address[]",
          "name": "_recipients",
          "type": "address[]"
        },
        {
          "internalType": "uint256[]",
          "name": "_amounts",
          "type": "uint256[]"
        },
        {
          "internalType": "string",
          "name": "_url",
          "type": "string"
        },
        {
          "internalType": "string",
          "name": "_hash",
          "type": "string"
        },
        {
          "internalType": "string",
          "name": "_payoutId",
          "type": "string"
        },
        {
          "internalType": "bool",
          "name": "forceComplete",
          "type": "bool"
        }
      ],
      "name": "bulkPayOut",
      "outputs": [],
      "stateMutability": "nonpayable",
      "type": "function"
    },
    {
      "inputs": [
        {
          "internalType": "address[]",
          "name": "_recipients",
          "type": "address[]"
        },
        {
          "internalType": "uint256[]",
          "name": "_amounts",
          "type": "uint256[]"
        },
        {
          "internalType": "string",
          "name": "_url",
          "type": "string"
        },
        {
          "internalType": "string",
          "name": "_hash",
          "type": "string"
        },
        {
          "internalType": "uint256",
          "name": "_txId",
          "type": "uint256"
        },
        {
          "internalType": "bool",
          "name": "forceComplete",
          "type": "bool"
        }
      ],
      "name": "bulkPayOut",
      "outputs": [],
      "stateMutability": "nonpayable",
      "type": "function"
    },
    {
      "inputs": [],
      "name": "cancel",
      "outputs": [],
      "stateMutability": "nonpayable",
      "type": "function"
    },
    {
      "inputs": [],
      "name": "complete",
      "outputs": [],
      "stateMutability": "nonpayable",
      "type": "function"
    },
    {
      "inputs": [],
      "name": "duration",
      "outputs": [
        {
          "internalType": "uint256",
          "name": "",
          "type": "uint256"
        }
      ],
      "stateMutability": "view",
      "type": "function"
    },
    {
      "inputs": [],
      "name": "escrowFactory",
      "outputs": [
        {
          "internalType": "address",
          "name": "",
          "type": "address"
        }
      ],
      "stateMutability": "view",
      "type": "function"
    },
    {
      "inputs": [],
      "name": "exchangeOracle",
      "outputs": [
        {
          "internalType": "address",
          "name": "",
          "type": "address"
        }
      ],
      "stateMutability": "view",
      "type": "function"
    },
    {
      "inputs": [],
      "name": "exchangeOracleFeePercentage",
      "outputs": [
        {
          "internalType": "uint8",
          "name": "",
          "type": "uint8"
        }
      ],
      "stateMutability": "view",
      "type": "function"
    },
    {
      "inputs": [],
      "name": "finalResultsHash",
      "outputs": [
        {
          "internalType": "string",
          "name": "",
          "type": "string"
        }
      ],
      "stateMutability": "view",
      "type": "function"
    },
    {
      "inputs": [],
      "name": "finalResultsUrl",
      "outputs": [
        {
          "internalType": "string",
          "name": "",
          "type": "string"
        }
      ],
      "stateMutability": "view",
      "type": "function"
    },
    {
      "inputs": [],
      "name": "getBalance",
      "outputs": [
        {
          "internalType": "uint256",
          "name": "",
          "type": "uint256"
        }
      ],
      "stateMutability": "view",
      "type": "function"
    },
    {
      "inputs": [
        {
          "internalType": "address",
          "name": "_token",
          "type": "address"
        }
      ],
      "name": "getTokenBalance",
      "outputs": [
        {
          "internalType": "uint256",
          "name": "",
          "type": "uint256"
        }
      ],
      "stateMutability": "view",
      "type": "function"
    },
    {
      "inputs": [],
      "name": "intermediateResultsHash",
      "outputs": [
        {
          "internalType": "string",
          "name": "",
          "type": "string"
        }
      ],
      "stateMutability": "view",
      "type": "function"
    },
    {
      "inputs": [],
      "name": "intermediateResultsUrl",
      "outputs": [
        {
          "internalType": "string",
          "name": "",
          "type": "string"
        }
      ],
      "stateMutability": "view",
      "type": "function"
    },
    {
      "inputs": [],
      "name": "launcher",
      "outputs": [
        {
          "internalType": "address",
          "name": "",
          "type": "address"
        }
      ],
      "stateMutability": "view",
      "type": "function"
    },
    {
      "inputs": [],
      "name": "manifestHash",
      "outputs": [
        {
          "internalType": "string",
          "name": "",
          "type": "string"
        }
      ],
      "stateMutability": "view",
      "type": "function"
    },
    {
      "inputs": [],
      "name": "manifestUrl",
      "outputs": [
        {
          "internalType": "string",
          "name": "",
          "type": "string"
        }
      ],
      "stateMutability": "view",
      "type": "function"
    },
    {
      "inputs": [],
      "name": "recordingOracle",
      "outputs": [
        {
          "internalType": "address",
          "name": "",
          "type": "address"
        }
      ],
      "stateMutability": "view",
      "type": "function"
    },
    {
      "inputs": [],
      "name": "recordingOracleFeePercentage",
      "outputs": [
        {
          "internalType": "uint8",
          "name": "",
          "type": "uint8"
        }
      ],
      "stateMutability": "view",
      "type": "function"
    },
    {
      "inputs": [],
      "name": "remainingFunds",
      "outputs": [
        {
          "internalType": "uint256",
          "name": "",
          "type": "uint256"
        }
      ],
      "stateMutability": "view",
      "type": "function"
    },
    {
      "inputs": [],
      "name": "reputationOracle",
      "outputs": [
        {
          "internalType": "address",
          "name": "",
          "type": "address"
        }
      ],
      "stateMutability": "view",
      "type": "function"
    },
    {
      "inputs": [],
      "name": "reputationOracleFeePercentage",
      "outputs": [
        {
          "internalType": "uint8",
          "name": "",
          "type": "uint8"
        }
      ],
      "stateMutability": "view",
      "type": "function"
    },
    {
      "inputs": [],
      "name": "requestCancellation",
      "outputs": [],
      "stateMutability": "nonpayable",
      "type": "function"
    },
    {
      "inputs": [],
      "name": "reservedFunds",
      "outputs": [
        {
          "internalType": "uint256",
          "name": "",
          "type": "uint256"
        }
      ],
      "stateMutability": "view",
      "type": "function"
    },
    {
      "inputs": [
        {
          "internalType": "address",
          "name": "_reputationOracle",
          "type": "address"
        },
        {
          "internalType": "address",
          "name": "_recordingOracle",
          "type": "address"
        },
        {
          "internalType": "address",
          "name": "_exchangeOracle",
          "type": "address"
        },
        {
          "internalType": "uint8",
          "name": "_reputationOracleFeePercentage",
          "type": "uint8"
        },
        {
          "internalType": "uint8",
          "name": "_recordingOracleFeePercentage",
          "type": "uint8"
        },
        {
          "internalType": "uint8",
          "name": "_exchangeOracleFeePercentage",
          "type": "uint8"
        },
        {
          "internalType": "string",
          "name": "_url",
          "type": "string"
        },
        {
          "internalType": "string",
          "name": "_hash",
          "type": "string"
        }
      ],
      "name": "setup",
      "outputs": [],
      "stateMutability": "nonpayable",
      "type": "function"
    },
    {
      "inputs": [],
      "name": "status",
      "outputs": [
        {
          "internalType": "enum IEscrow.EscrowStatuses",
          "name": "",
          "type": "uint8"
        }
      ],
      "stateMutability": "view",
      "type": "function"
    },
    {
      "inputs": [
        {
          "internalType": "string",
          "name": "_url",
          "type": "string"
        },
        {
          "internalType": "string",
          "name": "_hash",
          "type": "string"
        }
      ],
      "name": "storeResults",
      "outputs": [],
      "stateMutability": "nonpayable",
      "type": "function"
    },
    {
      "inputs": [
        {
          "internalType": "string",
          "name": "_url",
          "type": "string"
        },
        {
          "internalType": "string",
          "name": "_hash",
          "type": "string"
        },
        {
          "internalType": "uint256",
          "name": "_fundsToReserve",
          "type": "uint256"
        }
      ],
      "name": "storeResults",
      "outputs": [],
      "stateMutability": "nonpayable",
      "type": "function"
    },
    {
      "inputs": [],
      "name": "token",
      "outputs": [
        {
          "internalType": "address",
          "name": "",
          "type": "address"
        }
      ],
      "stateMutability": "view",
      "type": "function"
    },
    {
      "inputs": [
        {
          "internalType": "address",
          "name": "_token",
          "type": "address"
        }
      ],
      "name": "withdraw",
      "outputs": [],
      "stateMutability": "nonpayable",
      "type": "function"
    }
  ],
  "bytecode": "0x610100346200021c57601f62002d7338819003918201601f19168301916001600160401b0383118484101762000221578084926080946040528339810103126200021c576200004e8162000237565b906200005d6020820162000237565b60606200006d6040840162000237565b920151600160005592620000c96001600160a01b036200009b620000906200024c565b828616151562000285565b620000b4620000a96200024c565b828716151562000285565b620000be6200024c565b908316151562000285565b8315620001e75760e05260805260a0523360c05260ff1960015416600155428101809111620001d157600a55604051612a839081620002f0823960805181818161088301528181610b95015281816111b3015281816114da0152818161212b015281816126cc01526128cc015260a051818181610201015281816102d9015281816108d501528181610993015281816111690152818161125901528181611362015281816114070152611725015260c05181610ed1015260e05181818161018a0152818161048501528181610bb60152818161144301528181611c8201528181611d1401528181611d8d01528181611ee0015281816121720152818161268a01526128ed0152f35b634e487b7160e01b600052601160045260246000fd5b60405162461bcd60e51b815260206004820152600d60248201526c04475726174696f6e206973203609c1b6044820152606490fd5b600080fd5b634e487b7160e01b600052604160045260246000fd5b51906001600160a01b03821682036200021c57565b60408051919082016001600160401b038111838210176200022157604052600c82526b5a65726f206164647265737360a01b6020830152565b156200028e5750565b6040519062461bcd60e51b82528160208060048301528251908160248401526000935b828510620002d5575050604492506000838284010152601f80199101168101030190fd5b8481018201518686016044015293810193859350620002b156fe60c080604052600436101561001357600080fd5b60003560e01c9081630ae9dfad14612242575080630f46c9aa146121b45780630fb5a6b41461219657806312065fe01461215a57806316eebd1e14612115578063200d2ed2146120eb57806331fc48f014611666578063337f3f32146115d85780633aecd0e3146115ad57806343aba9c21461151f578063509c5df61461150157806351cff8d9146113c1578063522e11771461133757806355bf1d6a146112a8578063697e4b87146111ff57806378c62420146111db57806381972d001461114b5780639753e432146111225780639c48b10214611094578063a05220ad1461106b578063a5aa542e1461104d578063b8deafd814610fbf578063ba5fed3414610f00578063bdd1daaa14610ebb578063c479bbf814610e97578063cd99f2301461093b578063ea8a1af0146108aa578063f56679cf14610230578063f851a440146101eb578063fad844c1146101be5763fc0c546a1461017457600080fd5b346101b95760003660031901126101b9576040517f00000000000000000000000000000000000000000000000000000000000000006001600160a01b03168152602090f35b600080fd5b346101b95760003660031901126101b95760015460405160089190911c6001600160a01b03168152602090f35b346101b95760003660031901126101b9576040517f00000000000000000000000000000000000000000000000000000000000000006001600160a01b03168152602090f35b346101b9576101003660031901126101b95761024a612375565b6024356001600160a01b0380821682036101b9576044359080821682036101b95760ff60643516606435036101b95760ff60843516608435036101b95760ff60a4351660a435036101b95760c4356001600160401b0381116101b9576102b4903690600401612339565b60e4356001600160401b0381116101b9576102d3903690600401612339565b969093807f0000000000000000000000000000000000000000000000000000000000000000163314801561087f575b61030b9061238b565b610318600a5442106123c6565b8082161561083e57808716156107fe57808616156107bf57606460ff61034c60a4356103476084358535612738565b612738565b161161077f5760015460ff811660078110156107695761073557610100600160a81b031916600883901b610100600160a81b031617600155600280546001600160a01b0319168883161790556003805460843560a81b60ff60a81b1660643560a01b60ff60a01b166001600160b81b031990921689851617919091171760a43560b01b60ff60b01b161790556001600160401b038311610652576103f1600454612263565b601f81116106e6575b50826000601f821160011461067357600091610668575b508360011b906000198560031b1c1916176004555b6001600160401b0388116106525761043f600554612263565b601f811161060d575b50876000601f821160011461058257600091610577575b508860011b906000198a60031b1c1916176005555b600160ff19815416176001556104a97f0000000000000000000000000000000000000000000000000000000000000000612501565b9586600c5586156105435781602098816105247ff3bcd83b3ad174382a0f0ee29dcba2eee468d36f13021623af7de1539e268074997f27b2dc149fd3048bc27eadaaf660801a04305c72845da74066a17b72d6c5bb669d6105176040519b8c9b60a08d5260a08d01916124e0565b918a83038f8c01526124e0565b951660408701521660608501521660808301520390a1604051908152a1005b60405162461bcd60e51b815260206004820152600c60248201526b5a65726f2062616c616e636560a01b6044820152606490fd5b90508501358961045f565b600560009081527f036b6384b5eca791c62761152d0c79bb0604c104a5fb6f4eb0703f3154bb3db092508a90601f1982169060205b8282106105f0575050106105d6575b5050600188811b01600555610474565b86013560001960038b901b60f8161c1916905588806105c6565b80929350600185968293968d0135815501950193018c92916105b7565b60056000526020600020601f8a0160051c810160208b1061064b575b601f830160051c8201811061063f575050610448565b60008155600101610629565b5080610629565b634e487b7160e01b600052604160045260246000fd5b905084013589610411565b60046000908152600080516020612a2e83398151915292505b601f19861681106106ce575084601f198116106106b4575b5050600183811b01600455610426565b850135600019600386901b60f8161c1916905588806106a4565b9091602060018192858a01358155019301910161068c565b6004600052600080516020612a2e833981519152601f850160051c81016020861061072e575b601f830160051c820181106107225750506103fa565b6000815560010161070c565b508061070c565b60405162461bcd60e51b815260206004820152600c60248201526b57726f6e672073746174757360a01b6044820152606490fd5b634e487b7160e01b600052602160045260246000fd5b60405162461bcd60e51b815260206004820152601860248201527750657263656e74616765206f7574206f6620626f756e647360401b6044820152606490fd5b60405162461bcd60e51b8152602060048201526017602482015276496e76616c69642065786368616e6765206f7261636c6560481b6044820152606490fd5b60405162461bcd60e51b8152602060048201526018602482015277496e76616c6964207265636f7264696e67206f7261636c6560401b6044820152606490fd5b60405162461bcd60e51b8152602060048201526019602482015278496e76616c69642072657075746174696f6e206f7261636c6560381b6044820152606490fd5b50337f0000000000000000000000000000000000000000000000000000000000000000821614610302565b346101b95760003660031901126101b9576108c8600a5442106123c6565b61090560018060a01b03807f000000000000000000000000000000000000000000000000000000000000000016331490811561092a575b5061238b565b60ff6001541660078110156107695760066109209114612592565b610928612851565b005b905060015460081c163314826108ff565b346101b95760603660031901126101b9576004356001600160401b0381116101b95761096b903690600401612339565b906024356001600160401b0381116101b95761098b903690600401612339565b9092909190337f00000000000000000000000000000000000000000000000000000000000000006001600160a01b0316148015610e83575b6109cc9061238b565b6109d9600a5442106123c6565b60ff600154166007811015806107695760018214908115610e76575b8115610e63575b50610a079150612592565b604435610df5575b610a1e600c54600d54906124ab565b60443511610db0576001600160401b03811161065257610a3f600654612263565b601f8111610d61575b50806000601f8211600114610cee57600091610ce3575b508160011b906000198360031b1c1916176006555b6001600160401b03831161065257610a8d600754612263565b601f8111610c7e575b50600093601f8411600114610c0157610b10908460008051602061298e8339815191529596600091610bf6575b508660011b906000198860031b1c1916176007555b610ae6604435600d54612474565b9586600d55610b026040519586956040875260408701916124e0565b9184830360208601526124e0565b0390a160ff60015416600781101561076957600614610b2b57005b610b3790600c546124ab565b80610b6a575b50600c5415610b4857005b600560ff1960015416176001556000805160206129ae833981519152600080a1005b7f4b1258c7a3c571dbdb0bf09839743cf12ad7e511407472fe5620a13043e67eb990602090610be3817f00000000000000000000000000000000000000000000000000000000000000007f00000000000000000000000000000000000000000000000000000000000000006001600160a01b031661276f565b604051908152a1600d54600c5580610b3d565b905081013587610ac3565b6007600052602060002060005b601f1986168110610c66575090610b1091859660008051602061298e83398151915296601f19811610610c4c575b5050600186811b01600755610ad8565b820135600019600389901b60f8161c191690558680610c3c565b82870135825560209687019660019092019101610c0e565b60076000527fa66cc928b5edb82af9bd49922954155ab7b0942694bea4ce44661d9a8736c688601f850160051c81019160208610610cd9575b601f0160051c01905b818110610ccd5750610a96565b60008155600101610cc0565b9091508190610cb7565b905082013585610a5f565b60066000908152600080516020612a0e83398151915292505b601f1984168110610d49575082601f19811610610d2f575b5050600181811b01600655610a74565b830135600019600384901b60f8161c191690558480610d1f565b90916020600181928588013581550193019101610d07565b6006600052600080516020612a0e833981519152601f830160051c810160208410610da9575b601f830160051c82018110610d9d575050610a48565b60008155600101610d87565b5080610d87565b60405162461bcd60e51b815260206004820152601d60248201527f496e73756666696369656e7420756e72657365727665642066756e64730000006044820152606490fd5b8015610e325782610a0f5760405162461bcd60e51b815260206004820152600a60248201526908adae0e8f240d0c2e6d60b31b6044820152606490fd5b60405162461bcd60e51b8152602060048201526009602482015268115b5c1d1e4815549360ba1b6044820152606490fd5b9050610769576006610a079114866109fc565b50506002811460006109f5565b506002546001600160a01b031633146109c3565b346101b95760003660031901126101b957602060ff60035460a01c16604051908152f35b346101b95760003660031901126101b9576040517f00000000000000000000000000000000000000000000000000000000000000006001600160a01b03168152602090f35b346101b95760003660031901126101b957604051600090600654610f2381612263565b808352602091600190818116908115610f9f5750600114610f5f575b610f5b84610f4f8188038261229d565b604051918291826122c0565b0390f35b919350600660005283600020916000925b828410610f8c5750505081610f5b93610f4f9282010193610f3f565b8054858501870152928501928101610f70565b60ff1916858501525050151560051b8201019150610f4f81610f5b610f3f565b346101b95760003660031901126101b957604051600090600754610fe281612263565b808352602091600190818116908115610f9f575060011461100d57610f5b84610f4f8188038261229d565b919350600760005283600020916000925b82841061103a5750505081610f5b93610f4f9282010193610f3f565b805485850187015292850192810161101e565b346101b95760003660031901126101b9576020600c54604051908152f35b346101b95760003660031901126101b9576003546040516001600160a01b039091168152602090f35b346101b95760003660031901126101b9576040516000906004546110b781612263565b808352602091600190818116908115610f9f57506001146110e257610f5b84610f4f8188038261229d565b919350600460005283600020916000925b82841061110f5750505081610f5b93610f4f9282010193610f3f565b80548585018701529285019281016110f3565b346101b95760003660031901126101b9576002546040516001600160a01b039091168152602090f35b346101b95760003660031901126101b95761119860018060a01b03807f00000000000000000000000000000000000000000000000000000000000000001633149081156111af575061238b565b6111a061274c565b6111a861260b565b6001600055005b90507f0000000000000000000000000000000000000000000000000000000000000000163314826108ff565b346101b95760003660031901126101b957602060ff60035460a81c16604051908152f35b346101b95760403660031901126101b9576001600160401b036004358181116101b957611230903690600401612339565b50506024359081116101b95761124a903690600401612339565b505061128860018060a01b03807f000000000000000000000000000000000000000000000000000000000000000016331490811561129a575061238b565b611295600a5442106123c6565b6125cf565b9050600254163314826108ff565b346101b95760c03660031901126101b9576001600160401b036004358181116101b9576112d9903690600401612309565b50506024358181116101b9576112f3903690600401612309565b50506044358181116101b95761130d903690600401612339565b50506064359081116101b957611327903690600401612339565b5050611331612366565b506125cf565b346101b95760003660031901126101b957611355600a5442106123c6565b61139160018060a01b03807f000000000000000000000000000000000000000000000000000000000000000016331490811561092a575061238b565b60ff6001541660078110156107695780600361092092149081156113b6575b50612592565b6002915014826113b0565b346101b95760203660031901126101b9577f884edad9ce6fa2440d8a54cc123490eb96d2768479d49ff9c7366125a94243646113fb612375565b6001600160a01b0390337f000000000000000000000000000000000000000000000000000000000000000083161480156114d6575b6114399061238b565b61144161274c565b7f000000000000000000000000000000000000000000000000000000000000000082821692811683146000146114c2576114946114806114a992612501565b600c549061148f828211612417565b6124ab565b80935b6114a2821515612417565b339061276f565b6114b860405192839283612577565b0390a16001600055005b506114a96114cf82612501565b8093611497565b50337f0000000000000000000000000000000000000000000000000000000000000000831614611430565b346101b95760003660031901126101b9576020600d54604051908152f35b346101b95760003660031901126101b95760405160009060085461154281612263565b808352602091600190818116908115610f9f575060011461156d57610f5b84610f4f8188038261229d565b919350600860005283600020916000925b82841061159a5750505081610f5b93610f4f9282010193610f3f565b805485850187015292850192810161157e565b346101b95760203660031901126101b95760206115d06115cb612375565b612501565b604051908152f35b346101b95760003660031901126101b9576040516000906005546115fb81612263565b808352602091600190818116908115610f9f575060011461162657610f5b84610f4f8188038261229d565b919350600560005283600020916000925b8284106116535750505081610f5b93610f4f9282010193610f3f565b8054858501870152928501928101611637565b346101b95760c03660031901126101b9576004356001600160401b0381116101b957611696903690600401612309565b6024356001600160401b0381116101b9576116b5903690600401612309565b92906044356001600160401b0381116101b9576116d6903690600401612339565b90936064356001600160401b0381116101b9576116f7903690600401612339565b916084356001600160401b0381116101b957611717903690600401612339565b9590611721612366565b96337f00000000000000000000000000000000000000000000000000000000000000006001600160a01b03161480156120d1575b61175e9061238b565b61176b600a5442106123c6565b61177361274c565b61177c816123fc565b9161178a604051938461229d565b81835236828201116101b95781600092602092838601378301015260208151910120966117ba600c541515612417565b87600052600b60205260ff604060002054166120925789830361205b5789156120265760648311611feb5785151580611fe2575b15611fac5760009160005b848110611f525750600d548311611f1a5760008091600093600387018711611ce7579193929161182b60038801612481565b60405160a05260a0519061183e9161229d565b6003870160a051526003870161185390612481565b601f19013660a0516020013761186b60038801612481565b9d6040519e8f9061187c908261229d565b6003890180825261188c90612481565b601f19013660208301376000905b898210611ddf575050505050909160ff60035460a01c16611d73575b5060ff60035460a81c16611cfd575b5060035460ff8160b01c16611c6e575b50506118f391506118e881600c546124ab565b600c55600d546124ab565b600d556001600160401b0383116106525761190f600854612263565b601f8111611c1f575b50826000601f8211600114611bab57600091611ba0575b508360011b906000198560031b1c1916176008555b6001600160401b03821161065257819061195f600954612263565b601f8111611b45575b50600090601f8311600114611ad057600092611ac5575b50508160011b916000199060031b1c1916176009555b82600052600b6020526040600020600160ff19825416179055600c5415159182611abc575b506040519160808301608084528651809152602060a0850197019060005b818110611a9d575050508286036020840152602060a05151968781520195602060a051019060005b818110611a875750505091611a498682937f4978e39002e809a60752342088a961384e6686990e1a8380343a80c16df2f1f29515978815604086015284830360608601526124e0565b0390a215611a59576111a8612851565b60015460ff8116600781101561076957600603611a77575b506111a8565b60ff191660021760015580611a71565b8251895260209889019890920191600101611a00565b82516001600160a01b03168952602098890198909201916001016119d8565b159150856119ba565b01359050878061197f565b6009600090815293506000805160206129ee833981519152915b601f1984168510611b2d576001945083601f19811610611b13575b505050811b01600955611995565b0135600019600384901b60f8161c19169055878080611b05565b81810135835560209485019460019093019201611aea565b60096000529091506000805160206129ee833981519152601f840160051c810160208510611b99575b90849392915b601f830160051c82018110611b8a575050611968565b60008155859450600101611b74565b5080611b6e565b90508601358861192f565b600860009081526000805160206129ce83398151915292508590601f198216905b818110611c04575010611bea575b5050600183811b01600855611944565b870135600019600386901b60f8161c191690558780611bda565b8a840135855560019094019360209384019388935001611bcc565b60086000526000805160206129ce833981519152601f850160051c810160208610611c67575b601f830160051c82018110611c5b575050611918565b60008155600101611c45565b5080611c45565b611ca79082906001600160a01b03908116907f00000000000000000000000000000000000000000000000000000000000000001661276f565b6003546001600160a01b031692600281018111611ce7576002816118f395611cd58e84611cdf9601906124b8565b520160a0516124b8565b5289806118d5565b634e487b7160e01b600052601160045260246000fd5b600254611d399082906001600160a01b03908116907f00000000000000000000000000000000000000000000000000000000000000001661276f565b6002546001600160a01b0316600185018511611ce757611d5c600186018d6124b8565b52611d6c6001850160a0516124b8565b528a6118c5565b600154611db290829060081c6001600160a01b03908116907f00000000000000000000000000000000000000000000000000000000000000001661276f565b60015460081c6001600160a01b0316611dcb868e6124b8565b52611dd88560a0516124b8565b528b6118b6565b8190611dec82858861244e565b3598899760035490898260a01c60ff1690611e0691612498565b606490049283611e1d8c60ff60a887901c16612498565b606490049b8c9460b01c60ff1690611e3491612498565b60649004608052611e4491612474565b99611e4e91612474565b99608051611e5b91612474565b9a60805192611e69916124ab565b90611e73916124ab565b90611e7d916124ab565b8260a05190611e8b916124b8565b52611e97828c8761244e565b611ea0906124cc565b91611eaa916124b8565b6001600160a01b039091169052611ec2818a8561244e565b611ecb906124cc565b8160a05190611ed9916124b8565b51611f0d917f00000000000000000000000000000000000000000000000000000000000000006001600160a01b031661276f565b6001018f9695949661189a565b60405162461bcd60e51b815260206004820152601060248201526f4e6f7420656e6f7567682066756e647360801b6044820152606490fd5b92611f5e848d8461244e565b35908115611f7957600191611f7291612474565b93016117f9565b60405162461bcd60e51b815260206004820152600b60248201526a16995c9bc8185b5bdd5b9d60aa1b6044820152606490fd5b60405162461bcd60e51b815260206004820152600e60248201526d08adae0e8f240eae4d85ed0c2e6d60931b6044820152606490fd5b508415156117ee565b60405162461bcd60e51b8152602060048201526013602482015272546f6f206d616e7920726563697069656e747360681b6044820152606490fd5b60405162461bcd60e51b815260206004820152600d60248201526c456d70747920616d6f756e747360981b6044820152606490fd5b60405162461bcd60e51b815260206004820152600f60248201526e098cadccee8d040dad2e6dac2e8c6d608b1b6044820152606490fd5b60405162461bcd60e51b81526020600482015260176024820152767061796f7574496420616c72656164792065786973747360481b6044820152606490fd5b506001543360089190911c6001600160a01b031614611755565b346101b95760003660031901126101b95760ff600154166040516007821015610769576020918152f35b346101b95760003660031901126101b9576040517f00000000000000000000000000000000000000000000000000000000000000006001600160a01b03168152602090f35b346101b95760003660031901126101b95760206115d07f0000000000000000000000000000000000000000000000000000000000000000612501565b346101b95760003660031901126101b9576020600a54604051908152f35b346101b95760003660031901126101b9576040516000906009546121d781612263565b808352602091600190818116908115610f9f575060011461220257610f5b84610f4f8188038261229d565b919350600960005283600020916000925b82841061222f5750505081610f5b93610f4f9282010193610f3f565b8054858501870152928501928101612213565b346101b95760003660031901126101b95760209060ff60035460b01c168152f35b90600182811c92168015612293575b602083101461227d57565b634e487b7160e01b600052602260045260246000fd5b91607f1691612272565b601f909101601f19168101906001600160401b0382119082101761065257604052565b6020808252825181830181905290939260005b8281106122f557505060409293506000838284010152601f8019910116010190565b8181018601518482016040015285016122d3565b9181601f840112156101b9578235916001600160401b0383116101b9576020808501948460051b0101116101b957565b9181601f840112156101b9578235916001600160401b0383116101b957602083818601950101116101b957565b60a4359081151582036101b957565b600435906001600160a01b03821682036101b957565b1561239257565b60405162461bcd60e51b815260206004820152600c60248201526b155b985d5d1a1bdc9a5cd95960a21b6044820152606490fd5b156123cd57565b60405162461bcd60e51b8152602060048201526007602482015266115e1c1a5c995960ca1b6044820152606490fd5b6001600160401b03811161065257601f01601f191660200190565b1561241e57565b60405162461bcd60e51b81526020600482015260086024820152674e6f2066756e647360c01b6044820152606490fd5b919081101561245e5760051b0190565b634e487b7160e01b600052603260045260246000fd5b91908201809211611ce757565b6001600160401b0381116106525760051b60200190565b81810292918115918404141715611ce757565b91908203918211611ce757565b805182101561245e5760209160051b010190565b356001600160a01b03811681036101b95790565b908060209392818452848401376000828201840152601f01601f1916010190565b6040516370a0823160e01b815230600482015290602090829060249082906001600160a01b03165afa90811561256b5760009161253c575090565b90506020813d602011612563575b816125576020938361229d565b810103126101b9575190565b3d915061254a565b6040513d6000823e3d90fd5b6001600160a01b039091168152602081019190915260400190565b1561259957565b60405162461bcd60e51b815260206004820152600e60248201526d496e76616c69642073746174757360901b6044820152606490fd5b60405162461bcd60e51b8152602060048201526014602482015273444550524543415445445f5349474e415455524560601b6044820152606490fd5b600c5415801590612722575b61262090612592565b60015460ff8116600660ff19809316176001556000907f24793289dcb58fa686016edbde5e8ff0e690d448c5e88589a5c80aa9147610948280a1600a544210156127155760078110156127015715612676575050565b60056000805160206129ae833981519152927f00000000000000000000000000000000000000000000000000000000000000006126b281612501565b806126c6575b5050600154161760015580a1565b6126fa917f0000000000000000000000000000000000000000000000000000000000000000906001600160a01b031661276f565b38806126b8565b634e487b7160e01b82526021600452602482fd5b505050612720612851565b565b5060ff6001541660078110156107695715612617565b9060ff8091169116019060ff8211611ce757565b60026000541461275d576002600055565b604051633ee5aeb560e01b8152600490fd5b6127ea906127a661279894604051958691602083019663a9059cbb60e01b885260248401612577565b03601f19810186528561229d565b60018060a01b031692600080938192519082875af13d15612849573d906127cc826123fc565b916127da604051938461229d565b82523d84602084013e5b8461292a565b90815191821515928361281a575b5050506128025750565b60249060405190635274afe760e01b82526004820152fd5b81929350906020918101031261284557602001519081159182150361284257503880806127f8565b80fd5b5080fd5b6060906127e4565b600c54806128c6575b5060015460ff81166007811015610769576006036128955750600560ff1960015416176001556000805160206129ae833981519152600080a1565b60ff19166004176001557fe06452d00b2b58f14a1fa6d499ea982ff93ea827ae700ea9ba03f4daddc94bc1600080a1565b61291a907f00000000000000000000000000000000000000000000000000000000000000007f00000000000000000000000000000000000000000000000000000000000000006001600160a01b031661276f565b6000600c556000600d553861285a565b90612951575080511561293f57805190602001fd5b604051630a12f52160e11b8152600490fd5b81511580612984575b612962575090565b604051639996b31560e01b81526001600160a01b039091166004820152602490fd5b50803b1561295a56feb20e0717219840fd5684a80bec782e8babb56ea224f677561b791a61192605c163b958841f79ab97cb5456da181454b9932c0e15a3b17f1cbd27e2a8bc610437f3f7a9fe364faab93b216da50a3214154f22a0a2b415b23a84c8169e8b636ee36e1540171b6c0c960b71a7020d9f60077f6af931a8bbf590da0223dacf75c7aff652222313e28459528d920b65115c16c04f3efc82aaedc97be59f3f377c0d3f8a35acfbc15ff81a39ae7d344fd709f28e8600b4aa8c65c6b64bfe7fe36bd19ba2646970667358221220919fdcf55db96604a42e01ed2584ebb392954ec88d220cb3d210b2104f0b131264736f6c63430008170033",
  "linkReferences": {},
  "deployedLinkReferences": {}
}