{
  "_format": "hh-sol-artifact-1",
  "contractName": "DAOSpokeContract",
  "sourceName": "contracts/governance/DAOSpokeContract.sol",
  "abi": [
    {
      "inputs": [
        {
          "internalType": "bytes32",
          "name": "_hubContractAddress",
          "type": "bytes32"
        },
        {
          "internalType": "uint16",
          "name": "_hubContractChainId",
          "type": "uint16"
        },
        {
          "internalType": "contract IVotes",
          "name": "_token",
          "type": "address"
        },
        {
          "internalType": "uint256",
          "name": "_targetSecondsPerBlock",
          "type": "uint256"
        },
        {
          "internalType": "uint16",
          "name": "_chainId",
          "type": "uint16"
        },
        {
          "internalType": "address",
          "name": "_wormholeRelayerAddress",
          "type": "address"
        },
        {
          "internalType": "address",
          "name": "_magistrateAddress",
          "type": "address"
        }
      ],
      "stateMutability": "nonpayable",
      "type": "constructor"
    },
    {
      "anonymous": false,
      "inputs": [
        {
          "indexed": true,
          "internalType": "address",
          "name": "previousMagistrate",
          "type": "address"
        },
        {
          "indexed": true,
          "internalType": "address",
          "name": "newMagistrate",
          "type": "address"
        }
      ],
      "name": "MagistrateChanged",
      "type": "event"
    },
    {
      "anonymous": false,
      "inputs": [
        {
          "indexed": true,
          "internalType": "address",
          "name": "voter",
          "type": "address"
        },
        {
          "indexed": false,
          "internalType": "uint256",
          "name": "proposalId",
          "type": "uint256"
        },
        {
          "indexed": false,
          "internalType": "uint8",
          "name": "support",
          "type": "uint8"
        },
        {
          "indexed": false,
          "internalType": "uint256",
          "name": "weight",
          "type": "uint256"
        },
        {
          "indexed": false,
          "internalType": "string",
          "name": "reason",
          "type": "string"
        }
      ],
      "name": "VoteCast",
      "type": "event"
    },
    {
      "inputs": [
        {
          "internalType": "uint256",
          "name": "proposalId",
          "type": "uint256"
        },
        {
          "internalType": "uint8",
          "name": "support",
          "type": "uint8"
        }
      ],
      "name": "castVote",
      "outputs": [
        {
          "internalType": "uint256",
          "name": "",
          "type": "uint256"
        }
      ],
      "stateMutability": "nonpayable",
      "type": "function"
    },
    {
      "inputs": [],
      "name": "chainId",
      "outputs": [
        {
          "internalType": "uint16",
          "name": "",
          "type": "uint16"
        }
      ],
      "stateMutability": "view",
      "type": "function"
    },
    {
      "inputs": [
        {
          "internalType": "uint256",
          "name": "proposalId",
          "type": "uint256"
        },
        {
          "internalType": "address",
          "name": "account",
          "type": "address"
        }
      ],
      "name": "hasVoted",
      "outputs": [
        {
          "internalType": "bool",
          "name": "",
          "type": "bool"
        }
      ],
      "stateMutability": "view",
      "type": "function"
    },
    {
      "inputs": [],
      "name": "hubContractAddress",
      "outputs": [
        {
          "internalType": "bytes32",
          "name": "",
          "type": "bytes32"
        }
      ],
      "stateMutability": "view",
      "type": "function"
    },
    {
      "inputs": [],
      "name": "hubContractChainId",
      "outputs": [
        {
          "internalType": "uint16",
          "name": "",
          "type": "uint16"
        }
      ],
      "stateMutability": "view",
      "type": "function"
    },
    {
      "inputs": [
        {
          "internalType": "uint256",
          "name": "proposalId",
          "type": "uint256"
        }
      ],
      "name": "isProposal",
      "outputs": [
        {
          "internalType": "bool",
          "name": "",
          "type": "bool"
        }
      ],
      "stateMutability": "view",
      "type": "function"
    },
    {
      "inputs": [],
      "name": "magistrate",
      "outputs": [
        {
          "internalType": "address",
          "name": "",
          "type": "address"
        }
      ],
      "stateMutability": "view",
      "type": "function"
    },
    {
      "inputs": [
        {
          "internalType": "bytes32",
          "name": "",
          "type": "bytes32"
        }
      ],
      "name": "processedMessages",
      "outputs": [
        {
          "internalType": "bool",
          "name": "",
          "type": "bool"
        }
      ],
      "stateMutability": "view",
      "type": "function"
    },
    {
      "inputs": [
        {
          "internalType": "uint256",
          "name": "",
          "type": "uint256"
        }
      ],
      "name": "proposalVotes",
      "outputs": [
        {
          "internalType": "uint256",
          "name": "againstVotes",
          "type": "uint256"
        },
        {
          "internalType": "uint256",
          "name": "forVotes",
          "type": "uint256"
        },
        {
          "internalType": "uint256",
          "name": "abstainVotes",
          "type": "uint256"
        }
      ],
      "stateMutability": "view",
      "type": "function"
    },
    {
      "inputs": [
        {
          "internalType": "uint256",
          "name": "",
          "type": "uint256"
        }
      ],
      "name": "proposals",
      "outputs": [
        {
          "internalType": "uint256",
          "name": "proposalCreation",
          "type": "uint256"
        },
        {
          "internalType": "uint256",
          "name": "localVoteStart",
          "type": "uint256"
        },
        {
          "internalType": "uint256",
          "name": "localVoteEnd",
          "type": "uint256"
        },
        {
          "internalType": "uint256",
          "name": "localVoteStartBlock",
          "type": "uint256"
        },
        {
          "internalType": "bool",
          "name": "voteFinished",
          "type": "bool"
        }
      ],
      "stateMutability": "view",
      "type": "function"
    },
    {
      "inputs": [
        {
          "internalType": "bytes",
          "name": "payload",
          "type": "bytes"
        },
        {
          "internalType": "bytes[]",
          "name": "",
          "type": "bytes[]"
        },
        {
          "internalType": "bytes32",
          "name": "sourceAddress",
          "type": "bytes32"
        },
        {
          "internalType": "uint16",
          "name": "sourceChain",
          "type": "uint16"
        },
        {
          "internalType": "bytes32",
          "name": "deliveryHash",
          "type": "bytes32"
        }
      ],
      "name": "receiveWormholeMessages",
      "outputs": [],
      "stateMutability": "payable",
      "type": "function"
    },
    {
      "inputs": [
        {
          "internalType": "uint256",
          "name": "proposalId",
          "type": "uint256"
        }
      ],
      "name": "sendVoteResultToHub",
      "outputs": [],
      "stateMutability": "payable",
      "type": "function"
    },
    {
      "inputs": [],
      "name": "targetSecondsPerBlock",
      "outputs": [
        {
          "internalType": "uint256",
          "name": "",
          "type": "uint256"
        }
      ],
      "stateMutability": "view",
      "type": "function"
    },
    {
      "inputs": [],
      "name": "token",
      "outputs": [
        {
          "internalType": "contract IVotes",
          "name": "",
          "type": "address"
        }
      ],
      "stateMutability": "view",
      "type": "function"
    },
    {
      "inputs": [
        {
          "internalType": "address",
          "name": "newMagistrate",
          "type": "address"
        }
      ],
      "name": "transferMagistrate",
      "outputs": [],
      "stateMutability": "nonpayable",
      "type": "function"
    },
    {
      "inputs": [],
      "name": "wormholeRelayer",
      "outputs": [
        {
          "internalType": "contract IWormholeRelayer",
          "name": "",
          "type": "address"
        }
      ],
      "stateMutability": "view",
      "type": "function"
    }
  ],
  "bytecode": "0x610140346200018457601f6200170038819003918201601f19168301916001600160401b03831184841017620001895780849260e0946040528339810103126200018457805162000053602083016200019f565b6040830151916001600160a01b0391908284168403620001845760608501519262000081608087016200019f565b936200009e60c06200009660a08a01620001af565b9801620001af565b958260005497168060018060a01b03198916176000558360405198167fb4aa40c4569b1278aa7da5bab0f345910781d388f8257b0bec17a317e2efb6b5600080a360c05260e0526101209384526101009516855260805260a05261153b9283620001c5843960805183818161032f015281816108d30152610df4015260a0518381816103510152818161089701528181610fb10152611083015260c0518381816107240152610979015260e0518381816101a60152818161133801526113780152518281816103d30152818161090c01528181610db9015261126d015251816108580152f35b600080fd5b634e487b7160e01b600052604160045260246000fd5b519061ffff821682036200018457565b51906001600160a01b0382168203620001845756fe6080604052600436101561001257600080fd5b60003560e01c8063013cf08b1461011757806332d0c46d1461011257806334feb3181461010d5780633ba2459414610108578063438596321461010357806345e6efa1146100fe578063529dca32146100f9578063544ffc9c146100f457806356781388146100ef57806388ba16ab146100ea5780639a8a0592146100e5578063b0f6b697146100e0578063d8c71a92146100db578063da25b725146100d6578063e1171999146100d15763fc0c546a146100cc57600080fd5b610963565b61093b565b6108f6565b6108bb565b61087c565b61083d565b61080c565b610681565b61063e565b610578565b610475565b61042e565b6102a9565b6101da565b61018e565b61012c565b6000526001602052604060002090565b3461018957602036600319011261018957600435600052600160205260a06040600020805490600181015490600281015460ff60046003840154930154169260405194855260208501526040840152606083015215156080820152f35b600080fd5b346101895760003660031901126101895760206040517f00000000000000000000000000000000000000000000000000000000000000008152f35b6001600160a01b0381160361018957565b34610189576020366003190112610189576004356101f7816101c9565b6101ff6111d3565b6001600160a01b03908116801561024d57600080546001600160a01b03198116831782559092167fb4aa40c4569b1278aa7da5bab0f345910781d388f8257b0bec17a317e2efb6b58380a380f35b60405162461bcd60e51b815260206004820152602e60248201527f4d6167697374726174653a206e6577206d61676973747261746520697320746860448201526d65207a65726f206164647265737360901b6064820152608490fd5b602080600319360112610189576004356102c16111d3565b6102df6102da60046102d28461011c565b015460ff1690565b6109a8565b816103826102f7836000526002602052604060002090565b926103176001850154946002815491015490604051968794878601610a03565b0361032a601f19918281018652856104b4565b61038e7f0000000000000000000000000000000000000000000000000000000000000000917f0000000000000000000000000000000000000000000000000000000000000000956040519485913389878a8601610a6e565b039081018452836104b4565b6103978461123d565b6000546040516312d729bd60e21b81529586946001600160a01b039486949385936103cf939188169290919088168260048701610abf565b03927f0000000000000000000000000000000000000000000000000000000000000000165af180156104295761040157005b8161042092903d10610422575b61041881836104b4565b810190610aa0565b005b503d61040e565b610b0e565b3461018957604036600319011261018957602060ff610469602435610452816101c9565b600435600052600284526003604060002001610b1a565b54166040519015158152f35b34610189576000366003190112610189576000546040516001600160a01b039091168152602090f35b634e487b7160e01b600052604160045260246000fd5b601f909101601f19168101906001600160401b038211908210176104d757604052565b61049e565b6040519060a082016001600160401b038111838210176104d757604052565b6001600160401b0381116104d757601f01601f191660200190565b81601f820112156101895780359061052d826104fb565b9261053b60405194856104b4565b8284526020838301011161018957816000926020809301838601378301015290565b61ffff81160361018957565b606435906105768261055d565b565b60a0366003190112610189576001600160401b03600435818111610189576105a4903690600401610516565b60248035908382116101895736602383011215610189578160040135938085116104d7578460051b90602460208097604051906105e3838701836104b4565b81520192850101933685116101895760248101925b858410610618576104208761060b610569565b6084359160443590610da8565b83358381116101895788916106338392883691870101610516565b8152019301926105f8565b3461018957602036600319011261018957600435600052600260205260606040600020805490600260018201549101549060405192835260208301526040820152f35b346101895760403660031901126101895760043560243560ff81168103610189578160206106b16107209461011c565b6106c26106bd846111bd565b6110aa565b6106df6106da6106d6600484015460ff1690565b1590565b611102565b6106f96001820154918242101590816107fe575b5061114e565b604051630748d63560e31b8152336004820152602481019190915293849081906044820190565b03817f00000000000000000000000000000000000000000000000000000000000000006001600160a01b03165afa918215610429576107b9936000936107bd575b50828161077f826000805160206114e6833981519152943387611401565b6040805194855260ff919091166020850152830152608060608301819052600090830152339160a090a26040519081529081906020820190565b0390f35b6000805160206114e68339815191529193506107f09060203d6020116107f7575b6107e881836104b4565b8101906111ae565b9290610761565b503d6107de565b6002915001544210386106f3565b34610189576020366003190112610189576004356000526003602052602060ff604060002054166040519015158152f35b3461018957600036600319011261018957602060405161ffff7f0000000000000000000000000000000000000000000000000000000000000000168152f35b3461018957600036600319011261018957602060405161ffff7f0000000000000000000000000000000000000000000000000000000000000000168152f35b346101895760003660031901126101895760206040517f00000000000000000000000000000000000000000000000000000000000000008152f35b34610189576000366003190112610189576040517f00000000000000000000000000000000000000000000000000000000000000006001600160a01b03168152602090f35b346101895760203660031901126101895760206109596004356111bd565b6040519015158152f35b34610189576000366003190112610189576040517f00000000000000000000000000000000000000000000000000000000000000006001600160a01b03168152602090f35b156109af57565b60405162461bcd60e51b815260206004820152602660248201527f44414f53706f6b65436f6e74726163743a20766f7465206973206e6f742066696044820152651b9a5cda195960d21b6064820152608490fd5b9094939260809260a0830196600084526020840152604083015260608201520152565b60005b838110610a395750506000910152565b8181015183820152602001610a29565b90602091610a6281518092818552858086019101610a26565b601f01601f1916010190565b909261ffff608093610a9d9695845216602083015260018060a01b031660408201528160608201520190610a49565b90565b9081602091031261018957516001600160401b03811681036101895790565b93959490610af160c09461ffff809316875260018060a01b03809516602088015260e0604088015260e0870190610a49565b96600060608701526207a12060808701521660a085015216910152565b6040513d6000823e3d90fd5b9060018060a01b0316600052602052604060002090565b15610b3857565b60405162461bcd60e51b815260206004820152601460248201527313db9b1e481c995b185e595c88185b1b1bddd95960621b6044820152606490fd5b15610b7b57565b60405162461bcd60e51b815260206004820152603460248201527f4f6e6c79206d657373616765732066726f6d207468652068756220636f6e74726044820152736163742063616e2062652072656365697665642160601b6064820152608490fd5b15610be457565b60405162461bcd60e51b815260206004820152601960248201527813595cdcd859d948185b1c9958591e481c1c9bd8d95cdcd959603a1b6044820152606490fd5b608081830312610189578051610c3a816101c9565b926020820151610c498161055d565b926040830151610c58816101c9565b606084015190936001600160401b038211610189570181601f82011215610189578051610c84816104fb565b92610c9260405194856104b4565b8184526020828401011161018957610a9d9160208085019101610a26565b15610cb757565b60405162461bcd60e51b815260206004820152602a60248201527f4d657373616765206973206e6f742061646472657373656420666f72207468696044820152691cc818dbdb9d1c9858dd60b21b6064820152608490fd5b91908260409103126101895760208251610d288161055d565b92015190565b908160a0910312610189578051610d448161055d565b916020820151916040810151916080606083015192015190565b15610d6557565b60405162461bcd60e51b815260206004820152601b60248201527a283937b837b9b0b61024a21036bab9ba103132903ab734b8bab29760291b6044820152606490fd5b926001600160a01b0392610e7092917f0000000000000000000000000000000000000000000000000000000000000000851691610e8d91610e8091610e2390610df2338714610b31565b7f00000000000000000000000000000000000000000000000000000000000000009687149081611078575b50610b74565b610e4c610e476106d6610e40846000526003602052604060002090565b5460ff1690565b610bdd565b610e61885198602080809b8301019101610c25565b98929150508830911614610cb0565b6000526003602052604060002090565b805460ff19166001179055565b8483019361ffff8551168015600014610f3d5750505050610ebb83926105769483610f029451010190610d2e565b9195929350610ed4610ecf6106d6866111bd565b610d5e565b610edd81611320565b92610ee66104dc565b968752860152604085015260608401526000608084015261011c565b60046080918351815560208401516001820155604084015160028201556060840151600382015501910151151560ff80198354169116179055565b929492600114610f50575b505050505050565b610f64610fe2938786819751010190610d0f565b9050610f7a816000526002602052604060002090565b95610fee6001880154610f9c60028a549a01546040519a8b93878c8601610a03565b03610faf601f19918281018b528a6104b4565b7f000000000000000000000000000000000000000000000000000000000000000098604051978891338c878d8601610a6e565b039081018752866104b4565b6110136004611005610fff8a61123d565b9461011c565b01805460ff19166001179055565b600054611042906001600160a01b03166040516312d729bd60e21b815298899788968795168260048701610abf565b03925af180156104295761105a575b80808080610f48565b8161107092903d106104225761041881836104b4565b503880611051565b905061ffff809116907f0000000000000000000000000000000000000000000000000000000000000000161438610e1d565b156110b157565b60405162461bcd60e51b8152602060048201526024808201527f44414f53706f6b65436f6e74726163743a206e6f742061207374617274656420604482015263766f746560e01b6064820152608490fd5b1561110957565b60405162461bcd60e51b815260206004820152601f60248201527f44414f53706f6b65436f6e74726163743a20766f74652066696e6973686564006044820152606490fd5b1561115557565b60405162461bcd60e51b815260206004820152602b60248201527f44414f53706f6b65436f6e74726163743a20766f7465206e6f7420637572726560448201526a6e746c792061637469766560a81b6064820152608490fd5b90816020910312610189575190565b6000526001602052600160406000200154151590565b6000546001600160a01b031633036111e757565b60405162461bcd60e51b815260206004820152602860248201527f4d6167697374726174653a2063616c6c6572206973206e6f7420746865206d61604482015267676973747261746560c01b6064820152608490fd5b6040805163c23ee3c360e01b815261ffff929092166004830152600060248301526207a1206044830152816064817f00000000000000000000000000000000000000000000000000000000000000006001600160a01b03165afa908115610429576000916112a9575090565b90506040813d6040116112d0575b816112c4604093836104b4565b81010312610189575190565b3d91506112b7565b634e487b7160e01b600052601160045260246000fd5b81156112f8570490565b634e487b7160e01b600052601260045260246000fd5b9190820180921161131b57565b6112d8565b428111156113695742810390811161131b5761135d907f0000000000000000000000000000000000000000000000000000000000000000906112ee565b430180431161131b5790565b420342811161131b5761139d907f0000000000000000000000000000000000000000000000000000000000000000906112ee565b430343811161131b5790565b156113b057565b60405162461bcd60e51b815260206004820152602360248201527f44414f53706f6b65436f6e74726163743a20766f746520616c72656164792063604482015262185cdd60ea1b6064820152608490fd5b91611441610e8061141f60ff94956000526002602052604060002090565b946003860161143c6114376106d6610e408585610b1a565b6113a9565b610b1a565b168061145857509061145490825461130e565b9055565b6001810361147057506001611454910191825461130e565b600203611486576002611454910191825461130e565b60405162461bcd60e51b815260206004820152603160248201527f44414f53706f6b65436f6e74726163743a20696e76616c69642076616c756520604482015270666f7220656e756d20566f74655479706560781b6064820152608490fdfeb8e138887d0aa13bab447e82de9d5c1777041ecd21ca36ba824ff1e6c07ddda4a264697066735822122048806aa493a18460e8bd531c9b9d871621c3b453e1cce5f6713a72758896f1e964736f6c63430008170033",
  "linkReferences": {},
  "deployedLinkReferences": {}
}